:020000040002F8
:1070000028290320559503004B8F02009F9A020008
:10701000F39C0200D7A6020037BE02000000000069
:10702000000000000000000000000000F7D7020090
:107030006FF7020000000000770F0300471E0300F7
:10704000736D03006B1E0300E9F602000B2D0300B5
:107050002F3303000753030041D70200AF5B030047
:107060005F630300A18C0300878E0300938E0300EF
:10707000399903003B9903003D9903003F990300B0
:1070800041990300A11D03004399030045990300A2
:107090004799030049990300D54003004B99030029
:1070A0004D9903004F990300519903005399030030
:1070B000AB590300559903000000000000000000D8
:1070C00057990300599903005B9903005D990300E8
:1070D0005F990300619903006399030065990300B8
:1070E00067990300699903006B9903000000000091
:1070F000000000006D990300000000006F9903007C
:10710000000000000000000000000000000000007F
:10711000000000000000000000000000000000006F
:10712000000000000000000000000000000000005F
:10713000000000000000000000000000000000004F
:10714000000000000000000000000000000000003F
:10715000000000000000000000000000000000002F
:10716000000000000000000000000000000000001F
:10717000000000000000000000000000000000000F
:1071800000000000000000000000000000000000FF
:1071900000000000000000000000000000000000EF
:1071A00000000000000000000000000000000000DF
:1071B00000000000000000000000000000000000CF
:1071C00000000000000000000000000000000000BF
:1071D00000000000000000000000000000000000AF
:1071E000000000000000000000000000000000009F
:1071F000000000000000000000000000000000008F
:1072000010F0030F01D1012000E00020C0B2704750
:1072100038B504000025042D0DD2DFF8280C50F8F5
:107220002500002805D02000DFF8181C51F8251093
:1072300088476D1CEFE731BD0278012A09D03BD3A6
:10724000032A14D008D3052A2AD020D3062A30D006
:1072500032E000220A702FE001220A7002898A813E
:107260008288CA81C2688A6000220A7424E00222ED
:107270000A7002898A818288CA81C2688A60827D96
:10728000062A01D1012200E000220A7414E0032240
:107290000A70C2888A810289CA81C2688A600BE04A
:1072A00004220A70C2888A810022CA8100228A6070
:1072B00002E005220A70FFE7704702008A4205D209
:1072C000106810F1010F01D0012000E00020C0B2D1
:1072D0007047418800EB81000C30704738B50400DE
:1072E0000D002000FFF7F5FF854201D202200EE0DD
:1072F000A0884FF6FF71884206D02088002803D06E
:10730000A06810F1010F01D1012000E0002032BD82
:1073100010B50400002C10D0DFF8900BC068844238
:107320000BD3DFF8880B0069A04206D32000FFF7DB
:1073300067FF002801D0012000E00020C0B210BD8E
:107340000100002904D00868DFF8642B904201D0C6
:1073500003200BE04868DFF85C2B801A03D0401E46
:1073600003D1012002E0002000E00320704701006B
:10737000086810F1010F06D00868DFF8342B90423E
:1073800001D000200DE00122B2F5806F08D251F843
:10739000220010F1010F01D0002002E0521CF3E79F
:1073A0000120704710B4DFF8583C0400A4B2142246
:1073B000544303EB040212895118DFF8443C0400E3
:1073C000A4B21422544303EB04025289511889B227
:1073D00040F20142914201DA012000E00020C0B2F7
:1073E00010BC704770B4030048F20960002422000A
:1073F00092B2B42A1DDADFF8085C2600B6B2142275
:10740000564305EB060252688A4210D2DFF8F05B61
:107410002600B6B21422564305EB0602526812F556
:107420008052914203D2002210001C8001E0641CB3
:10743000DDE770BC70472DE9F8430D00140010F52E
:10744000805610F1080702202880B84631004046D7
:10745000FFF733FF00282CD031004046FFF73EFFF6
:1074600081464846C0B200280CD1DFF86C0C006899
:10747000D8F80810884211D2D8F80800DFF8581C54
:1074800008600BE0002C01D0012020704846C0B2FB
:10749000022803D14FF4806028800AE02988B8F8D8
:1074A00002004118C91C29804046FFF712FF8046A0
:1074B000CCE7BDE8F1838A7D032A04DB0389CA880F
:1074C000D318DB1C03814389CA889B1ADA1E4281C8
:1074D000704780B5002000900823DFF8002CDFF80B
:1074E000000C0168DFF8C40901F0EFF902BD1CB51A
:1074F0000400002000900823DFF8E82B2100DFF8CB
:10750000AC0901F0E2F916BD2DE9F04105000E00CD
:107510000024EF1C380080B240F2FF31884202DBC9
:1075200048F2086038E05FF00008404680B2B428B6
:107530002BDADFF8CC1A424692B214204243885C20
:1075400000281FD1390089B2404680B2FFF72AFFD8
:10755000002817D001200400A6F80080DFF8A01A48
:10756000424692B21420424301EB0200418979184D
:10757000DFF88C2A43469BB21420434302EB0300FE
:10758000418102E018F10108CFE7E4B2002C01D0FC
:10759000002001E048F20660BDE8F08130B4DFF879
:1075A000603A0C00A4B21422544303EB0402528943
:1075B000121AD31EDFF8484A0D00ADB2142255430B
:1075C00004EB0502538130BC704780B50121DFF820
:1075D000080B01F075FB02BD2DE9F04106000D001E
:1075E000DFF81C1A320092B21420424301EB020071
:1075F000406810F580572C68002C04D02000FFF75D
:1076000068FE80460AE0DFF8F819320092B21420D2
:10761000424301EB0200406810F10808390040467F
:10762000FFF74BFE002814D039004046FFF756FE06
:10763000002803D002280AD004D3EFE7C5F8008061
:10764000012007E04046FFF744FE8046E6E70020C1
:1076500000E00020BDE8F08138B504000D0060684E
:10766000FFF756FE002815D02089DFF8181C09897D
:1076700088420FD120686168896888420AD16168B0
:107680002800FFF7AFFE002801D1012000E0002014
:10769000C0B21EE0002028802888B42818DA002014
:1076A000009069462888FFF797FF00280CD00099C2
:1076B000886822689042F4D100986060DFF8C40BBB
:1076C00000892081012004E02888401C2880E3E70D
:1076D000002032BDF8B504000D0016001F00DFF8D1
:1076E000A80B0078002802D148F2016036E0002E95
:1076F00001D0002F02D148F204602FE0B888B428EE
:107700002ADADFF8FC18BA8814204243885C002883
:107710001ED13900B888FFF75FFF002816D03968FE
:10772000002C03D0888822889042F2D1002D03D00B
:1077300008882A889042ECD1886830603868706088
:10774000DFF8400B00893081002007E0002038601E
:10775000B888401CB880D1E748F20960F2BD2DE935
:10776000F04704000D0016001F00DDF82080DFF850
:107770001C1B220092B21420424301EB020040681D
:1077800010F10809DFF8041B220092B214204243D2
:1077900001EB0200406810F5805A51464846FFF759
:1077A0008CFD00282DD051464846FFF797FD002854
:1077B00010D0022816D023D23088401C308039885F
:1077C000B9F802004118C91C39804846FFF781FD0D
:1077D0008146E2E72888401C28804846FFF779FD6B
:1077E0008146DAE73088401C30803888BAEB0901DE
:1077F000891011FA80F03880012088F8000000E03C
:10780000CBE7BDE8F0872DE9F04104002100DFF867
:10781000400C006801F027FB05001C260027A84645
:107820003A003100404601F059FB2800BDE8F081E4
:1078300010B504002100DFF8180C006801F022FBED
:1078400010BD10B504002100DFF8040C006801F041
:1078500027FB10BD10B504002100DFF8F40B006811
:1078600001F02DFB10BD80B50121DFF8E80B01F020
:1078700035FA002801D0012000E00020C0B202BD8E
:107880002DE9F04700240025B52600275FF0000809
:10789000404680B2B52880F2CE80DFF81006C1687D
:1078A000424692B24FF48050424301EB02094846EF
:1078B000FFF746FD82465046C0B2002851D001284D
:1078C0007CD0032840F0B4804846FFF750FD0028E4
:1078D00032D0DFF80C080068002820D00221DFF841
:1078E000AC292B009BB214204343D154DFF89C19E0
:1078F0002A0092B21420424301EB0200C0F8049027
:107900000221DFF888292B009BB21420434302EBAD
:1079100003000181DFF86C0945806D1C09E0DFF888
:10792000C007C0F800900220DFF8B417888001205B
:10793000070054F0010413E0761EDFF850192A0006
:1079400092B21420424301EB0200C0F804900321DC
:10795000DFF838292B009BB214204343D1546D1C0F
:1079600066E00021DFF824292B009BB2142043435A
:10797000D154DFF818192A0092B21420424301EBC7
:107980000200C0F80490DFF804192A0092B2142013
:10799000424301EB020010F11002DFF8F0182B0057
:1079A0009BB21420434301EB030010F10801484649
:1079B000FFF741FD54F002046D1C39E03800C0B2FD
:1079C000002821D00221DFF8C4282B009BB214200C
:1079D0004343D154DFF808070168DFF8B0282B00D3
:1079E0009BB21420434302EB030041600221DFF805
:1079F0009C282B009BB21420434302EB030001811F
:107A0000DFF8800845806D1CDFF8D406C0F80090D0
:107A10000022DFF8701B4846FFF70DFDDFF8C006B7
:107A20008088022801D1042000E008200443FFE7F9
:107A300018F101082CE7300080B2022801DA00209A
:107A400004002000C0B2BDE8F08738B504000D0086
:107A50000220A075002000900423221D2900DFF8D9
:107A60004C0400F032FF002801D1002001E048F270
:107A70000D6032BD38B504000D002069002801D02A
:107A8000032000E00120A07500200090042314F1E1
:107A90000C0215F10801DFF8140400F016FF0028AD
:107AA00001D1002001E048F20D6032BD38B504007C
:107AB0000D002078032801D1052000E00620A075E4
:107AC00000200090042314F10802291DDFF8DC03D4
:107AD00000F0FBFE002801D1002001E048F20D601B
:107AE00032BD7CB504000D00002000900423DFF8B7
:107AF000082B2100DFF8B40300F0E7FE01000029A5
:107B000002D048F20D600AE00122DFF880372E0033
:107B1000B6B21420464303EB06000274002076BD83
:107B200038B584B0040001A800210022002380E8B9
:107B30000E00E0680190694601A8FFF78DFD00285E
:107B40000AD0029DA888E08028882081BDF8001016
:107B50000298FFF7C6FF01E048F2096005B030BDAA
:107B60002DE9FF410500DFF8CC3A6A460021A81D47
:107B7000FFF7B0FD0400002C07D1DFF8B80A8188B8
:107B80000198FFF7AEFF040008E008260027DFF8A1
:107B9000A48A3A003100404601F0A0F9200004B068
:107BA000BDE8F08138B504000D000120A07500206B
:107BB0000090E0888300226915F10C01BB4800F0B9
:107BC00084FE002801D1002001E048F20D6032BDA2
:107BD000DFF8B0060089401CDFF8A81608810020F5
:107BE000DFF8A01648800020DFF8981681F8BE0064
:107BF0000021080080B2B42813DADFF890260B00C9
:107C00009BB214204343D05C002801D1012000E046
:107C10000020DFF870260B009BB21A449072491CBA
:107C2000E7E7704730B4020000210023180080B25B
:107C3000B4282ADADFF84C061C00A4B22044807A6B
:107C4000002820D00020DFF83C461D00ADB22C44B7
:107C5000A072DFF838461D00ADB21420454304EB96
:107C60000500C06800280ED1DFF820461D00ADB227
:107C70001420454304EB0500007C012803D1138048
:107C80000120010001E05B1CD0E70800C0B230BC5D
:107C9000704780B50520DFF8EC1508700220DFF88A
:107CA0004014888000230122DFF834040168DFF8E3
:107CB0004C0900F0C1FE02BD38B5DFF8C8054488A4
:107CC000CF49220092B21420424301EB0200C06867
:107CD000002812D10420DFF8AC150870002301221F
:107CE000C7492500ADB21420454301EB05004168AA
:107CF000DFF8080900F0A0FE01E0FFF7CAFF32BD7F
:107D00007CB5DFF880054468DFF8D4030068DFF84D
:107D1000D013898800EB81056688F61C0320DFF804
:107D20006415087000200090300080B28300DFF8F6
:107D30005405426829005D4800F0C7FD76BD80B556
:107D4000DFF88819DFF888094088FFF745FC00282C
:107D500002D0FFF7D5FF01E0FFF7AEFF02BD80B50F
:107D60000620DFF820150870A549DFF818054288BD
:107D70001420424301EB02004068FFF7B8FB02BD4C
:107D800080B50720DFF8FC1408700020DFF8F41439
:107D90004860FFF79EFB02BD80B5DFF8800AFFF761
:107DA00041FF00280ED10020DFF8D8140870002011
:107DB000DFF8D01448800020DFF8C814486041F68E
:107DC0001D5001E0FFF7BBFF02BDDFF8B8044068BB
:107DD0004188C91CC24A92888A18C14B9A80704750
:107DE00010B4BF480168864ADFF89804438814201D
:107DF000434302EB03004068B94A1060804ADFF851
:107E0000840443881420434302EB03004160B448D8
:107E100082887B4BDFF86C0444881420444303EBD6
:107E2000040002810220AE4A90800022744BDFF8E9
:107E3000540444881420444303EB0400027410BC2F
:107E4000704700008807032080B5DFF83804007809
:107E500000280AD003280FD0042814D0052819D0F0
:107E6000062817D007281AD01EE0FFF7B1FE012020
:107E7000DFF81014087017E0FFF7A7FF0220DFF803
:107E80000414087010E0FFF7ABFF0620DFF8F413CE
:107E9000087009E00720DFF8EC13087004E0012007
:107EA000DFF8E0130870FFE701BD0000A424022002
:107EB000DEC0ADDEFE011EF12DE9F04104000E0032
:107EC00048F20E65002C06D00020DFF854194860F7
:107ED0004FF4064091E03079002805D0022840D0C8
:107EE00008D303284CD07EE001203071FFF7F1FA6F
:107EF000050078E000275FF00008404680B2B42813
:107F00001FDA3F49424692B214204243885C02285D
:107F100014D100213A4A43469BB214204343D15422
:107F2000012007003649424692B21420424301EB39
:107F300002004068FFF7DBFA050002E018F10108D3
:107F4000DBE73800C0B200280AD10120DFF8D018E2
:107F500008700020DFF8C818486041F61D504CE05A
:107F600041E00020307102205D4988800023012219
:107F70005B480168DFF8840600F05EFD050032E032
:107F80000020307156480068FFF7B1FA0500BD487F
:107F90004188534802681A4B0F00BFB21420474370
:107FA00003EB070040684E4B1860154B0F00BFB243
:107FB0001420474303EB0700426049488388104F71
:107FC0008C461FFA8CFC142000FB0CFC07EB0C0009
:107FD00003810220424B98800023094F89B214206C
:107FE00041437B54FFE7002D06D00020DFF8301816
:107FF000486048F20D6000E00020BDE8F08100001C
:1080000020E502202DE9F04104000E009F49B28ACC
:108010001420424301EB0207002C06D03100380047
:10802000FFF749FA4FF4064053E07868398900EBCE
:108030008108B07D00281CD0022820D02BD3042832
:1080400004D022D3062838D02BD339E00020DFF823
:10805000D4174860B069DFF8CC170860DFF8C8179C
:10806000DFF8C007FFF7F8FA002802D148F20960EC
:108070002FE041463000FFF7E8FC050022E04146D2
:108080003000FFF7F7FC05001CE041463000FFF729
:1080900089FD050016E041463000FFF707FD0500A9
:1080A00010E00620B075DFF880070188DFF874075C
:1080B0004068FFF716FD050004E041F61D5501E09C
:1080C00048F20E65002D03D031003800FFF7F3F9B8
:1080D0002800BDE8F0810000BC08032018970300C9
:1080E000380803202097030038B504000D00002C49
:1080F00002D04FF406401CE02879002803D0022863
:1081000012D006D313E0022028712800FFF708FDE3
:108110000FE02800FFF724FD48F20961884202D1F0
:1081200041F61D51080004E041F61D5001E048F2FF
:108130000E6032BD10B50400002C02D04FF4064092
:108140002EE0504890F8BE00002804D000204D4991
:1081500081F8BE0001E0FFF777FE4A480078012869
:108160000AD002280BD003280CD004280DD00628F2
:108170000ED007280FD011E0FFF70EFE10E0FFF73A
:10818000DEFD0DE0FFF7BCFD0AE0FFF795FD07E01F
:10819000FFF7E5FD04E0FFF7F3FD01E048F20E60B4
:1081A00010BD18B585B00400DFF88006006800280F
:1081B00006D1DFF87C06FFF744FBDFF87016086095
:1081C000DFF8680600680078012809D025D3032865
:1081D0000ED00DD3052813D012D3062818D01CE0DA
:1081E000DFF8480601682000FFF766FE040017E08C
:1081F000DFF8380601682000FFF704FF04000FE0F5
:10820000DFF8280601682000FFF76EFF040007E092
:108210002000FFF78FFF040002E048F20E60040028
:10822000002C22D06846142100F08CFE41F61D502F
:10823000844201D1002000E0200001906946DFF86F
:10824000EC050068FEF7F8FF6846FEF7E1FF002046
:10825000DFF8D815086000200400DFF8D405FFF728
:10826000F9FAFFF700FB00289ED106B010BD80B5DB
:108270000121784800F016FD002802D10020FFF708
:1082800090FF01BD340003203008032020E50220C8
:1082900010B504006068FFF784FF10BD2DE9FE4FA4
:1082A00004000D00160099465FF0000A5FF0000818
:1082B000DFF86C050078002802D148F2016071E017
:1082C000002D02D148F204606CE028884FF6FF715F
:1082D000884202D06888002802D148F2036061E039
:1082E0006868FEF78DFF002802D148F2026059E06D
:1082F000002E0BD1D5F808B06946584680B2FFF77A
:1083000003F90700002F06D038004BE03088ADF8A5
:108310000000B6F802B001A8FFF775FA8046B8F180
:10832000000F08D1BDF80010584680B2FFF736F9AB
:1083300048F2076036E088F80090002088F81600C0
:10834000BDF80000A8F814006868C8F81000FFF72E
:108350003CF9C8F80C002888A8F808006888A8F834
:108360000400A8F806B04846C0B2032805D104208E
:1083700088F816002068C8F81800A8F80AA001A814
:10838000FFF756FA002C0AD000206060D8F80C00E5
:1083900020600020A072DFF8380300892081FFF7F9
:1083A00066FF0020BDE8FE8F10B50400DFF88404EE
:1083B0000068042802D148F20B600CE0DFF8780472
:1083C000DFF87014096840F821400121DFF86404E7
:1083D00000F076FC002010BD40F6F870006810F147
:1083E000010F03D1DFF85404016802E040F6F87091
:1083F0000168DFF84C040268DFF84804036811F1F3
:10840000010F01D0080001E002FB03F0704710B536
:108410005FF43524FFF7E0FF784908617748006989
:10842000001B7649C86010BD80B5FFF7F0FF002241
:10843000DFF81414714800F00FFA02BD80B51C2358
:108440008C22DFF808140248006800F0E4FC01BD4B
:10845000EC980300B408032070B586B001A814217D
:1084600000F070FDDFF8B8030078002804D001A800
:10847000FEF7CEFE00205AE0DFF8D40300F03BFC0C
:10848000002801D0002052E0FFF7CEFF0400002CAE
:1084900001D020004BE0FFF7D1FFFFF7F1F9060014
:1084A0003000C0B2002804D0022802D0062803D031
:1084B0000FE048F20A603AE00120DFF86413087028
:1084C0000020DFF85C13486001A8FEF7A1FE002041
:1084D0002DE06846FFF797F90500002D02D148F21C
:1084E000076024E0012028703000C0B201280CD0C1
:1084F00003280AD0052811D007280FD0092807D053
:108500000A2808D00B2803D00BE00020287108E0CF
:108510000320287105E00220287102E00120287163
:10852000FFE76846FFF784F9FFF7A1FE002006B0D9
:1085300070BD7CB504000D00002C01D0002D02D1CF
:1085400048F204601CE069462000FFF785F8002827
:1085500014D066680121DFF8FC22BDF80030142039
:10856000434302EB03000C3000F0AAFB2E6060686E
:108570000C3068600120A072002001E048F2096020
:1085800076BD00003C0803201CB50400002C02D17D
:1085900048F204602FE069462000FFF75DF80028EC
:1085A00027D0DFF8B012BDF800201420424301EBC1
:1085B0000200C068002819D0A07A002816D0DFF881
:1085C0009412BDF800201420424301EB0200C16860
:1085D000491EDFF88022BDF800301420434302EB2F
:1085E0000300C1600020A072002004E048F2056092
:1085F00001E048F2096016BDF0980300A4240220AF
:1086000038B504000D000223002229002000FFF7E6
:1086100045FE32BD38B504000D00002C02D148F2F1
:10862000046005E00323002229002000FFF736FE46
:1086300032BD00004008032038B5050078480078B6
:10864000002802D148F201601CE028004FF6FF71BB
:1086500080B2884202D148F2036013E06846FFF717
:10866000D2F80400002C02D148F207600AE005208D
:10867000207001202071E5806846FFF7D9F8FFF7E8
:10868000F6FD002032BD1CB565480078002802D1F7
:1086900048F2016018E06846FFF7B5F80400002CC6
:1086A00002D148F207600FE0062020706846FFF70D
:1086B000BFF807480078002803D00120044981F85A
:1086C000BE00FFF7D4FD002016BD000038000320D7
:1086D0003400032033B581B014001D002B002200AC
:1086E00002A901A8FEF7F6FF3EBD31B50C0015004A
:1086F0002B00220069460020FEF7ECFF32BD31B5A9
:108700000C0015002B00220000216846FEF7E2FF56
:1087100032BD0200002A01D0002902D148F20460D3
:1087200002E010680860002070472DE9F84304005B
:108730004FF4806500263A480078002802D148F2BC
:10874000016068E0002C02D148F2046063E05FF051
:1087500012085FF0000927004A464146380000F041
:10876000BDFBB52020800027380080B2B42851DA44
:1087700038493A0092B21420424301EB0200B0F8AB
:10878000088034493A0092B21420424301EB0200BF
:10879000408910EB08082F493A0092B21420424356
:1087A00001EB02004068FEF7CBFD032802D12088D0
:1087B000401E20806188274A3B009BB2142043431F
:1087C00002EB0300C068411861802189214A3B0007
:1087D0009BB21420434302EB0300408941182181DE
:1087E000608918EB00006081B5EB08000600A089E5
:1087F000310089B2884200D2A68114F110000090A5
:1088000014F10E03A21D211D380080B2FEF7A7FF50
:108810007F1CA9E70020BDE8F2830000360003209A
:1088200030080320E0070320F8080320C0080320D5
:10883000C4080320B8080320880703201410001080
:108840001000001014000010C48C0300B4010320B9
:108850003408032020E50220F8B504000D001700BD
:10886000002C14D10E200090DFF8BC32DFF8BC22BF
:10887000DFF8BC12DFF8BC02DFF8BC62801BC00866
:10888000000450F0010000F093FD0E201CE0002DCC
:1088900014D10E200090DFF89032DFF8A022DFF82C
:1088A0009012DFF89002DFF89062801BC00800048D
:1088B00050F0010000F07CFD0E2005E0256039003D
:1088C0002000226812689047F2BD2DE9FC410400A7
:1088D000884615001E00002C10D10E200090DFF8F5
:1088E0006432924A92499348934FC01BC0080004D7
:1088F00050F0010000F05CFD0E2098E0002D0FD13B
:108900000E2000908F4B904A89498A488A4FC01B9D
:10891000C008000450F0010000F04AFD0E2086E07F
:10892000206800280FD108200090864B844A804997
:108930008048814FC01BC008000450F0010000F0C7
:1089400037FD082073E0002E0FD1092000907D4BE9
:1089500038A277497748784FC01BC008000450F010
:10896000010000F025FD092061E060684068B6FB69
:10897000F0F100FB116000280FD009200090714B2E
:10898000724A6B496B486C4FC01BC008000450F022
:10899000010000F00DFD092049E0404600F0F1F82B
:1089A00000280FD110200090664B694A6049614849
:1089B000614FC01BC008000450F0010000F0F8FC3B
:1089C000102034E0280000F0DCF800280FD110203F
:1089D00000905C4B5F4A56495648574FC01BC00831
:1089E000000450F0010000F0E3FC10201FE0320012
:1089F0004146200000F0B8F800280FD11020009068
:108A0000504B554A4A494B484B4FC01BC0080004C5
:108A100050F0010000F0CCFC102008E00898009015
:108A200033002A00414620002768FF68B847BDE8A8
:108A3000F68100006C656E002DE9FC4104000F001A
:108A400015009846002C0FD10E200090434B374A5A
:108A500037493848384E801BC008000450F00100E8
:108A600000F0A6FC0E205BE0206800280FD1082053
:108A700000903A4B324A2E492E482F4E801BC00898
:108A8000000450F0010000F093FC082048E0002DA5
:108A90000FD109200090314B22A225492548264EAE
:108AA000801BC008000450F0010000F081FC092088
:108AB00036E03900200000F06CF800280FD11020BB
:108AC0000090264B264A1A491A481B4E801BC008A4
:108AD000000450F0010000F06BFC102020E0606802
:108AE000026802FB05F23900200000F03DF8002882
:108AF0000FD110200090194B1A4A0D490D480E4E07
:108B0000801BC008000450F0010000F051FC102050
:108B100006E043462A003900200026683669B0473F
:108B2000BDE8F6816C656E008C91030090970300A0
:108B3000148803000C710300D4700300989703009D
:108B4000F0950300A0910300A09703004088030064
:108B50009C8F0300608B0300248A0300B491030000
:108B60004C8A0300247E0300C368994206D300693F
:108B70005118491E884201D3012000E00020C0B2F4
:108B8000704710F0030F01D1012000E00020C0B2B7
:108B9000704740680068401E014201D1012000E09A
:108BA0000020C0B27047F0B40246106895681318F0
:108BB000506803EB5004C0071BD54D4419E013F86F
:108BC000017B05F8017B491EF9D190B113F8011B17
:108BD000C6F38106032E08BF13F8016B01EB0621D3
:108BE00049422944801C11F8016B05F8016B401EB5
:108BF000F9D1A3420ED013F8016B16F0030104BFA4
:108C000013F8011BC91C30090F28DCD113F8010B24
:108C10000F30D8E7F0BC02F10C00704710B402002E
:108C200052E8000F0B4642E8003494F0000FF7D1F1
:108C300010BC704710B4020052E8000F40EA010374
:108C400042E8003494F0000FF6D110BC70470000E9
:108C500010B4020052E8003F43EA010042E8000479
:108C600094F0000FF6D110BC7047000010B4020061
:108C700052E8000F00EA010342E8003494F0000FCC
:108C8000F6D110BC7047000010B4020052E8003F5B
:108C900003EA010042E8000494F0000FF6D110BC92
:108CA0007047000010B4020052E8000F00EB01030F
:108CB00042E8003494F0000FF6D110BC7047000079
:108CC00010B4020052E8003F03EB010042E8000448
:108CD00094F0000FF6D110BC7047000010B40200F1
:108CE00052E8003FA3EB010042E8000494F0000FBB
:108CF000F6D110BC704710B5040001212000FFF729
:108D000099FF10BD10B5040001212000FFF7A0FF5E
:108D100010BD10B5040000212000FFF7A7FF10BD13
:108D20003CB4020052E8015FABB2D4892344948979
:108D3000A34228BF1B1B1489A34202BFBFF32F8F7E
:108D4000002007E0C3EA050342E80134002CE9D122
:108D50004FF0010001958DF80000019808609DF822
:108D6000000036BC7047000050E8012FC2EA024202
:108D700040E801210029F7D1704700003CB402000F
:108D800052E8025F1FFAA5F3D488A34202BFBFF3E3
:108D90002F8F00200DE0D48923449489A34228BF5B
:108DA0001B1BC5EA034342E80234002CE8D14FF014
:108DB000010001958DF80000019808609DF8000001
:108DC00036BC704750E8022FC2EA224240E8022136
:108DD0000029F7D17047000081B0010051E8022F4F
:108DE000CB88B2EB324F4FF0000017BF92B243EA8C
:108DF000034342EA034304E04A68B2EB324F08BF40
:108E0000012041E80232002AE8D18DF800009DF8E7
:108E1000000001B0704770B40400002901D10E2099
:108E200013E0100080B21D00ADB290FBF5F605FB1B
:108E30001600002801D0092007E0216000206060B2
:108E40000020A060A281E381002070BC704710B5B3
:108E500004002000FFF7C0FFC0B2002801D00020AE
:108E600000E0112010BD38B504000D0029002000DD
:108E7000FFF756FF002803D020682988084400E047
:108E8000002032BD38B504000D002888698888426A
:108E900004D12000FFF768FF012000E0002032BD70
:108EA00038B504000D0029002000FFF767FF0028F7
:108EB00003D020686988084400E0002032BD38B53E
:108EC00004000D0028886988884204D12000FFF73B
:108ED00079FF012000E0002032BD000062F30F2284
:108EE00062F31F42401810F0030308D0C91A1FD3C1
:108EF000DB0748BF00F8012D28BF20F8022D130022
:108F000030B414461546103928BF20E93C00FAD881
:108F1000490728BF20E90C0048BF40F8042D89000C
:108F200028BF20F8022D48BF00F8012D30BC704743
:108F3000C91818BF00F8012DCB0728BF00F8012D74
:108F400070474300002200F06BBCFEE738B5040018
:108F50000D002900200022681268904731BD10B52D
:108F60000400200021684968884710BD10B504003E
:108F7000200021688968884710BDC2681171704758
:108F8000C068007970470121C26851717047C0689C
:108F90004079704770B505000E000020DFF84818D2
:108FA0000870DFF8480800F054FC0400002C01D0E1
:108FB00020000AE0DFF8380800F05EFDDFF8340832
:108FC000DFF83418411AC908002070BDDFF8240802
:108FD000DFF82418401AC008704770B504000D006F
:108FE0002800C0B2002814D0FFF7F0FF01000022D3
:108FF0008A420CD2DFF8040800EB82031888266846
:10900000B04202D12260002004E0521CF0E70520AB
:1090100000E0002070BD11B581B00C002100C9B284
:1090200001A8FFF7DAFF002806D1DFF8D40701997D
:1090300000EBC100006800E0002016BD0200DFF870
:10904000C00700EBC2030800C0B2012806D00DD350
:10905000032807D004D3042806D007E0022006E046
:10906000042004E0187902E0587900E00020C0B242
:10907000704710B4030000201A68C2F38002002A6F
:1090800018D01A7812F00302012A02D0022A08D05E
:109090000EE00C681A68C2F383121419A41C0C6049
:1090A00006E00A681C6812EB9452921C0A60FFE703
:1090B00001221000C0B210BC7047F8B584B0002483
:1090C000DFF84007FFF71EFEDFF83C07FFF71AFE48
:1090D000DFF8140780680090DFF830070568DFF8D4
:1090E00008070099294000EB810010F10C06694641
:1090F0003000FFF7BEFF002808D0DFF8EC0600992B
:10910000294000EB81000C300600F0E70027022F19
:109110000ED2DFF8D4060099294000EB8100C06828
:1091200001A941F827000098401C00907F1CEEE741
:10913000019810F0030001280CD0022814D1BDF8CA
:109140000A00040000980199890DC91C10EB9100D8
:10915000009009E0BDF80A00040000990198C0F3EE
:10916000831041180091FFE7DFF89C06FFF7D1FD5F
:109170000100002903D00098DFF86C269060A4B2AB
:10918000200005B0F0BD80B50021DFF88406FFF7B0
:1091900045FD010081F3100002BD2DE9F8430400F4
:1091A0000D0016001F00DDF82080A1465FEA194976
:1091B000FFF7E9FFDFF830167A1C18EA020201EB2C
:1091C000820159EA0042CA60DFF81C1618EA070259
:1091D00001EB82010C310A00136864F3C5031360CC
:1091E0000A00136866F3891313600A00136865F3B5
:1091F0009F2313600A000123D2F800C063F3010C1F
:10920000C2F800C00A00136833F004031360BDE81D
:10921000F1832DE9FC4704000D009146A61C0127AF
:1092200000208DF80000684600F092FCDFF8B805D9
:1092300040682860DFF8D4050068401CDFF8A815F6
:10924000D1F80480B0EB0808DFF89C05806810EBCB
:109250000808B0451AD20121DFF8B405FFF730FD48
:10926000FFF72BFF82465146DFF8A405FFF728FDE4
:10927000DFF898050168491CDFF86C054068091A99
:10928000DFF86405806841188846E2E73800C0B21C
:10929000002827D000214846C0B2002807D001206E
:1092A00060F3010151F0040164F3891106E002202A
:1092B00060F3010151F0040164F39F51DFF82825A8
:1092C000DFF824054368DFF844050068034002EB3B
:1092D00083000C300160DFF810255268B218DFF807
:1092E00008355A609DF8000000F038FC3800C0B224
:1092F000BDE8F6872DE9FC4704000D0016001F00AD
:10930000DFF80805D0F80080012201A93800FFF736
:1093100080FF00281DD0DDF8049019F102095FF0EC
:10932000000ABA450DD2DFF8C00418EA090100EBC3
:10933000810056F82A10C16019F101091AF1010AD9
:10934000EFE7CDF80080019B3A0029002000FFF7ED
:1093500024FFDFF894040078002803D000F063F8BD
:109360000028FBD1BDE8F38738B504000D000023C9
:10937000002229002000FFF7BDFF31BD7CB50400AD
:109380000D001600009601236A4629002000FFF711
:10939000B1FF73BDFEB504000D0016001F0000965E
:1093A000019702236A4629002000FFF7A3FFF7BDBB
:1093B0002DE9FF4104000D0016001F00DDF8288094
:1093C00000960197CDF8088003236A462900200003
:1093D000FFF790FFBDE8FF812DE9F84384B004005A
:1093E0000D0016001F00DDF83080DDF83490009687
:1093F0000197CDF80880CDF80C9004236A46290027
:109400002000FFF777FF05B0BDE8F083DFF8D80351
:109410008068DFF8D4134968884201D1012000E058
:109420000020C0B270472DE9F84F8AB0FFF7EEFF79
:10943000002801D0002073E10020DFF8AC13C1F850
:109440001804BFF34F8FDFF8A00380680090DFF8A7
:10945000BC030668DFF890030099314000EB8100FF
:109460000C300890002400270020079069460898D7
:10947000FFF7FFFD00281CD0DFF86C03D0F81804BC
:10948000002816D10098DFF860134968884207D396
:10949000DFF854034068DFF85013886000203FE194
:1094A000DFF844030099314000EB81000C30089054
:1094B000DCE75FF00008B8F1020F0FD2DFF82803F5
:1094C0000099314000EB8100C06803A941F82800F1
:1094D0000098401C009018F10108ECE7039810F088
:1094E0000300022840F08080DDF80C905FEA995973
:1094F0000398800D502804DADDF80CA05FEA9A5A30
:1095000001E05FF0500A03986AF39F5003901AF14C
:10951000080009900398C0F3C20007900999B34866
:1095200000F09DF90400002C00F0A380200000F062
:10953000FCF93B00082203A9200000F07FFA08375D
:10954000701C00993140401A8000029002985045EA
:1095500036D20298002807D0A3480099314000EB8A
:1095600081000C30069001E0AA480690029800287D
:1095700002D0DDF808B000E0D3460298002801D000
:10958000A44D00E000250298002803D00298BAEB11
:10959000000000E000208DF804003B005A46D2B2E3
:1095A0000699200000F04AFA57FA8BF7002D14D0E4
:1095B0003B009DF804202900200000F03FFA0CE059
:1095C00089480099314000EB810010F10C053B0007
:1095D00052462900200000F031FA009819F10309E1
:1095E00010EB9900009044E0039810F0030001286C
:1095F0003FD10398C0F38310062803DA0398C0F321
:10960000831000E00620039960F389110391039809
:10961000C0F38315AD1C0398C0F3C2000790A900E6
:10962000724800F01CF90400002C22D0200000F049
:109630007CF93B00082203A9200000F0FFF908375D
:10964000002080460398C0F38310804511D2009813
:10965000411C00913B0004226349304001EB800033
:1096600010F10C01200000F0E9F93F1D18F101088C
:10967000E8E7002C37D05C48D0F810545A48D0F8AE
:109680001804002803D0200000F057F940E0002D16
:1096900013D05FF000092800FFF779FC012801D101
:1096A000012081464846C0B2002803D0210028008E
:1096B000FFF74CFCE8680568E9E7200000F03DF999
:1096C00000208DF8040001A800F042FA4648D0F8C6
:1096D0001804002802D10098434988609DF80400CE
:1096E00000F03CFA14E04048D0F81054002D05D0AA
:1096F0002800FFF73BFCE8680568F7E7464947485C
:109700003D4A801AC008000450F00200FFF72CFE0A
:10971000FFF77CFE002801D1012000E00020C0B24C
:109720000BB0BDE8F08F70B500260A2E1ADA2E486D
:10973000D0F81004040001200500002C0AD02000FD
:10974000FFF71EFCB04202D10020050002E0E068F5
:109750000468F2E72800C0B2002801D0300003E01E
:10976000761CE2E75FF0FF3070BD70B504000D00BD
:10977000FFF7D9FF060016F1010F01D130001EE0FE
:1097800030000100C9B22000FFF7F7FB1648D0F8FF
:109790001004002806D11448C0F810440020E168E5
:1097A00008600BE01048D0F81004C0680068E16859
:1097B00008600D48D0F81004C0680460300070BD27
:1097C00010B50948D0F81044012007490870002C52
:1097D00008D02000FFF7D7FB2000FFF7C0FBE068B0
:1097E0000468F4E710BD000064F7022080930300D2
:1097F00014960300A4710300D4700300000000005D
:10980000D47003007CFB022078FB0220302302206E
:1098100080FB022070F70220DC910300147103002A
:1098200000B500BF130096469446103928BFA0E843
:109830000C50FAD85FEA417C28BF0CC048BF40F802
:10984000042BC90728BF20F8022B48BF00F8012BC2
:1098500000BD10B50400200000F095F910BD2DE901
:10986000F84F06000F00B6F81080B8F1040818EBA6
:109870000700C01CB0FBF8F9300000F0A2F90500A9
:10988000002D01D1002027E00020287101206871FF
:10989000A5F806800095CA465FFA8AFABAF1010A6D
:1098A000009806605FF0000BD34514D2300000F042
:1098B00088F90400002C09D06879401C6871009870
:1098C0000460266000941BF1010BEDE7280000F016
:1098D00005F8002000E02800BDE8F28F2DE9F84FE0
:1098E00005002E0077792900B8465FFA88F8B8F1AC
:1098F00001080020404502D20968401CFAE7D1F86F
:109900000090AA465FF0000B3800C0B283450AD22F
:10991000DAF8000004005146484600F07EF9A246FD
:109920001BF1010BF0E7BDE8F18F38B5040025000D
:109930000121281DFFF7C4F931BD7CB504002500C5
:109940000121281DFFF7CAF900906E4630780028E3
:1099500002D12000FFF7C2FF73BD2DE9FF4F87B092
:1099600007980190DDF81C800198C688019840791D
:109970004643361F0198C08800900A98001D009940
:10998000B0FBF1F50A99091D0098B1FBF0F70098BA
:1099900000FB1717099801680A9841188E4202D2F5
:1099A0000A9C341B01E00998046809980460002DA2
:1099B00003D0D8F800806D1EF9E75FF00009DDF8EC
:1099C00000A0BAEB070A544501D2A246FFE7002CDB
:1099D00031D008984844039008EB0700001D02901E
:1099E0009DF8500000280BD0CDF814A002980490E8
:1099F000DDF80CB0059A0499584600F027F90AE002
:109A0000CDF814A003980490DDF808B0059A0499E5
:109A1000584600F01BF900200700D8F80080B4EB8E
:109A20000A041AEB09090098844201D2A246CEE743
:109A3000DDF800A0CBE70BB0BDE8F08FFEB5040069
:109A40000D0016001F000196002000903B0001AAA7
:109A500029002000FFF781FFF7BDFEB504000D00CF
:109A600016001F000196012000903B0001AA29006A
:109A70002000FFF772FFF7BD00218268916000218E
:109A80008268116100218268516100218268D16081
:109A90000021826851600021826811607047FEE7F2
:109AA000EFF3108072B6704762B6704738B50500A4
:109AB000FFF7F6FF040020488068002816D1012037
:109AC0001D4988601D4801681D4801401A48016011
:109AD0001B481A4908601B480068174948605FF036
:109AE000FF30184908600020287001E0012028702C
:109AF000002C01D1FFF7D8FF002032BD38B505009A
:109B00000D488068002815D02800C0B2002811D167
:109B1000FFF7C6FF0400084800680B4908600648C4
:109B200040680A490860002003498860002C01D180
:109B3000FFF7BAFF002032BDC807032080E100E034
:109B4000FC06FFBD84E100E000E100E004E100E08C
:109B500010B504002000FFF7A9FF10BD10B50400E8
:109B60002000C0B2FFF7CAFF10BDC268C9B2008AA8
:109B7000414302EB01007047C268891A008AB1FBB9
:109B8000F0F0C0B2704710B40100002901D10E20DE
:109B900015E088684A68821A48680B6818601000E7
:109BA000421EC0B2002806D008680068431C0C683A
:109BB00023600270F3E700200B681871002010BCCE
:109BC000704738B50400002500208DF80000684675
:109BD000FFF7BEFF606821680968884217D22068D5
:109BE0000068401E21680860206800680178200035
:109BF000FFF7BBFF0500A16820680068081A21680C
:109C000009790200D2B2914201D2216808719DF80F
:109C10000000FFF7A3FF280032BDF8B504000D00D7
:109C20002E0000208DF800006846FFF791FF2068A5
:109C30000768781C2168086031002000FFF79CFF4E
:109C400038709DF80000FFF789FFF1BD62B38B0704
:109C500008D0521E11F8013B00F8013B00F02480AF
:109C60008B07F6D1830740F0208000BF103A07D35E
:109C700030B4B1E83810103AA0E83810F9D230BC4E
:109C8000530724BFB1E80810A0E8081044BF51F8FA
:109C9000043B40F8043BD20724BF31F8022B20F8E4
:109CA000022B44BF0B7803707047121F17D35B0061
:109CB00009D151F8043B20F8023B1B0C121F20F87D
:109CC000023BF6D20BE051F8043B00F8013B1B0AC3
:109CD00020F8023B1B0C121F00F8013BF3D238BFE7
:109CE000121D521E24BF11F8013B00F8013BF8D8A9
:109CF0007047FEE710B50400DFF8D80801782000AF
:109D000080B200F053FE10BD10B50400DFF8C808A3
:109D10000178200080B200F049FE10BD10B50400AB
:109D2000DFF8B8080178200080B200F03FFE10BDD7
:109D300010B50400DFF8A8080178200080B200F018
:109D400035FE10BD38B50500688800F0D0FFA8804A
:109D50000024002C07D12800DFF8881851F82410BF
:109D60008847641CF5E731BD30B585B004000D00AF
:109D70006846DFF874181422FFF778FFADF8024048
:109D80008DF808506846FFF7DDFF05B030BD30B5EF
:109D900085B004000D006846DFF850181422FFF764
:109DA00065FFADF8024002956846FFF7CBFF05B0AE
:109DB00030BD18B585B004006846DFF834181422A9
:109DC000FFF754FFADF802406846FFF7BBFF06B04F
:109DD00010BDF0B585B004000D0016001F006846E8
:109DE000DFF810181422FFF741FFADF802408DF89C
:109DF0000850ADF80A608DF80C700022DFF8D40727
:109E00000178200080B200F0EDFD6846FFF79AFF70
:109E100005B0F0BD2DE9F84306000F00904600257F
:109E2000300080B2FFF77AFF002802D05FF001090E
:109E300001E05FF00209072116F5807080B201F0A1
:109E4000E3FB0400002C19D0052C17D0200001F0F2
:109E500015FC33009BB20200DFF89C17DFF89C076B
:109E6000DFF89C57401BC008000450F00100FFF7CA
:109E700091FA2100300080B2FFF789FF4346DBB240
:109E80003A0092B24946C9B2300080B2FFF7A1FF52
:109E9000BDE8F18370B504000D0016003300DBB29D
:109EA0002A0092B20021200080B2FFF792FF70BD1D
:109EB00070B504000D001600200080B2FFF71AFFF5
:109EC000002816D0200080B2FFF71EFF002808D01F
:109ED0003200D2B2290089B2200080B2FFF79AFF87
:109EE00007E03200D2B2290089B2200080B2FFF729
:109EF000D1FF70BD70B504000D0016002A00D2B26B
:109F0000DFF8D0060178200080B200F06BFD280059
:109F1000C0B2002823D03000C0B2002801D00122F6
:109F200000E00022D2B2DFF8B0060178200080B253
:109F300000F058FD3000C0B2012801D1012200E03C
:109F40000022D2B2DFF894060178200080B200F03F
:109F500049FD3100C9B2200080B2FFF705FF70BD96
:109F60002DE9FF410700002417F10C0000F022FF4B
:109F7000804640464FF6FF7180B2884204D138884F
:109F800000F0B5FE804604E0414689B2388800F012
:109F900076FF002201213888FFF7ACFF404680B2EF
:109FA0004FF6FF7188421ED001AA0721404680B2B9
:109FB00001F077FA0500002D15D1029810F1340652
:109FC000B87D10F0010000280DD0307C10F00100A9
:109FD000002807D117F10C0116F1120000F0C2FEA3
:109FE000002800D03400002300222100388886DFBA
:109FF0000600082E0DD1DFF80C16DFF80006DFF89A
:10A000000026801AC008000450F00200FFF7ACF9E7
:10A0100028E0002E19D0300001F030FB020040464D
:10A0200080B200903B88DFF8E015DFF8D005DFF85C
:10A03000D055401BC008000450F00100FFF7B8F9EC
:10A0400031003888FFF7A3FE0CE0B87D10F0010066
:10A05000002807D0002C05D1002241F206013888E3
:10A06000FFF718FFBDE8FF81F0B585B004001425A7
:10A0700000266F46320029003800FEF72FFF04202B
:10A080008DF80000ADF802406846FFF75BFE05B0B2
:10A09000F0BD38B5040020793D2802D141F23D05DC
:10A0A00001E04FF488550022290089B22088FFF78B
:10A0B000FFFE31BD30B585B004000D006846DFF805
:10A0C0004C151422FFF7D2FDADF802400295684608
:10A0D000FFF738FE05B030BD10B50400208800F051
:10A0E000FAFB01280CD1207910F00100002801D0E2
:10A0F000012200E00222D2B201212088FFF7FAFEFD
:10A10000211D2088FFF7D6FF10BD30B585B00400B3
:10A110000D0002208DF800002088ADF80200607963
:10A12000C0F38000C0B2002801D0012000E002206E
:10A130008DF808008DF809506846FFF703FE05B05A
:10A1400030BD2DE9FE43060037885FF0000800228D
:10A15000DFF880040178380080B200F043FC7079A9
:10A16000C0F38000C0B2002804D100213000FFF706
:10A17000CCFFC7E001AB0122072117F5807080B248
:10A1800001F0A2F90500002D1CD0280001F076FA9C
:10A1900002003B009BB2DFF87814DFF86004DFF8C0
:10A1A0006044001BC008000450F00100FFF7F2F803
:10A1B0002900380080B2FFF7EAFD00213000FFF7E8
:10A1C000A4FF9FE0380080B200F091FD8146484630
:10A1D0004FF6FF7180B2884226D14FF6FF71029888
:10A1E00000F061FD8146484680B24FF6FF7188421B
:10A1F0001AD0494689B2380080B200F040FE3800DB
:10A2000080B2FFF795FD00280ED1380080B2FFF72D
:10A210002BFF380080B2FFF78BFD002804D100210E
:10A220003000FFF772FF6DE048464FF6FF7180B2D5
:10A23000884227D101F06CFD814648464FF6FF71F8
:10A2400080B2884216D1DFF8CC13DFF8B003DFF814
:10A25000B023801AC008000450F00100FFF784F812
:10A260000421380080B2FFF792FD00213000FFF793
:10A270004CFF47E0494689B2380080B200F0FFFD4C
:10A28000012080464A4692B2072117F5807080B2BD
:10A2900001F0CDF90400002C04D101213000FFF7BA
:10A2A00034FF2FE0862C08D1380080B2FFF781FD03
:10A2B00001213000FFF729FF24E0200001F0DEF942
:10A2C000494689B200913B009BB20200DFF8481377
:10A2D000CA48CB4D401BC008000450F00100FFF7F6
:10A2E00067F82100380080B2FFF751FD00213000EF
:10A2F000FFF70BFF4046C0B2002803D0484680B2AB
:10A3000000F0CBFDBDE8F78310B50400627912F0D0
:10A310000302217989B22088FFF7CAFD10BD10B56C
:10A3200004002079002803D12000FFF70AFF02E093
:10A330002000FFF7E9FF10BD18B585B004002088A4
:10A34000FFF7E2FC002820D1208800F0F2FA002874
:10A3500006D1012241F206012088FFF79BFD14E09F
:10A3600000229C480178208800F03CFB02208DF8F8
:10A3700000002088ADF8020000208DF808000020C1
:10A380008DF809006846FFF7DDFC06B010BD10B57A
:10A3900004002078182802D100F0FBFA207010BDCC
:10A3A00080B59E48007890F00100C0B28948FFF760
:10A3B000EEFF8948FFF7EBFF8848FFF7E8FF884882
:10A3C000FFF7E5FF8348007818280BD08248007813
:10A3D000182807D081480078182803D080480078D2
:10A3E00018280BD18E498548854A801AC008000478
:10A3F00050F00100FEF7B8FF032003E00120874979
:10A400000870002002BD2DE9FE4F070088469146E6
:10A410001D00002D0CD1834A83497848784BC01A1F
:10A42000C008000450F00100FEF7A8FF032056E02A
:10A430006B460122072117F5807080B201F044F8C5
:10A440000400112C4AD0002C12D0200001F016F983
:10A450003B009BB2020075496848694E801BC008EA
:10A46000000450F00100FEF795FF0320040035E0E2
:10A4700050265FF0000ADDF804B05246310058461D
:10A48000FEF72CFD019880F8008001983430286098
:10A49000C5F80C900198183028610198401C68613B
:10A4A0006348E861019810F11101380080B200F0B2
:10A4B00034FC0400002C11D0200001F0DFF83B0038
:10A4C0009BB202005B494D484D4E801BC008000402
:10A4D00050F00200FEF75EFF082000E02000BDE81B
:10A4E000FE8F2DE9F04F89B006000C0017003000F8
:10A4F00080B200F0F0F9804600255FF000092020CE
:10A5000000905FF0000A0DF1040B52460099584686
:10A51000FEF7E4FC4046C0B2012806D100223048D4
:10A520000178300080B200F05DFA4046C0B20028E9
:10A5300002D143F202004AE0002C02D1852081467C
:10A5400033E0300080B200F0D2FB4FF6FF7188425A
:10A5500015D04046C0B2012811D1300080B2FFF7BB
:10A56000E7FB00280BD1300080B2FFF77DFD300003
:10A5700080B2FFF7DDFB002801D1852081462078DD
:10A5800010F00100002803D10497294808900CE03E
:10A590004846C0B2852808D001AB3A004146C9B24E
:10A5A000300080B2FFF72FFF0500002D0ED10020F4
:10A5B0004146C9B2012901D1220000E0002201ABCD
:10A5C0004946C9B2300080B27FDF0500280009B0DB
:10A5D000BDE8F08FBB240220BC240220BD24022051
:10A5E000BE240220309903001C9303003093030023
:10A5F00044930300589303006477030094710300AD
:10A60000D4700300A4750300147603006C93030058
:10A61000C0790300BC8603007C7B03002309032070
:10A620008476030024950300F08603003C78030041
:10A630000C050320747E03000200100080B27EDF50
:10A64000042801D111231800704770B505000C00D3
:10A650000026002C05D02100280080B2FFF7ECFF77
:10A660000600300070BDF8B504000D001600200093
:10A6700080B200F030F907003800C0B2012805D1DF
:10A680002900200080B2FFF7E0FF01E043F2020062
:10A69000F2BD10B504002088112808D013280AD074
:10A6A00014280CD019280ED01A2810D012E0201D22
:10A6B000FFF7EFFC0EE0201DFFF70EFD0AE0201D66
:10A6C000FFF74EFC06E0201DFFF729FE02E0201DEB
:10A6D000FFF732FE10BDFEE733B58BB0040000205B
:10A6E00000900C98002812D00025142D0FD22900BC
:10A6F0000CA801F069FB002807D06846009900EB20
:10A70000410085800098401C00906D1CEDE7200002
:10A7100069462C22FFF7AAFA0DB030BD10B504002F
:10A72000200080B2142801DB00200CE0210089B257
:10A73000DFF8580301F018FB210089B2DFF850035D
:10A7400001F012FB012010BD38B5040000251E2DBC
:10A750000AD2210089B2DFF8300300EB8500001D2A
:10A7600001F023FB6D1CF2E731BD10B504002100A0
:10A7700089B2DFF8180301F018FB10BD10B58CB0DA
:10A78000DFF804038068C0430090DFF8FC024168F2
:10A790006846FEF779FA009901A8FFF79DFF0024AB
:10A7A0000198844207D201A800EB44008088FFF79B
:10A7B000CBFF641CF4E70CB010BD10B50400210001
:10A7C000C9B2DFF8C40201F0FFFA10BD70B5040091
:10A7D0000D0016003000C0B2002805D0290089B253
:10A7E000200001F0C1FA04E0290089B2200001F044
:10A7F000DCFA70BDF8B504000D00A688208810288A
:10A8000006D0112819D0192847D01A281AD053E099
:10A81000FFF7B4FF300080B2FFF780FF002803D1BC
:10A82000042001F009FB07E0E07B022804D131009D
:10A8300089B2984801F098FA3EE0300080B2FFF704
:10A8400094FF39E0277AFFB23F093800C0B20428EC
:10A8500001DB012200E00022D2B2310089B28E4831
:10A86000FFF7B4FF3800C0B2032801DB012200E08B
:10A870000022D2B2310089B28848FFF7A7FF380022
:10A88000C0B2022801DB012200E00022D2B2310076
:10A8900089B28348FFF79AFF0EE0207A00280BD197
:10A8A000677AFFB2FF0817F001073A00D2B2310011
:10A8B00089B27948FFF78AFFF1BD10B50400200086
:10A8C00080B2142801DB002004E0210089B2704826
:10A8D00001F07AFA10BD38B504000025200080B2DE
:10A8E000FFF7EBFF00280AD0210089B2694801F088
:10A8F0006BFAC0B2002801D0022500E00125280033
:10A90000C0B232BD38B504000025200080B2FFF788
:10A91000D4FF00280AD0210089B25C4801F054FA23
:10A92000C0B2002801D0022500E001252800C0B2F5
:10A9300032BD10B50400200080B2FFF7BEFF002832
:10A9400005D0210089B2564801F03EFA00E000200F
:10A9500010BD10B50400200080B2FFF7AEFF002844
:10A9600005D0210089B24D4801F02EFA00E0002008
:10A9700010BD10B50400200080B2FFF79EFF002834
:10A9800005D0210089B2444801F01EFA00E0002001
:10A9900010BD80B518213C4801F020FA01001829AB
:10A9A00001D1182001E00800C0B202BD38B5040092
:10A9B0000D002800C0B2FFF700FF002810D02000D3
:10A9C00080B2FFF77AFF00280AD0210089B22E4812
:10A9D0002A00D2B200EB82001C3001F0F5F900E051
:10A9E000002032BD70B504000D0016002800C0B272
:10A9F000FFF7E3FE002811D0200080B2FFF75DFFD3
:10AA000000280BD03200D2B2210089B21E482B00A0
:10AA1000DBB200EB83001C30FFF7D8FE70BDF1B550
:10AA20000C0015002000002801D1002014E00026B1
:10AA3000009800280FD00027142F0CD23900684648
:10AA400001F0C2F9002804D02900380080B2A047E4
:10AA5000761C7F1CF0E73000F2BD70B504000D00DD
:10AA600016002000C0B2FFF7A8FE002801D1002088
:10AA700009E03200290004482300DBB200EB830028
:10AA8000C069FFF7CCFF70BD4C03032054030320C3
:10AA900050030320580303206403032060030320B2
:10AAA0005C03032038B504000025022D07D22000E6
:10AAB000DFF81C1451F8251088476D1CF5E731BDEF
:10AAC0000100002901D0012000E00020C0B20022D6
:10AAD000102A06D2885C002801D0012002E0521C16
:10AAE000F6E70020704738B505000C00002D01D0B6
:10AAF000002C01D1002014E02878C0B24008217851
:10AB0000C9B2B0EB510F01D000200AE00622611C4F
:10AB1000681C01F0A1F9002801D1012000E000200B
:10AB2000C0B232BD30B593B004002088102863D184
:10AB300008A8211D2C22FFF799F84FF6FF759DF804
:10AB40002400C0B24008C0B203282FD001F010F892
:10AB50009DF82400C0B24008002802D0022813D07B
:10AB600024D201AA6946072001F00CF800280AD077
:10AB7000029810F1110109A8FFF7B5FF0028F0D0E5
:10AB8000BDF80000050011E001AA6946072000F0A9
:10AB9000F9FF002809D00298411C09A800F0D0F95B
:10ABA0000028F1D0BDF800000500FFE7DFF824130E
:10ABB000BDF820200A2042438D52DFF81813BDF85B
:10ABC00020200A20424301EB0200801C09A9072231
:10ABD000FFF73CF8280080B24FF6FF7188420BD097
:10ABE000BDF82000ADF80E00ADF8105000208DF833
:10ABF0000C0003A8FFF756FF13B030BD2DE9F0415C
:10AC000004000D00002C01D0012000E00020C0B2A3
:10AC1000002D01D0012000E00020C0B214F1110786
:10AC200015F111081022691C601C01F015F90028AB
:10AC30000BD1601CFFF744FF002806D0681CFFF70B
:10AC40003FFF002801D0012600E0002641463800E1
:10AC5000FFF749FF3978C9B24908022912D039787B
:10AC6000C9B2490803290DD098F80010C9B24908A3
:10AC7000022907D098F80010C9B24908032901D069
:10AC8000012100E00021C0B2002803D00800C0B2BA
:10AC9000002803D191F001010E4000E001263000B0
:10ACA000C0B2BDE8F0813EB504000D00002C01D01B
:10ACB000012000E00020C0B200F05AFF01AA69465E
:10ACC000072000F05FFF00280ED0BDF8000029002B
:10ACD00089B28842F2D002992000FFF78FFF002846
:10ACE000ECD0BDF8000001E04FF6FF703EBD10B59E
:10ACF0000400200080B2142805DA200080B2FFF79B
:10AD0000DCFD002802D14FF6FF7005E0DFF8C4112A
:10AD1000A4B20A204443085B10BD38B505000C00FE
:10AD2000002C01D0012000E00020C0B2280080B239
:10AD3000142805DA280080B2FFF7BFFD002802D1F1
:10AD400043F202000DE02000DFF888212B009BB2C7
:10AD50000A214B4302EB0301891C0722FEF776FF11
:10AD6000002032BD38B505000C00002D01D00120B7
:10AD700000E00020C0B2002C01D0012000E0002043
:10AD8000C0B2280000F067F8002801D1002010E0D0
:10AD900028882188884201D000200AE00822A11CCE
:10ADA000A81C01F059F8002801D1012000E0002082
:10ADB000C0B232BD1FB50400002C01D0012000E05C
:10ADC0000020C0B200F0D4FE01AA6946072000F0BE
:10ADD000D9FE002812D0029810F146012000FFF79A
:10ADE000C1FF002807D1029810F12A012000FFF7C7
:10ADF000B9FF0028E8D0BDF8000001E04FF6FF7071
:10AE000004B010BD38B5040020004FF6FF7180B2C9
:10AE1000884202D14FF6FF701CE00025280080B266
:10AE2000142815DADFF8AC102A0092B20A20424347
:10AE3000885A210089B2884208D1280080B2FFF7E1
:10AE40003CFD002802D0280080B203E06D1CE5E73D
:10AE50004FF6FF7032BD01000888002801D00120A4
:10AE60000CE00022082A08D201EB020080780028BA
:10AE700001D0012002E0521CF4E70020704710B41A
:10AE8000020092B2142A06DADFF848300400A4B2B5
:10AE90000A225443195310BC704770B504002000B7
:10AEA00080B2FFF7AFFF0500200080B200F0A8FAE3
:10AEB00000280CD1290089B2142908DA4FF6FF7254
:10AEC000DFF810302E00B6B20A214E439A5370BDFF
:10AED000589703006CFF02202DE9F8438CB0040062
:10AEE0000D0016000020102806D241422144C97BE3
:10AEF0006A461154401CF6E70D275FF000080DF17B
:10AF00001009424639004846FDF7E8FF00200328B3
:10AF100006D2295C6A4643421A44D177401CF6E7C0
:10AF2000684646DF0020032807D2694642421144A2
:10AF300091F82F103154401CF5E70DB0BDE8F083B7
:10AF40002DE9FF4704000D002078C0B24008C0B2D0
:10AF5000022801D0002022E00326671C0DF108081A
:10AF6000320039004046FEF771FE5FF0030814F12D
:10AF70000409EA46424649465046FEF767FE01AAE2
:10AF800069462800FFF7A8FF032201A902A800F0E4
:10AF900063FF002801D1012000E00020C0B204B00E
:10AFA000BDE8F0874FF6FF710180FF218170FF211E
:10AFB0004172817A11F0FD018172817A11F0FE01F6
:10AFC00081720021017200214160704710B40200BB
:10AFD0000B68042B13D2DFF8EC050C2404FB03F4FC
:10AFE000005B1400A4B2A04207D10B60DFF8D44587
:10AFF0000C20434304EB030002E05B1CE9E7002064
:10B0000010BC70477CB505000E000020009069461A
:10B01000280080B2FFF7DAFF0400002C15D0A078DA
:10B020003100C9B2884206D1A07A10F0030F02D1D4
:10B030006068002809D00098401C009069462800EC
:10B0400080B2FFF7C3FF0400E7E7200076BD0100F0
:10B050000022042A11DADFF86C050C2303FB02F34B
:10B0600018444068884206D1DFF858350C20424326
:10B0700003EB020002E0521CEBE70020704780B5B2
:10B08000FF214FF6FF70FFF7BDFF02BD38B504008A
:10B090000025207A854208D2617A6918C9B2DFF8A2
:10B0A000280500F0B3FF6D1CF3E72000FFF77AFFDF
:10B0B00031BD70B504000D001600002C09D0FFF75B
:10B0C000DEFF20602068002803D02068058020680B
:10B0D000867070BD38B504000025042D07D220000D
:10B0E000DFF8E81451F8251088476D1CF5E731BDED
:10B0F00010B50024042C09D2DFF8C8040C2101FB90
:10B1000004F10844FFF74EFF641CF3E710BD30B4B0
:10B11000502413FB04F4817042602500ADB2ED1C95
:10B12000AD10058030BC7047F8B504000D00160066
:10B130001F003B009BB232002900C9B22000FFF77C
:10B14000E6FFF1BD8178012909D006290AD0072937
:10B1500002D0082909D00EE0142101800BE0012162
:10B16000018008E00121018005E0416889880931FA
:10B1700089080180FFE77047FEB506000025DFF86B
:10B180005004D0E90023CDE90023B0788DF8020007
:10B19000717ADFF8340400F018FF0400002C0FD19E
:10B1A000727ADFF83014DFF83004DFF83034C01A78
:10B1B000C008000450F00100FEF7E0F8032053E05F
:10B1C000337A2200B1786846FFF7AEFF6846FFF792
:10B1D000B9FF321D6946308800F018FD07003800BD
:10B1E000002806D0072829D011280BD0862818D08F
:10B1F00025E0B07A10F0FD00B072B07A10F0FE00D9
:10B20000B07230E0B07A50F00200B072B07A10F054
:10B21000FE00B0720120DFF8C8130870002007009C
:10B2200021E0B07A10F0FD00B072B07A50F0010069
:10B23000B0720120DFF8A813087014E013E03800A2
:10B2400000F01CFA02003388DFF89813DFF8880357
:10B25000DFF88853401BC008000450F00100FEF7DF
:10B2600099F8032007003800FEBD78B585B00600C8
:10B270003000FFF781FF0400002C27D04FF6FF704D
:10B28000ADF802003088ADF80400862C03D106200A
:10B290008DF8000015E007208DF8000002942000D2
:10B2A00000F0ECF902003388DFF83C13DFF82803E4
:10B2B000DFF82853401BC008000450F00100FEF7DF
:10B2C00069F86846FFF706FF002000E0012006B09D
:10B2D00070BD38B50400C248007800282BD000208B
:10B2E000BF4908700025042D25D2B6480C2101FB6A
:10B2F00005F10844807A10F0030F1AD00120B849F4
:10B300000870B0480C2101FB05F10844807AC0F3B5
:10B310004000C0B2002803D12000C0B2002808D0ED
:10B32000A8480C2101FB05F10844FFF79EFF002807
:10B3300001D06D1CD7E731BDF8B505000126002707
:10B34000E868FFF784FE04002878082804D009285C
:10B350000BD013281AD01CE0687A002804D1002CE6
:10B3600002D02000FFF792FE13E0687A00280CD18B
:10B37000002C0AD000206060A07A50F00200A07279
:10B380000120974908700020060002E00120070014
:10B39000FFE73000C0B2002802D02800FFF79AFE75
:10B3A0003800C0B2FFF795FFF1BD1CB58F4800789B
:10B3B00090F00100C0B2FFF79BFE502001900420E6
:10B3C00000908B4B4FF4A0728A497F4800F09CFD9F
:10B3D0000400002C0FD0200000F050F90200864934
:10B3E0007D487E4BC01AC008000450F00100FDF7F4
:10B3F000C5FF032003E001207C490870002016BD32
:10B40000FEB507000020019001A9380080B2FFF7C7
:10B41000DDFD0500002D27D0A978380080B200F0AE
:10B42000F3F80400002C15D0052C13D0200000F0F8
:10B4300025F90200A87800903B009BB26F4966484E
:10B44000664E801BC008000450F00100FDF7B0FFFD
:10B45000032025E00198401C019001A9380080B22A
:10B46000FFF7B4FD0500D5E7380080B200F056FCC8
:10B470000600002E01D0072E01D1300010E0300070
:10B4800000F0FCF803003A0092B25D495248534C78
:10B49000001BC008000450F00100FDF77BFF0320F3
:10B4A000FEBD70B505000E001400002C01D0012077
:10B4B00000E00020C0B2002322003100C9B2280001
:10B4C00080B200F0F8FA70BD2DE9F8430700884615
:10B4D00014001D00002D01D10E2071E04046C0B2C5
:10B4E000072805D04046C0B2082801D0072067E0F1
:10B4F000002C01D0052C01D3072061E05FF000098A
:10B500004146C9B2380080B2FFF77CFD0090009838
:10B5100000280BD14246D2B2390089B26846FFF703
:10B52000C8FD0098002807D1112049E00098007A52
:10B53000A04201D00F2043E00098407AFF2810D1AC
:10B540002100214800F0FBFC009948720098407AE5
:10B55000FF2804D10098FFF725FD112030E00120DD
:10B560008146009804720098417A174800F02DFD3A
:10B570000600002E0DD10098427A22491648174B3A
:10B58000C01AC008000450F00100FDF7F7FE0320C8
:10B5900016E023009BB232004146C9B22800FFF7F3
:10B5A000B6FD4846C0B2002809D04046C0B20828BF
:10B5B00005D1288880B28000801F696888800020BB
:10B5C000BDE8F28388050320B807032084940300B4
:10B5D00048980300808303007C710300D47003004B
:10B5E0001D09032084870300007903001C09032040
:10B5F000DC0803202CFE0220E48D0300247B0300E2
:10B60000287D03004C74030070B505000E00310066
:10B61000C9B2280080B2FFF7F5FC0400002C01D16C
:10B62000052003E02000FFF731FD002070BDF8B5D4
:10B6300005000E0017003000C0B2072805D030000A
:10B64000C0B2082801D0072017E0380080B200F00F
:10B6500076FB002801D107200FE03100C9B2280095
:10B6600080B2FFF7CFFC0400002C01D1052004E0DC
:10B670002780A6702000FFF77FFDF2BD10B5040003
:10B68000200000F005F8002801D10F48FFE710BDA9
:10B6900010B401000D4A0E4B9A4212D2981AC010F3
:10B6A000022490FBF4F002EBC0000468A14201D236
:10B6B0000300F1E78C4202D208300200ECE7406858
:10B6C00000E0002010BC70477C920300AC6F0300C8
:10B6D000D470030038B505004FF6FF706880002471
:10B6E000002C07D12800DFF8F81551F824108847FE
:10B6F000641CF5E731BDB0F5804080B2704710F5AD
:10B70000804080B27047C0B2B0F5804080B27047D0
:10B71000C0B27047010089B2B1F5404F06DB4FF669
:10B72000FF7180B2884201D0012000E00020C0B249
:10B730007047010089B2B1F5404F06DB4FF6FF714B
:10B7400080B2884201D0012000E00020C0B27047E2
:10B750000100C9B2072916D00100C9B2012912D0CF
:10B760000100C9B208290ED00100C9B205290AD0CA
:10B770000100C9B2062906D00100C9B2092902D0C8
:10B78000C0B2042801D1012000E00020C0B27047FF
:10B7900030B585B004000D006846DFF84815142266
:10B7A000FEF764FAADF8044002956846FFF792FF91
:10B7B00005B030BD2DE9F84185B00020DFF828152F
:10B7C000087008255FF000086F46424629003800DF
:10B7D000FDF784FB4FF6FF7000F011FD0700380005
:10B7E00080B24FF6FF71884216D0380080B2FFF762
:10B7F00082FF6A4602A980B2FCF781FF48F2096124
:10B80000884209D1380080B200F08DFC380080B247
:10B8100000F0F5FC0700E2E7380080B24FF6FF7158
:10B82000884229D0380080B2FFF765FF060030005B
:10B8300080B2FCF701FF040048F20760844204D1A3
:10B840000120DFF8A414087016E0002C14D03B008F
:10B850009BB22200DFF89414DFF89404DFF89454CC
:10B86000401BC008000450F00100FDF793FD2100CB
:10B87000380080B2FFF78CFF06B0BDE8F0812DE9FB
:10B88000FC4705000E001400280080B2B0F5807F50
:10B8900001DA012000E00020C0B23000C0B2FFF7A2
:10B8A00057FF002C01D0012000E00020C0B2082783
:10B8B0005FF00008E946424639004846FDF70EFBB6
:10B8C000280080B2FFF717FF81463000C0B2FFF7B3
:10B8D0001AFF82466B462200514689B2484680B222
:10B8E000FCF7F8FE0100002901D0052000E000204F
:10B8F000BDE8F68778B587B0082500266C4632008B
:10B9000029002000FDF7EAFA0720FFF7FCFE0400FB
:10B910006A4604A9200080B2FCF7E7FE002810D197
:10B9200002A904A8FCF705FE02988088FFF7E7FE4D
:10B93000050004A8FCF728FE280080B200F0D3FB25
:10B94000E6E708B070BD18B585B00400684614215C
:10B95000FDF7F8FAA089FFF7D2FEADF804002078D1
:10B96000401E022804D9C01E31D0401E4FD062E0D4
:10B97000A089FFF7CFFE002804D1E089FFF7D9FEA8
:10B98000002823D0E089FFF7C3FE8DF80800207857
:10B99000032801D1012000E000208DF80900A068F3
:10B9A00003906068002809D108208DF800009DF8F8
:10B9B000100050F001008DF8100004E009208DF80F
:10B9C0000000606804906846FFF784FE33E0A089B9
:10B9D000FFF7A0FE002819D0E089002816D1606882
:10B9E000002807D10A208DF80000BDF8040000F0FF
:10B9F0009AFB04E00B208DF80000606802900120A3
:10BA0000DFF8E41208706846FFF764FE13E0606830
:10BA1000002803D113208DF8000004E014208DF8D5
:10BA20000000606802904FF6FF70ADF804006846B1
:10BA3000FFF750FEFFE7DFF8B0020078002801D0E2
:10BA4000FFF7B8FE06B010BD38B5DFF8AC020078DD
:10BA500090F00100C0B2DFF8A402FCF7A5FC0500DD
:10BA6000002D0DD02A00DFF89812A148A14BC01A72
:10BA7000C008000450F00100FDF780FC032019E02D
:10BA8000FCF7EAFC0400002C0CD022009D499848E9
:10BA9000984BC01AC008000450F00100FDF76EFC7E
:10BAA000862007E000F0D9FAFFF724FF0120924931
:10BAB0000870002032BD2DE9F04F87B080468946DE
:10BAC00014001D00002C01D0012000E00020C0B2B5
:10BAD000404680B2B0F5807F01DB072045E0484654
:10BAE000C0B2FFF735FE002801D107203DE004AACF
:10BAF0004946C9B2404680B2FFF7C1FE0700002F99
:10BB000001D0052031E0694604A8FCF712FD0600CB
:10BB1000002E01D0052028E084F80290009840888B
:10BB20002080002D02D1019860601AE020888000FA
:10BB3000039028682188B0EB810F01D22F6801E0C3
:10BB4000208887000297DDF804A0D4F804B0029A98
:10BB500051465846FEF77AF80398874201D20C20E6
:10BB600003E004A8FCF710FD002007B0BDE8F08F4B
:10BB700070B508240025644E2A0021003000FDF72E
:10BB8000ADF970BD2DE9F84185B007000C00150036
:10BB9000002C01D0012000E00020C0B2002D01D017
:10BBA000012000E00020C0B23800C0B2FFF7D0FD95
:10BBB000002801D1012026E03800C0B2FFF7A3FD24
:10BBC0008046514A02A9404680B2FCF78EFD00280B
:10BBD00001D0002017E0694602A8FCF7AAFC060085
:10BBE000002E01D000200EE0AF7000984088288021
:10BBF0000198686000988088FFF781FD208002A886
:10BC0000FCF7C2FC012006B0BDE8F0812DE9F0414F
:10BC100086B006000C001500002C01D0012000E0C9
:10BC20000020C0B2300080B2B0F5807F01DB072079
:10BC300053E0A078FFF78CFD002801D107204CE0ED
:10BC4000300080B2FFF757FDADF80000A078FFF795
:10BC50005AFDADF80200606801902088029003AAA6
:10BC6000A178300080B2FFF70AFE0700052F05D14A
:10BC7000694603A8FCF7C4FC804604E0694603A8B3
:10BC8000FCF7C8FC8046404600280AD048F2026112
:10BC9000401A12D0001F0ED0401E0AD0801F08D0BC
:10BCA0000DE0002D03D0290003A8FCF732FD002091
:10BCB00013E0112011E086200FE010200DE033008A
:10BCC0009BB2424611490A480A4FC01BC0080004F3
:10BCD00050F00100FDF75EFB032006B0BDE8F081E7
:10BCE0002C990300A49203001B090320F47F030096
:10BCF00074710300D47003001A09032047B90200CD
:10BD0000F88103004083030080080320CC7A0300FD
:10BD100080B54FF6FF7000F0E6F902BD10B50400E3
:10BD2000200080B2B0F5807F01DB072006E0200014
:10BD300080B200F0E0F9FFF73DFD002010BD10B526
:10BD40000400200080B200F0FBF910BD10B5040023
:10BD5000200080B200F032FA10BD10B504002000BF
:10BD600080B200F04CFA10BD38B504000D0001217E
:10BD700015F01F0081402800400904EB8000FCF70B
:10BD800067FF31BD38B504000D00012115F01F001B
:10BD900081402800400904EB8000FCF74BFF15F0C0
:10BDA0001F05E84010F0010032BD38B504000D0059
:10BDB000012115F01F008140C9432800400904EB10
:10BDC0008000FCF761FF31BD0A00520950F82200E3
:10BDD00011F01F01C84010F0010070472DE9F0413B
:10BDE00004000D000026681E4009401C86421FD238
:10BDF00054F82600C04390FAA0F0B0FA80F7202F44
:10BE000014D217EB4618A84510D241462000FFF780
:10BE1000B9FF002801D140460BE054F82600C0438A
:10BE200090FAA0F0B0FA80F00700E8E7761CDAE7B5
:10BE30002800BDE8F081FEE71FB504006846002138
:10BE40000022002380E80E0002946A46002144F29A
:10BE5000010000F0E1F91FBD0300002013F0030F03
:10BE600009D0521E22BF13F8010B11F801CBB0EB21
:10BE70000C00F3D0704711F0030F14D1121F22BF32
:10BE800053F8040B51F804CB6045F7D0121D0AD2C9
:10BE900000BA9CFA8CFCB0EB0C0038BF6FF00000CD
:10BEA00088BF01207047521E22BF13F8010B11F802
:10BEB00001CBB0EB0C00F6D0521C08BF1046704707
:10BEC00038B504000D0029002000FFF75BFF0028B3
:10BED00001D1012000E00020BFF35F8FC0B232BD6E
:10BEE00038B504000D00BFF35F8F29002000FFF775
:10BEF0005CFF31BD38B504000D00BFF35F8F290032
:10BF00002000FFF761FF32BD70B40600039D049C62
:10BF1000002E11D000290FD0002B0DD004FB05F00E
:10BF2000824209D3002D07D0002C05D03160736008
:10BF3000B560F460002000E0072070BC70472DE978
:10BF4000F04104000D00002C05D02068002802D02C
:10BF50006068002801D1FF2035E0FF27002630006F
:10BF6000C0B2A16888422DD23100C9B26068FFF723
:10BF7000A7FF00280FD03800C0B2FF2800D137003B
:10BF80003100C9B23800C0B2091A491CA94217D100
:10BF90003800C0B217E03800C0B2FF2810D0B84651
:10BFA00040463100C0B2C9B2884207D24146C9B248
:10BFB000200000F02BF818F10108F1E7FF2007003E
:10BFC000761CCCE7FF20BDE8F08138B504000D00F9
:10BFD000002C05D02068002802D06068002801D11C
:10BFE000002012E02800C0B2FF280DD02900C9B2FD
:10BFF0006068FFF77FFF002806D02168EDB2E06897
:10C00000454301EB050000E0002032BD38B50400D7
:10C010000D00002C15D02068002812D06068002880
:10C020000FD02800C0B2FF280BD02900C9B2606829
:10C03000FFF760FF002804D02900C9B26068FFF74D
:10C040004FFF31BDF8B5040040250026270032001F
:10C0500029003800FCF742FFF1BD80B56C48FFF7BE
:10C06000F1FF01BD70B506000C004FF6FF75300002
:10C070004FF6FF7180B288420ED14FF480712000DC
:10C08000FFF7ACFE0500280080B2B0F5807F19D123
:10C090004FF6FF70050015E0300080B2B0F5807FEC
:10C0A00010DA310089B22000FFF76CFE002801D1C0
:10C0B000012000E00020C0B2002801D0350001E0DE
:10C0C0004FF6FF75280080B270BD38B504000D0032
:10C0D000200080B2B0F5807F04DA210089B2280008
:10C0E000FFF763FE31BD10B504004949200080B25E
:10C0F000FFF7B8FF10BD10B5040020004FF6FF7128
:10C1000080B2884201D100200CE04249200080B278
:10C11000FFF7A8FF80B2A4B2A04201D1012000E045
:10C120000020C0B210BD10B504003949200080B213
:10C13000FFF7CBFF3749200080B2FFF7C6FF10BDE5
:10C1400010B50400200080B2B0F5807F05DA210030
:10C1500089B22F48FFF738FE00E0002010BD10B56F
:10C160000400200080B2B0F5807F05DA210089B29A
:10C170002848FFF729FE00E0002010BD70B504003C
:10C180000D0020004FF6FF7180B2884201D10026D9
:10C1900000E0661C300080B2B0F5807F0BDA310021
:10C1A00089B22800FFF710FE002802D0300080B2CC
:10C1B00003E0761CEEE74FF6FF7070BD38B5040063
:10C1C0001349200080B2FFF7D9FF0500280080B294
:10C1D0004FF6FF7188420FD0280080B2FFF7BFFFF3
:10C1E000002802D1280080B208E00949280080B266
:10C1F000FFF7C4FF0500E9E7280080B232BD10B5A3
:10C2000004000449200080B2FFF7B8FF10BD000011
:10C21000CC040320EC04032070B504000D001600CC
:10C2200072B6FDF7CDFAFDF7FEF80028FBD10E49F6
:10C230000E480F4A801AC008000450F00100FDF7B4
:10C2400093F80C480068C00700D500BE0A490748AB
:10C25000074A801AC008000450F00200FDF784F875
:10C2600000F00CF870BD00BFC0950300147103000E
:10C27000D4700300F0ED00E094930300BFF34F8F00
:10C280000548016811F4E061044801430248016077
:10C29000BFF34F8F00BFFDE70CED00E00400FA058F
:10C2A00000210160BFF35F8F704710B504000121CA
:10C2B0002000FCF7B3FCBFF35F8F002801D1012001
:10C2C00000E00020C0B210BDBFF35F8F002101600D
:10C2D00070470020DFF8A8180870704738B50500CF
:10C2E0006888FEF704FDA8800024002C07D12800F0
:10C2F000DFF8901851F824108847641CF5E731BD29
:10C300008179012909D10179012906D1408842F6B4
:10C310000211884201D1012000E00020C0B2704724
:10C3200030B585B004000D006846DFF85C181422B3
:10C33000FDF79CFCADF8024002956846FFF7CEFF82
:10C3400005B030BDF0B585B0050000266846142163
:10C35000FCF7F8FDADF8025028004FF6FF7180B2EF
:10C36000884252D0280080B200F03CFD070038001F
:10C37000002808D00B2810D011280BD043F202015E
:10C38000884220D020E00E208DF800006846FFF79C
:10C39000A5FF31E0012006002EE00F208DF80000FF
:10C3A0002A0092B2DFF8E417DFF8E407DFF8E43799
:10C3B000C01AC008000450F00200FCF7DFFF684616
:10C3C000FFF78CFF18E017E03800FFF757F902007D
:10C3D0002B009BB2DFF8C017DFF8B407DFF8B447D3
:10C3E000001BC008000450F00100FCF7D3FF390027
:10C3F000280080B2FFF794FF3200D2B2DFF89C072A
:10C400000178280080B2FEF7EDFA05B0F0BD38B52E
:10C4100004000D002A00D2B2DFF884070178200062
:10C4200080B2FEF7DFFA31BD2DE9F84185B0050095
:10C4300000260027280080B200F067FC80464046B6
:10C44000002808D011280AD086280BD043F2020118
:10C45000884203D021E00120070036E035E00120CA
:10C46000060032E06846DFF83C171422FDF7FEFBB9
:10C47000ADF802502A0092B2DFF82C17DFF810074F
:10C48000DFF81037C01AC008000450F00200FCF7B3
:10C4900075FF6846FFF722FF17E04046FFF7EEF80A
:10C4A00002002B009BB2DFF80417DFF8E406DFF888
:10C4B000E446001BC008000450F00100FCF76AFFCE
:10C4C0004146280080B2FFF72BFF3100C9B2280097
:10C4D00080B2FFF79CFF3800C0B206B0BDE8F08123
:10C4E000FFB404000D0000266846B3DF03000127F7
:10C4F0003800BDF8001080B2884232D2DFF8B02692
:10C50000D2E90001CDE9020101A80390002201A9AE
:10C51000380080B2B4DF0300002B01D0180021E006
:10C520003000C0B2002808D1BDF8040042F6052151
:10C53000884202D10120060011E03000C0B200287C
:10C540000DD0BDF8040042F60211884207D10395D0
:10C5500002AA390089B2200080B2ADDF02E07F1C60
:10C56000C6E7052004B0F0BC70472DE9F04186B065
:10C57000060001275FF00008300080B200F0B0FC38
:10C580000400200000280ED0062828D0082819D042
:10C59000112816D043F2020188422FD043F2014104
:10C5A000884226D02BE001A8DFF808161422FDF7F8
:10C5B0005DFBADF806600120804601A8FFF78EFE06
:10C5C00035E034E06946300080B2FFF789FF0400AF
:10C5D000002C03D1BDF80000002828D1002C002039
:10C5E0000700300080B2FEF782FB80B200F0A8FCAA
:10C5F0001DE0300080B2FFF7A5FE18E017E0200034
:10C60000FFF73CF8020033009BB2DFF8AC15DFF80F
:10C610008005DFF88055401BC008000450F0010081
:10C62000FCF7B8FE2100300080B2FFF779FE3A0037
:10C63000D2B2DFF888050178300080B2FEF7D2F977
:10C640004246D2B2DFF878050178300080B2FEF7BA
:10C65000C9F906B0BDE8F08138B504000D0020002E
:10C6600080B2FFF76FFE31BD80B50022DFF85415B0
:10C67000DFF828050078FEF7F0F901BD38B50400B1
:10C680000D00DFF84405FFF710FE002809D0200058
:10C6900080B2FFF7C9FE002803D1DFF82C05FFF7B1
:10C6A00013FE31BD38B504000D00DFF81405017824
:10C6B000200080B2FEF77AF9002803D1200080B272
:10C6C000FFF753FF31BD80B50022DFF80015DFF81A
:10C6D000EC040078FEF7C1F901BD10B5040020009C
:10C6E00080B200F0E6FB002807D00122DFF8CC047E
:10C6F0000178200080B2FEF775F910BD2DE9FC41EC
:10C7000005000E0004275FF000086C464246390021
:10C710002000FCF7E3FB42F6A620ADF80000012064
:10C720008DF80200DFF8A8040068019001AA6946AC
:10C73000280080B2A0DF0400002C07D10122DFF81E
:10C7400094040178280080B2FEF74CF9BDE8F3812B
:10C750001CB50400200080B2FEF7C9FA00236A4627
:10C76000092180B2FFF7A7F9052807D10122DFF8D8
:10C7700068040178200080B2FEF734F913BD10B5CB
:10C780000022DFF85814DFF818040078FEF765F986
:10C790000400002C08D10022DFF84414DFF838042C
:10C7A0000078FEF75AF9040010BD10B50400207897
:10C7B00000280BD16088FFF7C5FD6088FFF78DFF6B
:10C7C0006088FFF7C5FFFFF7DAFFFFE710BD7CB514
:10C7D00005002878082849D1687A002846D1287AA7
:10C7E000012818D0072802D0082835D03EE0A888B4
:10C7F000FEF708FB0400200080B24FF6FF7188426C
:10C8000008D00121200080B2FFF701FE200080B295
:10C81000FFF79EFF2AE06A460121A888FEF741FE45
:10C820000400002C17D101980078002813D0A888A4
:10C83000FEF7E8FA0600300080B24FF6FF7188423A
:10C8400009D00122DFF874030178300080B2FEF7CE
:10C85000C9F8FFF738FF09E0DFF86C03006801282A
:10C8600003D1DFF86403FFF72FFDFFE7FFF787FF32
:10C8700073BD80B5DFF80803007890F00100C0B206
:10C88000FFF727FDFEF785F8DFF814130870FEF7B1
:10C8900080F8DFF808130870FEF77BF8DFF81C1348
:10C8A0000870FEF776F8DFF818130870FEF771F8D5
:10C8B000DFF824130870FEF76CF8DFF8181308701F
:10C8C000FEF767F8DFF81C130870DFF8D402007871
:10C8D00018281DD0DFF8C4020078182818D0DFF817
:10C8E000DC020078182813D0DFF8D402007818286A
:10C8F0000ED0DFF8E4020078182809D0DFF8D4025F
:10C900000078182804D0DFF8DC02007818280CD151
:10C91000DFF8D4129E489F4A801AC008000450F0E5
:10C920000100FCF721FD032006E0A748FFF7B8FC53
:10C93000012093490870002002BD7CB505000E005F
:10C94000AA48D0E90023CDE900230022A2480178BB
:10C95000280080B2FEF746F83000C0B2002801D0AF
:10C96000A34800E0A3480190280080B2FEF7BFF979
:10C970000022694680B2FFF749F90400002C0DD06F
:10C980002000FEF77BFE02009B498148814BC01AC4
:10C99000C008000450F00200FCF7F0FC73BD2DE964
:10C9A000F84185B00500AE88288835283ED0362865
:10C9B00000F0A18050282CD0522802D0542805D055
:10C9C000D7E0300080B2FFF7BDFCD2E068468B496B
:10C9D0001422FDF74BF9ADF80260300080B2FEF78B
:10C9E00086F9ADF80400BDF8040000F0A9FA0022B1
:10C9F00073480178300080B2FDF7F4FF00226F48E1
:10CA00000178300080B2FDF7EDFF6846FFF766FC65
:10CA1000AFE0A81DFFF774FC002806D0012130000C
:10CA200080B2FFF7F4FCFFF7AAFEA2E00027A88877
:10CA3000060015F10A0867480178300080B2FDF75A
:10CA4000B5FF002800F09580002262480178300090
:10CA500080B2FDF7C7FFE888B0F5857F41D0E88850
:10CA600000280BD0EA88664949484A4BC01AC008DA
:10CA7000000450F00200FCF781FC32E0B8F800003E
:10CA800001280BD0B8F800205E494148414BC01A3C
:10CA9000C008000450F00200FCF770FCB8F8020077
:10CAA00001280CD0B8F8022057493948394BC01A30
:10CAB000C008000450F00200FCF760FC11E0002206
:10CAC000B8F80410300080B2A1DF0400002C08D1B7
:10CAD00001200700012243480178300080B2FDF7B1
