:020000040002F8
:1070000008560020FD260300C38C0200D79702001B
:10701000EB9C0200AFAB0200D3B002000000000006
:1070200000000000000000000000000023B8020083
:1070300043B802000000000077E10200E3E602002E
:10704000D70F0300E7E602000DC502000BE70200C0
:10705000FBEA0200BFF7020079BE0200DBF7020084
:1070600089210300AF220300BB220300B1280300E3
:10707000B3280300B5280300B7280300B92803008C
:10708000BB28030051E60200BD280300BF2803000F
:10709000C1280300C32803008FEF0200C5280300A6
:1070A000C7280300C9280300CB280300CD2803000C
:1070B000CF280300D12803000000000000000000DA
:1070C000D3280300D5280300D7280300D9280300BC
:1070D000DB280300DD280300DF280300E12803008C
:1070E000E3280300E5280300E72803000000000070
:1070F00000000000E928030000000000EB28030066
:10710000000000000000000000000000000000007F
:10711000000000000000000000000000000000006F
:10712000000000000000000000000000000000005F
:10713000000000000000000000000000000000004F
:10714000000000000000000000000000000000003F
:10715000000000000000000000000000000000002F
:10716000000000000000000000000000000000001F
:10717000000000000000000000000000000000000F
:1071800000000000000000000000000000000000FF
:1071900000000000000000000000000000000000EF
:1071A00000000000000000000000000000000000DF
:1071B00000000000000000000000000000000000CF
:1071C00000000000000000000000000000000000BF
:1071D00000000000000000000000000000000000AF
:1071E000000000000000000000000000000000009F
:1071F000000000000000000000000000000000008F
:1072000000F00300401E8041C00F704738B50446AF
:107210000025DFF8BC0B00EB8501496809B1204669
:1072200088476D1C042DF4D331BD884205D2006817
:1072300010F1010F01D001207047002070474188F4
:1072400000EB81000C30704738B504460D46FFF75F
:10725000F6FF854201D2022032BDA1884FF6FF72AF
:1072600091421FBF20880028A06810F1010F01D1B2
:10727000012032BD002032BD68B10168DFF8542B17
:10728000914208D14068DFF8701B401A04D0401EBC
:1072900001D101207047032070472DE9F0410D46D0
:1072A00002211446298000F1080600F58058DFF815
:1072B0004C7B0DE0B068396E814238BF3866298852
:1072C00072885118C91C29803046FFF7B8FF06465E
:1072D00041463046FFF7A9FF68B141463046FFF707
:1072E000B3FF0100E6D00CB1012121700228E6D1E4
:1072F0004FF480602880BDE8F0818A7D032A04DB9A
:107300000389CA88D318DB1C03814289C988521AB1
:10731000D31E43817047000080B50020DFF8DC1ADF
:1073200002A2096C009008230BE00000DEC0ADDE75
:10733000FF011EF180B50146002000905FF00803B8
:1073400001A200F03EF902BDDEC0ADDEFE011EF17D
:1073500070B5C01C80B240F2FF32904202DB48F2AE
:10736000086070BD002340F201461425DFF88C4A06
:107370005D432C44227832B9228965891218AA18F3
:1073800092B2B24203DB5B1C012BEEDD05E00B8009
:10739000618940186081002070BD48F2066070BDB0
:1073A000142210B5DFF8543A514319444C89201A7D
:1073B000C01E488110BD70B50C461421DFF83C2A70
:1073C000484310444168206801F5805518B901F11F
:1073D000080603E03046FFF732FF064629463046EE
:1073E000FFF723FF58B129463046FFF72DFF18B1AC
:1073F000022804D0F2D2EDE72660012070BD002003
:1074000070BD7CB506460C467068DFF8F05920B3B5
:10741000DFF86C2AD368984224BF126982421CD3D9
:10742000FFF7EEFEC8B13089298E884201BF70682F
:1074300031688268914210D1002114232A1D4B43E8
:10744000D25882423CBF02F58052904203D3491C7D
:107450000129F2DD1AE0218010E0002020800021C7
:10746000009120886946FFF7A6FF48B1009832686E
:1074700081689142F5D17060298E3181012076BDFD
:107480002088401C208080B20128E8DD002076BDE5
:107490002DE9F04100F04EFB17461E4610B948F2A8
:1074A000016030E0002F18BF002E06D148F20460C2
:1074B00029E03060B188491CB180B088022820DA08
:1074C0001421484318F800000028F3D1B088314651
:1074D000FFF771FF0028ECD03068002C1EBF8288B7
:1074E00023889A42F2D1002D1EBF02882B889A422F
:1074F000ECD1816839607860B8F8300038810020BC
:1075000001E048F20960BDE8F08110B50146DFF8FE
:107510009C0A00F0A5FD04461C2100F00FFE204649
:1075200010BD0146DFF8840A00F0BCBD38B50C463A
:1075300000250146009504230FF68C2200F041F847
:1075400010B148F20D6032BD1420DFF8B02844437A
:10755000101901210174002032BD70B5DFF89C487C
:10756000618D142041436518DFF8440AE96829B9A0
:10757000042684F828600023696807E002210522B8
:10758000A4F8441084F828200023216C0122BDE8CF
:10759000704000F0BBBE1CB5DFF86008C16AC26A6B
:1075A0004B88032180F82810DB1C016CB0F84400E4
:1075B00000241B0401EB800100949B0B00F001F8F8
:1075C00016BDDFF8EC0900F023BE80B5DFF82C080B
:1075D00000F12C01408DFFF7EEFE10B1BDE8014037
:1075E000D9E7BDE80140B8E72DE9F04FDFF80C58C6
:1075F0000646686E85B030B905F5847105F1F8006E
:1076000000F060FD686614276A6E0FF6C0191378E3
:10761000DFF89C495B1E052B48F2096A48F20E60B0
:1076200041F61D58314600F2C081DFE813F0060034
:107630006B006B00E900E900270111B10020E8634D
:107640001DE11179032943D8DFE801F03E261A0233
:10765000002010712C1D286CFFF76CFE698D2A6CC0
:107660004F43291DCB592B64E25105F10802B5F8AF
:107670004410D1530223A5F844300021E95527E0F6
:10768000002010710221A5F844100023296C01226A
:10769000204600F03BFE1BE0002007FB00F16A5C87
:1076A000022A0AD0401C0128F7DD012085F83800A5
:1076B0000021E96300F0C7F9A0E0002068542A1D0A
:1076C0005058FFF737FE03E001201071FFF724FE4A
:1076D000002800F0AA810020E86348F20D6400F061
:1076E000B2F9696E01940A78521E052A00F2898166
:1076F000DFE812F084017D01740168015D0106007C
:1077000005217CE11646B28A5743EF1921B1314673
:107710003846FFF7F2FDB2E079683A8901EB820B57
:10772000B17D06295ED8DFE801F04F102F25420613
:107730000400444657E00620B075B5F85C10686D4B
:10774000FFF7F4FE04004ED151E0307803280CBF5F
:1077500005200620B07504230020009006F10802E1
:107760000BF10401204600F053FD002838D048F208
:107770000D6438E00120B075002100910BF10C017F
:10778000F38832699B000CE03069002814BF0320A5
:107790000120B07504230020009006F10C020BF1CB
:1077A0000801204600F034FD0028E0D118E0002058
:1077B000686505F15000B169296505F15C01FFF7C5
:1077C00020FE08B954468AE70220B07500210091D6
:1077D0000423321D5946204600F01AFD0028C6D168
:1077E000002404E0044631463846FFF786FD002CAD
:1077F00000F01B8100F027F9444500D1002470E718
:10780000002914463BD12179E9B1022901D002D3E4
:1078100030E04446EBE705F148036A460021A01D2D
:10782000FFF736FE040006D1B5F84C100198FFF7BB
:107830007DFE044604E005F148000021C0E9001186
:107840005445D4D1E5E7022101A80022217100238B
:10785000964680E80C40E16801916946FFF7D1FD4A
:1078600050B102988188E18002882281BDF8001021
:10787000FFF75CFE0446BAE75446B8E711B14FF48F
:1078800006442CE795F83410B1B1002285F8342075
:1078900095F82810491E0629ECD8DFE801F0604869
:1078A000817E04330500E5E70720002185F82800E4
:1078B000E962FFF731FDDDE795F828100729E7D8E1
:1078C000DFE801F03804042A0905054AE0E707204B
:1078D00085F82800E8E7698D79432A1D286C5358FC
:1078E0002B642C1D05F1080260500223B5F84400FA
:1078F000505205F11002A5F84430002050540621E2
:1079000085F82810062085F82800291D688D474332
:10791000C859FFF70FFDADE7EA6AB5F84410508883
:107920004118C91CA5F84410022185F82810FFF75A
:107930004CFE9FE7288E401C288600216985002088
:1079400005F1320207FB00F1695C491E8941C90F4C
:107950001154401C0128F5DD012085F82800002184
:1079600005F10C0405F13202505C68B105F13203F7
:1079700000225A5407FB01F2A058002802BF05F16B
:107980001003985C01280ED0491C0129EADD002073
:1079900085F828006885E8623BE7FFF7DEFD69E7C8
:1079A000FFF7F9FD66E76985C1E7044697E604201D
:1079B0008DF800000022C988ADF80C10ADF80E203B
:1079C00002921EE003228DF80020C888ADF80C005A
:1079D0000889ADF80E00C968029112E0022200F099
:1079E00027F8887D062814BF0021012103E0012229
:1079F00000F01EF800218DF8101002E000218DF833
:107A000000106846FFF702FC0020686605F58471E7
:107A100005F1F80000F082FB012105F1680000F09B
:107A20006FFD002600287FF4E7AD05B0BDE8F08FBC
:107A30008DF800200889ADF80C008888ADF80E009C
:107A4000C8680290704768464946142200F06ABD33
:107A500080B50121DFF85C0500F03AFD10B9BDE802
:107A60000240C1E501BD4068BEE52DE9FE4300F0DE
:107A700061F8994610B948F2016059E015B948F229
:107A8000046055E028884FF6FF7188421ABF688865
:107A9000002848F203604BD0287910F0030F18BF7C
:107AA00048F2026044D132B9AF686946B8B2FFF714
:107AB0004FFC20B13CE01088ADF80000578801A8C9
:107AC000FFF723FD060007D1BDF80010B8B2FFF79D
:107AD00067FC48F207602BE086F800900020B07544
:107AE000BDF80010B18201216868306108F16000C2
:107AF00000F0FAFCF060B9F1030F28883081698842
:107B0000B180F78003D10420B0752168B1610020F5
:107B1000708101A8FFF705FD3CB100206060F168AD
:107B20002160A072B8F830102181FFF791FF00208A
:107B3000BDE8FE83DFF8C482044698F838000D469D
:107B4000704710B5A24A1168042902D148F20B60AF
:107B500010BD136802EB830401216060104600F041
:107B6000C3FC002010BD2DE9F84FDFF8904294F8D7
:107B7000381009B100F0BBB804F13C0000F0CCFCB7
:107B8000002840F0DD80D0F8F80FDFF82C2410F149
:107B9000010F04BFDFF8240400681168526810F177
:107BA000010F04BF10464843DFF8D4221346A0F566
:107BB00040511861D1600022DFF80414184600F02B
:107BC000FBFA002840F0BD801C238C2204F16C01DC
:107BD00004F1F800002500F00DFAA94600274FF047
:107BE0000308CB46DFF89802C1684FEA0B42681CD5
:107BF00001EB121A80B200901421694366185046B6
:107C0000FFF73AFBF0B1012802D0032827D053E058
:107C10005FEA090006D002203070216C716030816B
:107C20006585009DC4F840A0002204F1440150463F
:107C3000FFF733FBB4F8440002280CBF04200820EF
:107C4000074339E03070C6F804A006F1100206F1CF
:107C500008015046FFF721FB47F0020721E0DAF860
:107C6000000010F1010F1CBF5A49884213D10120B6
:107C70005AF8201011F1010F0DD1401CB0F5806FA2
:107C8000F6D3206C78B102213170C6F804A031819E
:107C90006585009D0EE0C6F804A00320A8F1010848
:107CA0003070009D08E00220C4F840A0A4F8440011
:107CB0004FF0010947F001070BF1010B1FFA8BF0A0
:107CC00002288FDD1FFA88F00228B8BF0027FFB214
:107CD000002F18BF022F02D0062F03D00CE048F26D
:107CE0000A602EE0012084F838000021E1630FF2E1
:107CF000F020FFF78BFA23E000F09BF810B948F270
:107D000007601EE00121012F18BF032F01700AD068
:107D1000052F18BF072F0DD0092F06D00A2F06D028
:107D20000B2F02D007E0002202E0032102E0022232
:107D3000027100E001716846FFF7F3FBFFF788FE70
:107D40000020BDE8F28F7CB504000D4618BF002D61
:107D500002D148F2046076BD6946FFF752FB98B144
:107D6000BDF80030474A666814204343D01801210B
:107D70000C3000F0B9FB2E600122606800F10C01AC
:107D80006960A272002076BD48F2096076BD1CB51C
:107D9000040000D134E06946FFF733FBA8B1BDF819
:107DA0000020384814214A438118C86800281CBFA5
:107DB000A07A002806D0C868401EC8600021A172C1
:107DC000002016BD48F2056016BD48F2096016BDD8
:107DD0004C350020DEC0ADDE022305E048F2046031
:107DE000704700B9FAE7032300223EE6254904461E
:107DF00091F8380070470000FE011EF15C2E002053
:107E000048F2046016BD1CB5FFF7F0FF00B913E09F
:107E10004FF6FF718C4202D148F2036016BD00F0AC
:107E200008F800B90BE00521017001220271C4803D
:107E300008E06846FFF769BB48F2016016BD48F2EA
:107E4000076016BD6846FFF76CFBFFF701FE0020D8
:107E500016BD1CB50B4C94F8380000B9ECE7FFF7E1
:107E6000E8FF00B9EBE7062101706846FFF759FB10
:107E700094F8280010B1012184F83410E5E70000DF
:107E8000A02800205C2E002003B581B002A901A823
:107E9000FFF7FEFA0EBD01B513460A4669460020FB
:107EA00004E001B513460A4600216846FFF7F0FAE0
:107EB00002BD002818BF002900D18FE700680860C4
:107EC000002070472DE9F843DFF8F880044698F861
:107ED000380010B948F2016065E014B948F2046056
:107EE00061E01221204600F029F9032020800026BD
:107EF0004FF0140909FB06F008EB00073D8978896B
:107F000045197868FFF7B8F9032802D12088411E87
:107F100021806288F86821898218628078894118F6
:107F20002181A08961896918C5F58065ADB2854256
:107F3000618138BF0546B0B208F1040109FB00F0C9
:107F4000A581085800F1080500F5805706E0A088D3
:107F5000401CA0802846FFF772F90546394628469E
:107F6000FFF763F9D8B139462846FFF76DF90028C5
:107F7000EDD0022809D0F1D2E088401CE080698869
:107F8000E0890818C01CE081E4E7E088401CE0803C
:107F90007D1BE08900EBA5010122E1812274761CA2
:107FA000022EA7DB0020BDE8F2830000542F002042
:107FB000A0280020C42E0020100000101410001073
:107FC0008C2103005C2E00200000FFFF0000000059
:107FD00000000000000000000000000000000000A1
:107FE0000000000000000000000000000000000091
:107FF0000000000050B509B90E2050BD144694FB96
:10800000F3F603FB16440CB1092050BD01608460F7
:10801000002141608281C381002050BD81B050E8C1
:10802000022FC188B2EB324F4FF0000317BF92B25C
:1080300041EA014142EA014104E04268B2EB324FB9
:1080400008BF012340E80212002AE8D18DF8003071
:108050009DF80000002814BF0020112001B07047D7
:108060003CB550E8015FAAB2C3891A4483899A4299
:1080700028BFD21A03899A4202BFBFF32F8F002470
:1080800007E0C2EA050240E80123002BE9D14FF0E6
:10809000010400F03AF81AB100680988084436BDB6
:1080A000002036BD0A8849888A4209D150E8011F5C
:1080B000C1EA014140E80112002AF7D101207047CE
:1080C000002070473CB550E8025F1FFAA5F2C38854
:1080D0009A4202BFBFF32F8F00240DE0C3891A44D8
:1080E00083899A4228BFD21AC5EA024240E8022395
:1080F000002BE8D14FF0010400F007F81AB1006836
:108100004988084436BD002036BD01958DF80040F1
:10811000019B0B609DF80020704700000A88498889
:108120008A4209D150E8021FC1EA214140E8021207
:10813000002AF7D10120704700207047002200F08C
:10814000FDB9F0B40246106895681318506803EB47
:108150005004C0071BD54D4419E013F8017B05F806
:10816000017B491EF9D190B113F8011BC6F38106BA
:10817000032E08BF13F8016B01EB06214942294485
:10818000801C11F8016B05F8016B401EF9D1A34268
:108190000ED013F8016B16F0030104BF13F8011B96
:1081A000C91C30090F28DCD113F8010B0F30D8E7B8
:1081B000F0BC02F10C00704738B50D46DFF8F8113D
:1081C000DFF8F8410FF218230C1BE408240444F0F4
:1081D0000104DFF8EC1128B90E25009520460FF2B6
:1081E000142205E02DB90E20009020460FF20C223B
:1081F00005E0056011462A68BDE83840104700F0E8
:1082000019FB0E2032BD5146384600F013BB00006A
:108210002DE9FC4700F06BF80FF2F41900F060F85C
:1082200016461D4647F0010714B900F053F804E064
:108230003EB90E2000904B467AA2FFF7E4FF0E20D5
:1082400041E0206818B900F057F808203BE025B954
:10825000092000904B4657A20BE060684068B5FBD0
:10826000F0F100FB115040B1092000904B460AF19B
:108270005402FFF7C8FF092025E018F0030F0DD1C5
:1082800016F003000ED12A464146204600F09AF827
:1082900080B900F01AF80AF1A40207E000F015F81E
:1082A00062A203E000F011F80AF18002FFF7ABFFD1
:1082B000102008E00A9800902B4620462468E568C4
:1082C00032464146A847BDE8F687102000904B464D
:1082D000704700000E2300934FEA090345A2704740
:1082E000DFF8DCA0C71BFF083F0488467047044640
:1082F0003148324F70470000082100914FEA0903CE
:1083000040A25146384600F095BA00002DE9FC47DE
:10831000FFF7EDFF0FF22C18DFF8A490C71BFF0842
:108320003F040E4615469A4647F001074CB90E2306
:10833000009349464FEA08032EA2FFF765FF0E207F
:1083400036E0206840B90821009143462DA24946F5
:10835000FFF75AFF08202BE045B90920009043465B
:1083600014A24946FFF750FF092021E06068026827
:10837000511E0E420BD16A433146204600F022F8CE
:1083800078B910200090434609F1F40204E010206F
:108390000090434609F1CC024946FFF735FF102013
:1083A00006E0204624682A46256953463146A847F8
:1083B000BDE8F6876C656E001C130300E412030031
:1083C000C00A0300C368994207D300695118491EC7
:1083D00088428041C043C00F7047002070470000B2
:1083E0006E72665F6673746F726167655F696E69EE
:1083F00074000000705F667300000000705F6170C1
:1084000069000000705F66732D3E705F61706900E7
:108410006E72665F6673746F726167655F777269AB
:1084200074650000705F73726300000061646472C1
:108430005F69735F616C69676E6564333228646578
:10844000737429006E72665F6673746F726167651C
:108450005F6572617365000010B5024652E8000F57
:108460000C4642E8004393F0000FF7D110BD000026
:1084700010B5024652E8000F40EA010442E800430A
:1084800093F0000FF6D110BD10B5024652E8004F30
:1084900044EA010042E8000393F0000FF6D110BD5A
:1084A00010B5024652E8000F00EA010442E800431A
:1084B00093F0000FF6D110BD10B5024652E8004F00
:1084C00004EA010042E8000393F0000FF6D110BD6A
:1084D00010B5024652E8000F00EB010442E80043E9
:1084E00093F0000FF6D110BD10B5024652E8004FD0
:1084F00004EB010042E8000393F0000FF6D110BD39
:1085000010B5024652E8004FA4EB010042E8000318
:1085100093F0000FF6D110BD0121A9E70121B3E7C7
:108520000021BDE74AB1000011F8013B521E00F8DE
:10853000013B1CBF11F8013BF8E77047401810F0F1
:10854000030308D0C91A1FD3DB0748BF00F8012D69
:1085500028BF20F8022D130030B4144615461039F8
:1085600028BF20E93C00FAD8490728BF20E90C00C1
:1085700048BF40F8042D890028BF20F8022D48BFCD
:1085800000F8012D30BC7047C91818BF00F8012D44
:10859000CB0728BF00F8012D7047430080B5DFF8F6
:1085A0007825DFF878050021117000F0D5FA20B9A0
:1085B0000FF2985000F07CFB002002BDDFF8600550
:1085C000DFF86015401AC008704738B5044689B115
:1085D000FFF7F4FF2568DFF85025002100E0491C73
:1085E000814205D232F82130AB42F8D1216001E05E
:1085F000052032BD002032BD01B56846FFF7E5FF1A
:1086000028B9DFF82805009950F8310002BD002094
:1086100002BD0000491EDFF81425032902EBC0004B
:108620000BD8DFE801F0020406080220704704209E
:1086300070470079704740797047002070470246C4
:1086400000201368C3F3800292B103F003000128F5
:1086500007D0022801BF086800EB9350801C086017
:1086600005E00A68C3F383108218921C0A60012097
:10867000704780B50021DFF8B804FFF7EDFE80F306
:10868000100002BD2DE9F84185B00D4600218DF89E
:1086900000109046DFF880740446684600F016FB30
:1086A00078682860A61C3AE0054602980199800D7A
:1086B000C01C01EB900125E0019907F10C0001F0CD
:1086C000FF0100EB810001A9FFF7B9FF0028F3D1FA
:1086D000019A07F10C0100F0D9F90199491C012810
:1086E0000191F5D90299BDF80E0001F003010129AD
:1086F00002D00229D8D006E0054602980199C0F3BD
:1087000083104118019107F21440FFF709FF08B1E7
:108710000198B860294607F21C40FFF7E5FE79682A
:10872000B868C1F580714118B14216D2012107F233
:108730001C40FFF7D9FE07F58360FFF7EFFE07F255
:108740001440FFF7EBFEB868019007F10C0100F050
:10875000FF00002501EB8000B5E7B8F1000F05D060
:10876000A40104F4707444F0050402E0A40544F08C
:10877000060407F10C00397940F821407868361872
:108780009DF800007E6000F0BCFA012006B0BDE854
:10879000F0812DE9FC470446884615469A46012299
:1087A00069465046FFF76EFFDFF86C6348B30098E8
:1087B000801C002106F10C0207E055F8217000F042
:1087C000FF0342F82370401C491C5145F5D3009D1E
:1087D000FFF74FFF06F10C0900F043F8E40049F8F9
:1087E000270024F4707444EA8A14C4F3090406F1DF
:1087F0000C0044EA882405F0FF0544F0010440F829
:108800002540307818B100F03DF80028FBD1BDE8D4
:10881000F38700230022BCE780B50092012300F01B
:1088200012F801BDE0B5009201936A460223FFF7FA
:10883000B0FF07BD1FB5069C00920193029403236D
:1088400000F001F81FBD6A46A3E77FB5089D099EA9
:1088500000920193029503960423FFF7F4FF05B0FD
:1088600060BD6F1C000407F0FF0740EA144070472A
:10887000A94881684068814201D1012070470020E9
:10888000704700002DE9F04385B0FFF7F1FFF8B91C
:10889000A14EC6F81804BFF34F8F06F10C01B06863
:1088A000009000F0FF0001EB800005E006F10C00F5
:1088B00001F0FF0100EB81006946FFF7C0FE48B1FF
:1088C000D6F8180430B9706800998142EED3B060D0
:1088D0000020D2E00020009A06F10C0100F0D6F84A
:1088E0000099491C01280091F5D902998B4801F0A3
:1088F0000301022943D1029D0299AD0D2F46502D4F
:10890000A8BF502565F39F51029105F1080100F0C1
:1089100025F95FEA00084FD000F068F900F0B0F8E0
:10892000009901F0FF01C1F58070800006F10C0292
:10893000A84202EB810117D228B9A94606F10C0121
:108940000024002503E0814606F10C042D1A5FFA8D
:1089500089F908234A46404600F09EF94CB109F1D6
:108960000803EAB2214601E008232A46404600F007
:1089700093F90098FF1C00EB9700009039E00299F2
:1089800001F0030101295DD10299029AC1F383111B
:108990000529DABF029901F470714FF4C07122F415
:1089A0007072114302910299C1F38311891C8900ED
:1089B00000F0D4F85FEA000844D000F017F900F0A6
:1089C0005FF8082700240FE00098411C009106F191
:1089D0000C0500F0FF0005EB80013B4604224046F9
:1089E00000F05AF93F1D641C0298C0F383108442C2
:1089F000EAD3D6F81044D6F8180470B1404600F017
:108A0000F9F835E0E0684179012904D1226813685A
:108A1000414620469847E0680468002CF2D1404661
:108A200000F0E8F800208DF8040001A800F04EF9ED
:108A3000D6F8180408B90098B0609DF8040000F05A
:108A400060F915E0D6F8104405E021688A682046F0
:108A50009047E0680468002CF7D13648DFF8C4205E
:108A600035A1801AC008000440F00200FFF7D1FED3
:108A7000FFF7FEFE401E8041C00F05B0BDE8F08349
:108A80000023082202A9404600F006B902F0FF02C6
:108A900051F8221002AA42F82010401C704730B54D
:108AA000024600201C4BD3F8101400E0096839B1CD
:108AB000C9680C798442F9D1401C0A2803DAF2E72C
:108AC00010F1010F02D14FF0FF3030BDD1680871B5
:108AD000D468D3F8101419B9C3F81024216030BD3C
:108AE000CD6829682160D3F81034D9680A6030BD98
:108AF00010B50948D0F810440121017008E0E16880
:108B000001224A712046226851688847E06804685B
:108B1000002CF4D110BD0000B4280020C8250300AB
:108B2000AC130300E412030000000000E412030091
:108B3000D02C0020241303004261636B656E6473C4
:108B400020666C757368656400000000A832002020
:108B50007F0000003435002000F0ECB82DE9F04132
:108B600005460F462E8A00F0FCF8361F040002D19D
:108B70000020BDE8F081F71900200121FF1C2071C1
:108B80006171A046B7FBF6F7E680FFB27F1EC8F81A
:108B90000050002607E06179491C6171C8F80000A7
:108BA00005608046761CBE4208D2284600F0D9F8FF
:108BB0000028F0D1204600F003F8D9E72046D8E796
:108BC000F8B501460D464C79601E002200E0521CAB
:108BD0002D688242FBD3002605E00F68284600F08E
:108BE000E3F83946761CA642F7D3F1BD0121001DFA
:108BF000FFF77ABC1CB504460121201DFFF780FC5D
:108C000000909DF8000018B92046BDE81640D7E74F
:108C100013BD2DE9F0471446B0F806804279256867
:108C200046465643361F5F1903F1040CBE42BCFB97
:108C3000F8F234BFF31A2B4608FB12CC2360002A4B
:108C400001E00068521EFCD1A8EB0C029A46934248
:108C5000089F4FF0000988BF92460E4605461C4605
:108C600016E005EB0C00001D06EB09033900524627
:108C70000EBF194601461846FFF754FCA4EB0A0440
:108C8000D1442D68A24644454FF0000C88BFC2462F
:108C9000002CE6D1BDE8F0871CB50192002402E06B
:108CA0001CB501920124009401AAFFF7B2FF13BD85
:108CB00080680021816001614161C16041600160A3
:108CC0007047FEE7EFF3108072B6704738B5044680
:108CD000FFF7F8FF134A916871B9012393601249B5
:108CE000124B1D680D4015601960596851604FF0B6
:108CF000FF325A60002100E00121217000B962B604
:108D000031BD10B5074CA16859B150B9FFF7DAFF72
:108D1000074922680A6063684B600021A16000B9BE
:108D200062B610BD9C350020FC06FFBD80E100E06E
:108D300000E100E010B508B90E2010BD03684268DC
:108D400081681A60891A03E013685C1C146019704A
:108D50000B46591EDBB20268002BF5D100201071C2
:108D600010BD38B5044600258DF800506846FFF761
:108D7000ADFF21686268086882420FD2421E0A6015
:108D80001578208AE36845431D44A36820689A1A31
:108D90000379D2B29A4238BF1A460A719DF8000090
:108DA000FFF7AFFF284632BD38B50C460021054617
:108DB0008DF800106846FFF789FF286801684A1C93
:108DC0000260E8682A8A241AB4FBF2F20A709DF85D
:108DD0000000FFF796FF31BDBFF35F8F00210160F8
:108DE000704710B50446608800F00EFCA080204655
:108DF000BDE8104000F095BD30B585B004460D4685
:108E000068460FF2106100F042F9ADF80240029599
:108E100000F0B2F805B030BD2DE9F84285B0044647
:108E200068461421002500F05DFF4FF6FF70844274
:108E3000ADF802403ED0204601F002F80746DFF8C8
:108E4000A005DFF8A065DFF8A095861BF6083604BC
:108E5000380008D00B280CD0112808D043F20201AA
:108E6000884220D011E00E228DF800200AE0012572
:108E700019E00F208DF800002246494646F0020016
:108E8000FFF7CAFC00F078F80DE001F071F8024637
:108E9000234609F1800146F00100FFF7C3FC394683
:108EA0002046FFF7A9FFDFF8440541782A4620460F
:108EB00001F096F906B0BDE8F0820A46DFF82C15FD
:108EC000097801F08DB9A7E72DE9F84D8046DFF864
:108ED0001C4585B0012104F10800FFF7BDFABFF37E
:108EE0005F8F002845D1404600F05BFF8346DFF8E6
:108EF000F004DFF8F054DFF8F8A4451BED08002675
:108F000000272D045FEA0B001AD0112816D08628FE
:108F100004D043F20201884222D013E068460FF2E7
:108F2000085100F0B4F8ADF802804246514645F0D1
:108F30000200FFF771FC00F01FF811E001260FE0BE
:108F400001270DE001F014F8024643460AF138010A
:108F500045F00100FFF766FC59464046FFF74CFF1D
:108F600031464046FFF7A9FF1FB904F10800FFF79B
:108F700033FF06B0BDE8F08D684632E72DE9F043D7
:108F8000DFF86854E97885B0814601F012F90028CD
:108F90007CD148460127002600F0A2FF00280446A5
:108FA00049D0062840D008280DD011281CBF43F214
:108FB0000201884260D043F20141884246D14846CE
:108FC000FFF72AFF58E06846B3DF0024BE460FF2E1
:108FD0006C4806E042F60521884208BF01240EF1E4
:108FE000010EBDF800101FFA8EF088421CD2D8E99D
:108FF0000023CDE9022301A903910022B4DF98B92F
:10900000002CBDF80400E5D042F602118842E6D1FA
:109010000DF1020203921FFA8EF102AA4846ADDF5B
:1090200010B9BDF8020038BB484600F0EDFA00F078
:109030008BFF002720E068460FF2084100F027F878
:10904000ADF80290FFF798FF012615E000F090FFC1
:109050000246DFF88C03DFF88CC3DFF89813A0EB2F
:109060000C00C00800044B4640F00100FFF7DAFB9B
:1090700021464846FFF7C0FEA9783A46484601F027
:10908000AFF8E9783246484601F0AAF8A0E1142288
:10909000FFF748BADFF85403DFF85C13807800224A
:1090A00001F0CEB880B503460020009042F6A6221B
:1090B0000121ADF800208DF8021018460FF2983209
:1090C0006946A0DF30B9DFF8240341790122184650
:1090D00001F086F801BD1CB5044600F095FA0023A6
:1090E0006A46092101F004FA052806D1DFF8FC02DE
:1090F00001790122204601F073F813BD10B5DFF8A5
:10910000EC42DFF8F8122078002201F099F828B933
:109110002079DFF8EC12BDE81040C0E710BD38B58B
:109120000446207898B96088FFF776FE658828465F
:1091300000F0C7FE28B1AD4881780122284601F031
:109140004FF86088FFF7C7FFBDE83140D6E731BD73
:109150007CB506463078082804BF707A002832D1E2
:10916000317AA24D01294FF6FF7411D0072902D0A0
:10917000082921D027E0B08800F09FFAA0420546D8
:1091800021D00121FFF799FE2846FFF7A4FF1AE03E
:10919000B0886A4601F045FCA8B90199087890B1F9
:1091A000B08800F08AFAA0420DD0A978012201F01F
:1091B00017F8FFF76FFF06E0A868012803D1BFF397
:1091C0005F8F0021A960FFF799FF73BD10B5874C31
:1091D00000F0E6FF207000F0E3FF607000F0E0FFB9
:1091E000A07000F0DDFFE07000F0DAFF207100F009
:1091F000D7FF607100F0D4FF2178A07118291CBF3F
:10920000617818290CD0A17818291CBFE178182999
:1092100006D0217918291EBF6179182918280BD189
:109220006F48704A7749801AC008000440F0010076
:10923000FFF7EFFA032010BD0020A060BFF35F8F9F
:1092400010BD0000FEB5044686A0684BD0E900675B
:109250000D46CDE9006719790022204600F0C0FFD5
:10926000002D14BF0FF2F4100FF2F41001902046FD
:1092700000F0CAF90022694601F09FF960B100F0E0
:1092800077FE02465648574B5F49C01AC008000493
:1092900040F00200FFF7C0FAF7BD00002DE9F043EF
:1092A000504CDFF86891514D07464D48041B85B07E
:1092B0003888B7F80480E4082404352844F0020410
:1092C00035D0362860D050281FD0522802D05428DC
:1092D00004D076E04046FFF79FFD72E04FEA0D00B4
:1092E00062A1FFF7D4FEADF80280404600F08CF991
:1092F000ADF8040000F028FEE97800F06CF8A978D9
:1093000000F069F8FFF738FE5BE0387B012804BF06
:10931000B87A012802BF388942F60211884250D13A
:1093200001214046FFF7C9FDFFF7E8FE49E06979F2
:10933000404600F03EFF002843D0697900F04BF82A
:10934000FA88B2F5857F04D02AB149462046FFF756
:1093500063FA002132E07A89012A04D009F13C0144
:109360002046FFF759FABA89012A18BF09F1780196
:10937000ECD1F98900224046A1DF0028E9D1A97982
:10938000012200F029F81CE0A979404600F011FF05
:109390000026B0B1A97900F01EF8FA880AB1494652
:1093A00004E0FA89012A05D009F178012046FFF787
:1093B00033FA02E0387C00B1012631464046FFF71F
:1093C00041FF68781249002200F03AFFFFF762FE81
:1093D00005B0BDE8F0830022404600F001BF000068
:1093E000F4120300E412030010120300B43500204D
:1093F00054170300E81E03007D8F0200C98E02008F
:10940000A5900200B8180300B41B0300AC130300BE
:10941000C78E0200070000000000000000000000EE
:109420000000000000000000060000000000000036
:10943000000000000000000000000000020000002A
:10944000000000001000000000000000000000000C
:1094500000000000000000000100FFFF010000000C
:1094600000000000010009000000000011000000E1
:1094700000000000000000000000000000000000EC
:109480000022815C19B9521C102AFAD301E0012094
:1094900070470020704780B5002818BF002905D00C
:1094A00002780B785208B2EB530F01D0002002BDB6
:1094B0000622491C401C01F06BFB401E8041C00F7E
:1094C00002BD01460A88102A00D0704730B593B01B
:1094D00003A8091D2C22FFF725F89DF8100040086D
:1094E0004FF6FF7503282C4621D001F039F89DF87E
:1094F0001000400802D002280ED018D200F07FF8E9
:10950000A8B1029800F1110104A8FFF7C4FF0028D8
:10951000F4D0BDF800400AE000F071F838B10298CC
:10952000411C04A800F036F90028F5D0F1E7BDF899
:109530000C100A204143DFF8080244520144881C01
:1095400004A90722FEF7EEFFAC420ED0BDF80C10C6
:10955000ADF83A10ADF83C4000218DF838100EA857
:1095600000F0E1F90EA8FFF7DAFD13B030BD70B5D9
:1095700004460D461022691C601C01F009FB50B91D
:10958000601CFFF77DFF30B1681CFFF779FF060014
:1095900002D0012600E0002605F1110104F11100BE
:1095A000FFF779FF617C4908022918BF03290AD017
:1095B000697C4908022918BF032904D0002120B979
:1095C0000E40304670BD0121FAE70126F9E73EB5AD
:1095D00004460D4600F0C4FF00F011F860B1BDF87C
:1095E0000000A842F8D002992046FFF7C0FF0028EB
:1095F000F2D0BDF800003EBD4FF6FF703EBD01AA9F
:109600006946072000F0B1BF10B50446142C02DAF9
:1096100000F07DFD10B94FF6FF7010BD0A20DFF895
:1096200020114443085B10BD38B50546142D0C4687
:1096300002DA00F06CFD10B943F2020032BD0A21DB
:10964000DFF8FC204D4351192046891C0722FEF704
:1096500069FF002032BD38B504460D4600F048F8D9
:1096600018B120882988884201D0002032BD082204
:10967000A91CA01C01F08CFA401E8041C00F32BD15
:109680001FB5044600F06CFFFFF7B9FF88B10298E0
:1096900000F146012046FFF7DEFF38B9029800F1DD
:1096A0002A012046FFF7D7FF0028EDD0BDF80000C3
:1096B00001E04FF6FF7004B010BDF8B54FF6FF742F
:1096C000A042054612D000271D4EB8B20A214843D9
:1096D000305AA84203D1B8B200F019FD20B97F1C5E
:1096E000B8B21428F1DB01E0B8B2F2BD2046F2BDF9
:1096F000018839B900228118897819B9521C082AC1
:10970000F9D301E00120704700207047142803DAE4
:109710000A220B4B50431952704738B50446FFF7E5
:10972000CCFF0546204601F03AF938B9142D05DA88
:109730000A21034B4D434FF6FF725A5332BD0000CE
:10974000682F002038B50D468CB0144600214A42DF
:109750000244D27B0DF80120491C1029F7D30D21BA
:1097600004A800F0BFFA00204342295C0DEB03027D
:10977000401C0328D177F7D3684646DF00204242D9
:109780000DEB020191F82F302354401C0328F6D32F
:109790000DB030BD3EB504460D4620784008022885
:1097A00001D000203EBD0322611C02A8FEF7BAFED4
:1097B0000322211D6846FEF7B5FE01AA6946284628
:1097C000FFF7C0FF032201A902A801F0E1F9401E42
:1097D0008041C00F3EBDFEE770B504460025DFF8AE
:1097E000C06405E006EB850120460A6990476D1CC0
:1097F000F0788542F6DB70BD10B5DFF8A444002395
:10980000002204F10C01201D00F080F9052806D18A
:109810004FF6FF70A0800021E160012002E0401EB1
:109820008041C00F607010BDF0B5044685B0A088BF
:10983000DFF86C54FFF741FF012760804FF6FF7699
:109840002278A968A878083A032A49D8DFE802F004
:10985000021D2A4EAB886878627A4AB951B1E26833
:10986000914207D10020A860A188A980E06038E07B
:10987000012A36D1002834D0A088984204BF217A2A
:1098800006292ED1FFF7B8FF2BE0607A48BB41B321
:10989000E068814225D1E8680021401EA960E860A7
:1098A000E1601EE0A0B1304600F0FCFEB0420FD1F6
:1098B000304600F0F9FEB0420AD100F021F90C2147
:1098C00000F023F82046FFF787FF00F017F9002784
:1098D000687828B1A088A988884208BFFFF78CFF64
:1098E00017B12046FFF778FF05B0F0BD0028F8D08B
:1098F00000F006F90D2100F008F8A068029020465B
:10990000FFF76AFF00F0FAF8EEE78DF80010ADF807
:109910000460ADF802607047002818BFFFF75CBF15
:10992000704759E758E757E710B500F098F850B17D
:109930002046FFF7C6FD204601F04FFB2046BDE85C
:109940001040FFF7ABBC10BD70B500F092FDDFF822
:109950005413DFF854430FF26435DFF850630C1BE7
:10996000E408240444F0010428B100F001FB03469C
:109970002A46314630E000F0EDFF30B100F0F8FA51
:1099800003462A4606F12C0126E001F003FB30B124
:1099900000F0EEFA03462A4606F158011CE001F0F9
:1099A0007EFC30B100F0E4FA03462A4606F1840159
:1099B00012E0FFF70BFC30B100F0DAFA03462A465A
:1099C00006F1B00108E000F0E6F950B100F0D0FA7D
:1099D00003462A4606F1DC012046FEF723FF03205A
:1099E00070BDDFF8BC024FF6FF71002281808260FB
:1099F0000021012241700270002070BDDFF8A0221A
:109A0000117809B908207047D178032901DB0420B7
:109A1000704702EB8103491C1861D1700020704728
:109A2000DFF87C221178002918BF01F020BB082044
:109A3000704780B5DFF868321A780AB9082002BD8D
:109A400001F040FB082808BF112002BDDFF85032AA
:109A50001A78002A18BF01F0CEB908207047DFF845
:109A600040120446087870478D4A1178002918BFC3
:109A7000FFF753BE082070470000000078B5884DFE
:109A8000287885B008B9082015E00120A8704FF6A5
:109A9000FF74204600F006FEA042064615D100F0F5
:109AA0002FF80C218DF80010ADF80440ADF80240FD
:109AB00000F024F8002006B070BD3046FFF72DFE00
:109AC00048B9304600F0EEFD0646A642F2D02878AE
:109AD0000028F2D1082000F04BFA03467148724C7E
:109AE00078A27349009600F002F80320E3E7001B18
:109AF000C008000440F00100FEF79CBE68466BE61B
:109B00000020A8701421684600F0ECB82DE9F34F4E
:109B10006349087885B014461D4608B9082051E00D
:109B20004FF6FF78404600F0BDFD0021009104276C
:109B300068A10197D1E90023CDE902238346CDF83E
:109B40000CD000F042F8002707284FF0FF36C1463E
:109B5000C24610D1052035E00098B84224BF074620
:109B6000D946B0423CBF0646DA46584600F09AFD58
:109B7000834600F02AF80028EED00528F5D0C3452A
:109B800011D1C145059916BFC2450520002009B174
:109B9000A1F80090069901B10F600CB1A4F800A0E3
:109BA00085B12E600EE0404C00F0E2F902463D48DF
:109BB0004049001BC00800045B4640F00100FEF76E
:109BC00031FE032007B0BDE8F08F01AB02AA0621E9
:109BD00000F08EBC78B5324E0546307887B008B9B3
:109BE00008205BE03DA0D0E90023CDE90523707893
:109BF00008B9FFF701FE707808B1B06808B1112408
:109C00004BE0B288F06895421ED110B3142168462B
:109C100000F068F808208DF8000000242846FFF7BF
:109C20004CFDADF8020006219DF810008DF80810DB
:109C300000F0FE008DF81000ADF804508DF80940DA
:109C40000394FFF75BFF28E010F1010F08BF132416
:109C500023D0401CF06006F1080205A9284600F058
:109C6000ACFC040019D0F1680020491E112C1CBF67
:109C7000862C072CB060F1600FD0204600F078F9F8
:109C800002460848084C0C49001BC00800042B463B
:109C900040F00100FEF7C6FD0324204608B070BD69
:109CA000183500208C130300E41203002410030075
:109CB000141E03005C1E0300281F0300706D5F6903
:109CC0006E697400706D5F70656572735F64656C5A
:109CD000657465000000000000000000010006003F
:109CE00024350020002201F02DBDFEE710B504460A
:109CF000A088FFF7E2FC60802046BDE81040FFF737
:109D000011BE000078B500BF95A0874DD0E90023B3
:109D100087B0CDE9002303E0304600F0C3FC288083
:109D20004FF6FF71288888422AD00022694600F049
:109D300044FC04002E88EFD002A81421FFF7D2FFC4
:109D4000112CADF80C601BD0862C03D106208DF8A9
:109D5000080012E0204600F00BF92B88734D74497F
:109D600002467448401BC008000440F00100FEF7A2
:109D700059FD07218DF80810049402A8FFF7B6FFDB
:109D800008B070BD684801884FF6FF72914218BF55
:109D9000FFF7B8BF704764494FF6FF700880002096
:109DA00070472DE9FE430546FFF72EFC4FF6FF7185
:109DB0008046884208BF43F2020037D00127DFF80F
:109DC00078916B46BAB20821404600F02DFE00267D
:109DD00004467F1C84BB019803210160021D811D84
:109DE00003232846B2DF040019D00C2C20D1012611
:109DF0000821404600F08BFE70B100F0B9F8034630
:109E00004C484A4C001BC00800044246494640F0FA
:109E10000100FEF707FD0324002ED2D105E04246E3
:109E20000821404600F07DFE04462046BDE8FE8342
:109E3000052CDDD10024DBE7072CF6D10C24F4E758
:109E40002DE9FC418046FFF7DFFB002600270324B5
:109E500001254FF6FF72904208D06A46082100F0B3
:109E6000E0FD18B9019887880468861D31463A4696
:109E7000234602E00021002203234046B1DF0428EC
:109E800008D008280BD00B2805D10025980708D545
:109E90000123F2E7112005B90B20BDE8F68100206F
:109EA000F9E7002908BF002AE4D122481F4B2349C3
:109EB000C01AC0080004424640F00100FEF7ACFCA6
:109EC000EAE7E0B5CDF808D0FFF79EFB01AA012133
:109ED00000F0A7FD08B100200EBD029800780EBD6D
:109EE00010B50346164C2046B3DF00284FF6FF722C
:109EF00011D000F03DF802460E480C4B1149C01A33
:109F0000C008000440F00100FEF786FC032010BDED
:109F10002088401C208018462188AFDF43F20301CF
:109F20008842F5D010BD0000FC350020E41203008B
:109F3000741C0300FC120300D4160300CC170300AA
:109F4000FE3500207C1D0300E0B500BF06A1D1E96D
:109F50000023CDE900236946002200F02EFB07BD57
:109F600001000100A028030001000100A428030053
:109F700080B500F003F800B90FA002BD10B50D497F
:109F800001F5947200E01A46914210D2531ADB1088
:109F900003EBD3735B1001EBC3031C68A042F2D345
:109FA000844238BF03F10801EED3586810BD002089
:109FB00010BD0000040C0300556E6B6E6F776E20B1
:109FC0006572726F7220636F6465000033B58BB089
:109FD0000021044600910C9880B1002529460CA868
:109FE00001F0EEFB38B10099684600EB4102958024
:109FF0000098401C00906D1C142DEFD3204669463C
:10A000002C22FEF78FFA0DB030BD0146954801F0C5
:10A01000D7BB002A18BF01F0AEBB01F0C2BB2DE9CF
:10A02000F84306468CB03088B4888E4D102806D090
:10A0300011283CD019285CD01A283ED064E0AA68C8
:10A04000D243009268466968FEF736FA009901A883
:10A05000FFF7BCFF4FF000080EE002A8002730F821
:10A060001890281D494600EB870001F09AFB7F1CE1
:10A070001E2FF6D308F1010801988045EDD3142C6A
:10A0800003DB042001F0CEFB3EE0214605F1080091
:10A0900001F071FB2146281D01F06DFBF07B0228C9
:10A0A00032D1214605F10C0001F065FB2CE0214680
:10A0B00005F1080001F075FB26E0367A3609042E1A
:10A0C000ACBF01220022214605F11800FFF7A1FFD5
:10A0D000022ECCBF01220022214605F11400FFF719
:10A0E00098FF022EACBF01220022214605F110008C
:10A0F00008E0307A40B9727AD20802F001022146B3
:10A1000005F11800FFF785FF0DB0BDE8F0830146AB
:10A110001429BCBF544801F053BB0020704738B528
:10A1200000F031F8002538B12146504801F048FBD5
:10A13000002814BF02250125284632BD38B500F09D
:10A1400022F8002538B12146494801F039FB0028A2
:10A1500014BF02250125284632BD10B500F013F8C2
:10A1600028B12146BDE81040424801F029BB10BD8E
:10A1700010B500F008F828B12146BDE810403E486F
:10A1800001F01EBB10BD0446C1E710B5FFF7FBFF91
:10A1900028B12146BDE81040384801F011BB10BD80
:10A1A00080B518212F4801F014FB182818BFC0B241
:10A1B00002BD38B504460D462846FFF726FF68B1B4
:10A1C0002046FFF7A4FF48B1264800EB8502214650
:10A1D00002F11C00BDE8344001F0F2BA002032BDAB
:10A1E00070B504460D4616462846FFF70EFF68B1C7
:10A1F0002046FFF78CFF48B132462146194800EB54
:10A200008503BDE8704003F11C0002E770BDF1B5A5
:10A210000C462000154601D10020F2BD0098002612
:10A2200060B100273946684601F0CAFA18B12946DC
:10A23000B8B2A047761C7F1C142FF3D33046F2BD72
:10A2400070B504460D461646FFF7DFFE40B10548DF
:10A2500000EB84033246D8692946BDE87040D6E752
:10A2600070BD0000A8310020AC310020B4310020C6
:10A27000B0310020B8310020BC310020C0310020B6
:10A280004FF6FF71418000F0F5BA04E000F5804020
:10A2900080B2704700BFA0F5804080B27047B0F533
:10A2A000404F05DB4FF6FF71884201D00120704717
:10A2B00000207047072818BF012808D0082818BFB9
:10A2C000052804D006281CBF0928042801D1012034
:10A2D00070470020704770B5DFF884538AB00020C3
:10A2E0002870CDE900004FF6FF74204602E001F02F
:10A2F000E4FA304601F02AFB0646A64233D0A6F522
:10A3000080406A4602A980B2FDF7CBFD48F20961A0
:10A3100088423046EBD0FFF7B8FFFDF774FD0446E6
:10A3200048F20760844202D1012129701BE0D4B1B8
:10A33000DFF83003DFF83053DFF83013401BC0087C
:10A3400000043346224640F00100FEF76BFA05A8F0
:10A350000FF258311422FEF7E5F8ADF818600794B3
:10A3600005A8FFF78DFF0AB070BD7CB504460D4609
:10A3700016462846FFF79EFF0021CDE9001128462A
:10A38000FFF788FF0146A4F580406B46324680B255
:10A39000FDF77AFD00B1052076BDF0B585B0054624
:10A3A00068461421FFF79EFCA889DFF8B442FFF746
:10A3B0006DFF0746ADF804704FF6FF762878401E13
:10A3C000022804D9C01E29D0401E3DD04BE0A889E8
:10A3D000FFF765FF28B9E889B0F5404F43DBB0428D
:10A3E00041D0E8898DF80800297803290CBF0120A5
:10A3F00000208DF80900A8680390686848B9082013
:10A400008DF800009DF8100040F001008DF810005C
:10A4100026E009228DF80020049021E0A889FFF7AA
:10A420003EFF00B3E889F0B9686830B90A208DF8BA
:10A430000000384601F041FA03E00B228DF80020BD
:10A440000290012020700BE0686818B913208DF885
:10A45000000003E014228DF800200290ADF80460A3
:10A460006846FFF70DFF207808B1FFF734FF05B00D
:10A47000F0BD30B57C4C7E487E4D87B0FDF761FB6A
:10A4800078490C1BE4082404024644F001042AB174
:10A4900029462046FEF7C0F9032027E0FDF763FBBD
:10A4A00038B1024605F144012046FEF7B5F9862091
:10A4B0001CE001F0C7F90021CDE900110DE002A96F
:10A4C00004A8FDF740FC0298848804A8FDF75FFC0F
:10A4D00004F58044A0B201F0DFF96A4604A94CF209
:10A4E0000700FDF7D8FC0028E9D0002007B030BDF8
:10A4F000F0B5B0F5807F85B006460F4615461C4680
:10A5000003DA3846FFF7D6FE08B9072017E002AA9B
:10A5100039463046FFF729FF20B9694602A8FDF702
:10A5200012FC08B105200AE0AF70009846882E8022
:10A530003CB90198686002A8FDF729FC002005B02D
:10A54000F0BD20680199B6003746B04238BF0646D4
:10A5500068683246FDF7E6FFBE42ECD20C20EEE71B
:10A5600045480021C0E90011704778B585B005461F
:10A570000C461646FFF79EFEE0B1A5F580403E4A28
:10A5800002A980B2FDF787FC20B9694602A8FDF751
:10A59000DAFB08B100200EE0B570009841883180E8
:10A5A000019870600099888800F58040208002A89A
:10A5B000FDF7EDFB012006B070BD70B5B0F5807FF2
:10A5C00086B005460E46144603DAB078FFF772FEF1
:10A5D00008B9072041E0A5F58040ADF80000B1784A
:10A5E000A1F58040ADF802002846716801913288DB
:10A5F000029203AAB178FFF7B8FE0528694603A8BE
:10A6000002D1FDF7E9FB01E0FDF7EBFB01000AD009
:10A6100048F20262811A11D0091F0DD0491E09D0DB
:10A62000891F07D00CE01CB1214603A8FDF741FCAF
:10A63000002012E0112010E086200EE010200CE037
:10A6400002460848084C0D49001BC00800042B4670
:10A6500040F00100FEF7E6F8032006B070BD0000F0
:10A66000003600207C130300E4120300C81D030021
:10A670009BA3020050160300E8350020CC1C030009
:10A680004FF6FF7001F008B980B5B0F5807F01DBAF
:10A69000072002BD01F002F9FFF71DFE002002BDF8
:10A6A00001F017B901F03FB901F050B907000000FF
:10A6B000000000000000000000000000000000009A
:10A6C0004FF6FF7101800022FF21817041720272FA
:10A6D0004260817A01F0FC018172704730B50A68EE
:10A6E000DFF8FC3300E0521C042A07D20C24544348
:10A6F0001D5B8542F7D10A60181930BD002030BDBE
:10A7000038B50D46002204460092694604E00098E0
:10A71000401C009069462046FFF7E0FF010008D08A
:10A720008878A84201BF8B7A13F0030F486800288D
:10A73000EDD1084632BD70B504460025DFF8A063B0
:10A7400007E0617A6918C9B206F1340001F06AF9CC
:10A750006D1C207A8542F4D32046BDE87040AFE7F7
:10A7600070B5044600250FF2104656F82510204615
:10A7700088476D1C042DF8D370BD81704260502154
:10A7800013FB01F189B2C91C891001807047FEB525
:10A7900004460FF2F430DFF84873DFF84853DFF86F
:10A7A0004863D0E90023CDE90023A0788DF80200AA
:10A7B00007F13400617A01F01FF9DFF830134D1B07
:10A7C000ED082D04024645F001052AB9627A3146AA
:10A7D0002846FEF721F84BE0237AA1786846FFF778
:10A7E000CCFF9DF80200012818BF062808D00728D2
:10A7F0000AD008280BD1019881880931890800E026
:10A800000121ADF8001002E01422ADF80020221D55
:10A8100020886946FFF7D1FE010006D0072828D01E
:10A82000112807D0862810D019E0A17A01F0FC0188
:10A83000A172FEBDA07A00F0FE0040F00200A072FE
:10A84000012087F830000020FEBDA17A01F0FD0153
:10A8500041F00101A172012187F83010FEBDFFF720
:10A8600087FB2388024606F140012846FDF7DAFF00
:10A870000320FEBD2DE9F841074685B0F968984CE4
:10A88000002600224FF00C0808FB02F02044436829
:10A890008B4203D0521C042AF6DB00203A78082AA7
:10A8A00005D0092A09D0132A08BF01260EE0797ABB
:10A8B00061B958B1FFF73FFF08E0797A31B928B1A3
:10A8C000827A416042F00202827206E03846FFF767
:10A8D00047FF94F83000002838D0002184F8301069
:10A8E000002508FB05F704F10A00C05D10F0030F16
:10A8F0000AD00121800784F8301001D4300003D041
:10A90000E019FFF744FF18B96D1C042DE9D31DE0D1
:10A910004FF6FF72ADF802208628E35BADF80430F5
:10A9200003D106208DF800000DE007228DF80020ED
:10A930000290FFF71DFBE35B6A4C6D49024600F095
:10A9400069F8FDF76FFF6846FFF70AFF06B0BDE83C
:10A95000F08100003EB50024614D0C206043284486
:10A96000FFF7AEFE641C032CF7D9502004210190A0
:10A97000009105F5C2734FF4A07205F1440105F191
:10A98000340000F0EDFF48B1FFF7F2FA02465748F5
:10A99000DFF8503170A100F0B3F803203EBD3EB5A2
:10A9A00000220546019201A904E00198401C019093
:10A9B00001A92846FFF792FE040014D0A17828468A
:10A9C00000F0A5F8002818BF0528EED0FFF7D0FA50
:10A9D0000246A078434C474900902B4600F01AF8F5
:10A9E000FDF728FF14E02846FFF74EFE002818BFA9
:10A9F00007280ED0FFF7BCFA03463C48394C3E49C5
:10AA0000001BC00800042A4640F00100FDF70AFFC1
:10AA100003203EBD3548001BC008000440F0010083
:10AA200070470023FFF764BD2DE9F84381465FEAD4
:10AA300003080D46164608BF0E204FD0072D18BF3D
:10AA4000082D02D10EB1052E01D3072046E0FFF7F5
:10AA500057FE002704001BD1FF214FF6FF70FFF7C0
:10AA60004FFE040012D0A4F80090A570607ADFF8C1
:10AA70007090FF2812D1314609F1340000F088FFB0
:10AA8000FF28607209D12046FFF71AFE112025E049
:10AA9000207AB042EAD00F2020E00127617A2672A6
:10AAA00009F1340000F0A8FF38B910480D4B627A64
:10AAB000124900F025F8032010E00246B3B22946FF
:10AAC0004046FFF75AFE47B1082D06D1B8F80000FE
:10AAD0008000811FD8F8040081800020BDE8F28347
:10AAE000D42C0020E412030028190300841303006F
:10AAF000141C0300141503006C1503004418030014
:10AB0000C01AC008000440F00100FDF785BE80B502
:10AB1000FFF7F6FD08B9052002BDFFF70CFE002087
:10AB200002BD70B50D46072D18BF082D0446164608
:10AB300003D13046FFF7B4FD08B9072070BD2946A0
:10AB40002046FFF7DDFD08B9052070BD0680857041
:10AB5000BDE870401BE60000504D5F42554646453B
:10AB6000525F494E495428292072657475726E658A
:10AB7000642025732E000000299802006BAF0200AC
:10AB8000859D0200519102000000000000000000BD
:10AB900003000020521E22BF13F8010B11F801CB55
:10ABA000B0EB0C00F6D0521C08BF10467047FEE711
:10ABB000FEF7B2BE38B5044610460022112908BF80
:10ABC0000122DFF8DC5420B1297B2046FFF708FB87
:10ABD0000022697A2046BDE83840FFF701BBD8B5AE
:10ABE00085B006460F46144668461421FFF77AF8EA
:10ABF0008DF80070ADF80240A0B2FEF705FDADF88B
:10AC00000400694630461422FDF78CFC06B0D0BD26
:10AC10002DE9F0420C001CBF112C082C8AB006460E
:10AC200015463ED0DFF87C04DFF87C74DFF87C94B6
:10AC3000C71BFF083F040D2C1DD13246494647F083
:10AC40000200FDF7E9FD3246032105A8FFF7C7FF23
:10AC500000F03CF825B12878C10748BF012000D496
:10AC60000220002141F201128DF808008DF80C102D
:10AC7000ADF80A2012E02046FFF77AF90246334683
:10AC800009F1B80147F00100FDF7CCFD324607217C
:10AC900005A8FFF7A4FF00F019F802946846FFF733
:10ACA00087FF0AB0BDE8F08238B515468AB00C4679
:10ACB0000246052105A8FFF792FF00F007F802946D
:10ACC00003956846FFF774FF0BB030BD684605A9D1
:10ACD0001422FDF727BC7EB569460022002300241C
:10ACE00081E81C00DFF8B853296900916A4692E8B0
:10ACF000580080E8580077BD2DE9FF4780460F4691
:10AD0000380091461D46DFF8984327D000264A4672
:10AD10003146404600F07AFB8246002251464046CA
:10AD2000FFF748FF5FEA0A0018BF082828D00B2861
:10AD300018BF0D2824D0112804D043F20201884204
:10AD40001ED01FE0E17A3A464046FFF749FAA17A61
:10AD50004A464046FFF744FA002725E06846FFF7D9
:10AD6000BAFF6A4600214046FFF79EFF207A009E08
:10AD7000002804BF9DF809000028C8D105201AE06A
:10AD8000574611E0DFF82073FFF7F2F80246DFF8CC
:10AD90001403DFF81C13C01BC0080004434640F036
:10ADA0000100FDF73FFD032725B1324651464046DD
:10ADB000FFF72EFF384604B0BDE8F0873EB50446E5
:10ADC0000D466846FFF787FF6A4629462046FFF78B
:10ADD0006BFFB84802680099204600F08CFA0546DF
:10ADE000012229462046FFF7E5FE009A2946204623
:10ADF000FFF70EFF37BDFEB50C00054601D10E2052
:10AE0000FEBDFFF79BF9070002D143F20200FEBD31
:10AE10002846FEF7F9FB21780646022F0CBF0120D9
:10AE2000002001F0FE01084320704FF6FF739E42A0
:10AE300014BF0821002100F0F700084320702846C5
:10AE4000FFF78BF9217801F0FD0141EA4001217003
:10AE50002846FFF78DF9217801F0FB0141EA8001D6
:10AE600021702846FFF791F970B92846FFF775F968
:10AE700060B16A4607213046FFF7D3FD30B901982B
:10AE800090F84410C80701D5102000E00020217878
:10AE900001F0EF01084320700020FEBD1CB500BF8B
:10AEA0008AA213788DF800300C466946FFF7A3FF9D
:10AEB00040B99DF80010207820EA0101481E804129
:10AEC000C00F16BD002016BD7CB5044620780528AD
:10AED00002D0122805D030E0A1686088FFF76EFF2D
:10AEE00073BD6F4908690025002608B901251EE0D9
:10AEF0006088FFF732F9D0B175A001788DF80010A5
:10AF0000207A400860F382018DF80010207A60F307
:10AF1000C3018DF80010207A800860F304118DF8C9
:10AF2000001069466088FFF7B9FF00B90126608804
:10AF3000012332462946FFF7DFFE2046FFF738FEA1
:10AF400073BD00213AE770B5554DA97A0446FFF765
:10AF500030F90646E97A2046FFF72BF901463246DA
:10AF60002046BDE870400123C6E610B500780838D9
:10AF7000032801D90B3803D1494C4F49207B32E0DB
:10AF800010BD10B504462078182802D1FFF708F943
:10AF9000207010BD10B5424C04F10900FFF7F1FF1D
:10AFA00004F10A00FFF7EDFF04F10B00FFF7E9FFE2
:10AFB00004F10C00FFF7E5FF207B18280BD139487E
:10AFC000394A3E49801AC008000440F00100FDF7EC
:10AFD00020FC032010BD002010BD10B5304C00F047
:10AFE00029FA207B34490022FFF72AF9607A344994
:10AFF000BDE810400022FFF723B9B0B302789107F3
:10B0000001D4130631D4C2F3021104292DDC02F05D
:10B01000F201322929D0417883788B4225D3072940
:10B0200023DB112B21DAC178C1F38003002B02BF8F
:10B030000079C0F38003002B17D1C1F3C003002BAC
:10B0400004BFC0F3C003002B0FD1D20701F00301EE
:10B0500006D4002908BF10F0030F06D10120704765
:10B06000002908BF10F0030FF8D10020704738B551
:10B0700004000B4D04D1012100202972286132BD4A
:10B08000FFF7BBFF48B1284621460522FDF74AFAE3
:10B09000012028722D61002032BD072032BD000042
:10B0A00040280020A4130300E41203002C0D030029
:10B0B000241D0300F435002043AF0200081A0300EA
:10B0C00047AF02000A460023002115E6E000000019
:10B0D0000000FEE7DFF8E0154978FFF76AB8DFF80F
:10B0E000D815C978FFF765B810B504466088FEF733
:10B0F0008BFAA0802046BDE81040FFF7E5BE30B5D2
:10B1000085B004460D4668460FF2E85100F097F806
:10B11000ADF80240029500F095F805B030BDF0B5ED
:10B1200085B004460D4616461F4668460FF2EC51A0
:10B1300000F085F8DFF880050178ADF802408DF861
:10B140000850ADF80A608DF80C7000222046FFF719
:10B1500047F800F077F805B0F0BD13460A46002125
:10B16000DDE72DE9F843DFF85045894621780646AA
:10B170009046FFF71EF8C0B33046FFF7ABFF70B341
:10B18000A1783046FFF715F8002814BF01270227E1
:10B1900006F58070072180B2FFF7B9FC040018BFE4
:10B1A000052C14D0DFF81455FEF7E2FE0246DFF856
:10B1B0001005DFF81015401BC0080004334640F0AE
:10B1C0000100FDF72FFB21463046FFF798FF43466D
:10B1D0004A463946304601B0BDE8F0439FE7424653
:10B1E00049463046BDE8F843B7E7BDE8F183F0B51E
:10B1F000DFF8C4740E461446397885B005463246E9
:10B20000FEF7EEFFCEB12200797818BF0122284662
:10B21000FEF7E6FF012CB9780CBF01220022284678
:10B22000FEF7DEFF68460FF2B84100F008F8ADF80F
:10B2300002508DF8084000F005F805B0F0BD14226A
:10B24000FDF770B968464FE718B585B0044614217C
:10B250006846FEF747FD04228DF80020ADF8024055
:10B2600010E018B585B002238DF800300488ADF8E1
:10B2700002404079C0F3800000B902208DF8080038
:10B280008DF80910FFF7DEFF06B010BD10B50446BB
:10B290002078182802D1FEF783FF207010BD10B56A
:10B2A000DFF814442046FFF7F1FF601CFFF7EEFFC4
:10B2B000A01CFFF7EBFFE01CFFF7E8FF2078182841
:10B2C0001CBF6078182805D0A07818281CBFE0782B
:10B2D00018280ED1DFF8E803DFF8E023DFF8E813E1
:10B2E000801AC008000440F00100FDF792FA032024
:10B2F00010BD002010BD2DE9F84B8BB080460F46E5
:10B300009146FEF70CFF0546202103A8FEF7EAFC54
:10B310000026012DDFF8A04309D1E1780022404644
:10B32000FEF75EFF3800009706D185263EE0280034
:10B33000F8D143F2020041E04046FEF765F94FF6CE
:10B34000FF7188420DD0012D0BD14046FFF7C7FE9B
:10B3500038B94046FFF778FF4046FFF7C0FE00B916
:10B36000852600980178CA0704D4211DCDF81890CD
:10B370000A911BE0852E19D008F5807000F0AAF91B
:10B38000112812D0DFF83813CC4FDFF840B3CF1BB1
:10B39000FF083F04A8B1FEF7EBFD024643465946BD
:10B3A00047F00100FDF73EFA032038B90022012DD5
:10B3B00008BF009A03AB314640467FDF0CB0BDE8C2
:10B3C000F08B02985021FCF7B9FE02980570CDF879
:10B3D00018904046029901F1340203924B1C01F18E
:10B3E000180207920893221D0A921131FEF71CF9E8
:10B3F0000028DAD0FEF7BCFD024643460BF164019B
:10B4000047F00200FDF70EFA0820D7E738B50546E9
:10B410000C46FEF784FE012808D1002044B12146E5
:10B4200028467EDF042803D1112032BD43F20200FA
:10B4300032BD00002DE9F84F054688B0A0489F496D
:10B44000DFF88C829C4E401AC0084FEA00492888D9
:10B45000112849F0010A4FF6FF7741F2060B09D097
:10B46000132811D0142829D0192879D01A2800F0CF
:10B4700000811DE1297AA8883D290CBF41F23D01D8
:10B480004FF488510022F1E0A888FEF748FE012819
:10B4900008D1287AC1074CBF01220222A8880121C5
:10B4A000FFF7A5FEAC8800BFA1A16846FFF7C7FE65
:10B4B00005F10801ADF802400291F7E005F1100036
:10B4C000FEF7DEF8002406463146A888B94203D1CB
:10B4D000FEF79AF8064601E0FEF718F9A888002260
:10B4E0000121FFF784FE3046B84215D001AA07219A
:10B4F000FFF797FA80B90298A97E00F13407C807D0
:10B500000AD5397CC80706D405F1100107F11200ED
:10B51000FEF7A1F800B13C46A8880023002221468E
:10B5200086DF0746082F05D1414649F00200FDF7A6
:10B5300070F9BDE077B1FEF71BFD00960246AB88BF
:10B5400008F170015046FDF775F9A8883946FFF7F4
:10B55000D6FDADE0A87EC107FBD5002CF9D192E065
:10B56000297AA888002940F07E803178814600221F
:10B57000FEF736FE687A0024C0F3800090B109F52A
:10B58000807000F0A7F806000ED0FEF7F1FC02462E
:10B590004B4608F1E0015046FDF744F93146484674
:10B5A000FFF7ADFD002142E04846FEF72DF8394691
:10B5B0008842834626D10298FEF709F8B8428346AE
:10B5C0000FD059464846FEF7A1F84846FFF787FDD9
:10B5D000C0B94846FFF738FE4846FFF780FD88B9F6
:10B5E000E0E7FFF74DF8B842834606D108F59E71B3
:10B5F0005046FDF70EF90421D1E759464846FEF7BB
:10B6000085F8012409F580705A46072180B2FFF7BA
:10B6100088FA07000AD0862F0DD103A83AA1FFF7B8
:10B620000EFEADF80E9003A8FFF75EFD0121281D68
:10B63000FFF717FE3CE0FEF79BFC0246CDF800B09A
:10B640004B4608F5B8715046FDF7F4F839464846C0
:10B65000FFF755FD0021281DFFF703FE44B35846B0
:10B66000FEF75BF824E06A7A02F00302FFF779FD47
:10B670001EE07178A888FEF79CFDC8B9A888FEF77F
:10B680006CFD28B90122A8885946FFF766FD0FE036
:10B690003178A8880022FEF7A3FD02208DF8000073
:10B6A0000022A988ADF80210ADF80820FFF7CAFD06
:10B6B00009B0BDE8F08F0000FC270020E412030071
:10B6C0009C130300E41A030098190300601403009C
:10B6D0004804030001AB0122072180B2FFF7A4B99F
:10B6E0000100000000000000000000000000000059
:10B6F0000000000007000000000000000000000043
:10B700000000000000000000060000000000000033
:10B710000000000000000000000000000300000026
:10B720000000000000000000000000000000000019
:10B730000500000000000000000000000000000004
:10B740000000000000B500BF130096469446103973
:10B7500028BFA0E80C50FAD85FEA417C28BF0CC093
:10B7600048BF40F8042BC90728BF20F8022B48BF68
:10B7700000F8012B00BD0B46012103F01F025B09FD
:10B78000914000EB8300FCF77FBE10B50A4602F043
:10B790001F0401215209A14000EB8200FCF768FE62
:10B7A0000AE00B46012103F01F0291405B09C943E7
:10B7B00000EB8300FCF780BEE04000F0010010BD0C
:10B7C0004A0950F8220001F01F01C84000F00100B2
:10B7D0007047F8B504460D46002600E0761C681E4A
:10B7E0004009401C86421AD254F82600C04390FA01
:10B7F000A0F004E054F82610C94391FAA1F0B0FA81
:10B8000080F7202F3CBF07EB4617AF42E6D2394600
:10B810002046FFF7BAFF0028ECD13846F2BD284693
:10B82000F2BDFEE71FB5694600220023002481E82F
:10B830001C0002906A46002144F2010000F00AF95F
:10B840001FBDFEE740214248FEF74CBA70B50446E2
:10B850004FF6FF75AC4208462E460AD14FF4807170
:10B86000FFF7B7FF064680B2B0F5807F09D12E46BC
:10B8700007E02146B1F5807F03DAFFF786FF00B9C4
:10B880002646B0B270BD0A460146B1F5807FBCBF06
:10B890001046FFF786BF70472D49D7E710B54FF622
:10B8A000FF718842044606D02A49FFF7CFFFA04225
:10B8B00001D1012010BD002010BD38B5244D044633
:10B8C0002946FFF7E0FF05F120012046BDE834409E
:10B8D000D9E70146B0F5807FBCBF1D48FFF770BFB8
:10B8E000002070470146B0F5807FBCBF1948FFF7C4
:10B8F00067BF0020704770B54FF6FF76B0420D4627
:10B9000008BF002404D0441CA0B2B0F5807F08DA40
:10B91000A1B22846FFF754FF08B1A0B270BD641C65
:10B92000F2E7304670BD38B5094D294601E0294699
:10B930002046FFF7E0FF4FF6FF718842044603D030
:10B94000FFF7D0FF0028F2D1204632BD0149D2E7EF
:10B9500098340020B8340020BFF35F8FFFF730BF6A
:10B9600070B5002818BF002910D07BB1059C049D3C
:10B9700004FB05F6B24209D3002D18BF002C05D0F8
:10B98000016043608560C460002070BD072070BD09
:10B99000F8B504001CBF206800280D462AD0606856
:10B9A00040B3FF2700260AE0F9B2204600F03AF83B
:10B9B0007F1CF8B2F1B28842F6D3FF27761CA0684C
:10B9C000F1B2814216D26068FFF7DFFE401E80416F
:10B9D000C00FBFF35F8FF8B209D0FF2808BF37460A
:10B9E000F1B2F8B2091A491CA942E7D1F2BDFF2809
:10B9F000E4D0DEE7FF20F2BD38B504001CBF2068AC
:10BA000000280D460CD06068002818BFFF2907D019
:10BA1000FFF7A2FF20B1E06821684543481932BD15
:10BA2000002032BD38B504001CBF206800280D4638
:10BA30000FD06068002818BFFF290AD0FFF78CFFDD
:10BA400038B16068BFF35F8F2946BDE83440FFF727
:10BA5000A8BE31BD72B6FDF74BF8FCF713FF002806
:10BA6000FBD11048104C1149114D041BE40824046B
:10BA700044F00100FCF7CDFED5F8E400C10700D585
:10BA800000BE0C4944F00200FCF7C3FEBFF34F8F29
:10BA90002968094801F4E06101432960BFF34F8F31
:10BAA00000BFFDE724130300E4120300C8220300D3
:10BAB0000CED00E0D42203000400FA0500F1804000
:10BAC00000F5C0400068012818BF002070471CB571
:10BAD000044600F00AF804F18044002104F5C04453
:10BAE000016020680090009913BD1BE101681F29C7
:10BAF00002D84FF0A040704701F01F010160DFF84D
:10BB0000BC0470472DE9F14181B0089D099C0E46A7
:10BB10001746984601A8FFF7E9FF46EA470601994C
:10BB200046EA880646EA052600EB810046EA044616
:10BB3000C0F80067BDE8F38111B581B00C4601A8DB
:10BB4000FFF7D4FF00F010F8019B00F5E06221F44C
:10BB5000403142F8231000F007F800F5E06041EAB8
:10BB6000044140F8221013BD00F5E061019A51F83C
:10BB70002210704701B56846FFF7B8FFD0F81005EE
:10BB80000099C84000F0010002BD7CB50FF24C44A2
:10BB90000346D4E90056CDE9005608E05DF823508D
:10BBA000D5F8206542F8046BC5F820655B1C0D18BC
:10BBB000AB42F3D373BD014600204A0904D0012AE9
:10BBC00008BF4FF6FF7001E04FF0FF3001F01F019A
:10BBD000C84000F0010070470246012002F0070350
:10BBE000D2089840895C08407047DFF8D4130844B5
:10BBF00090F93020082A8041C00F7047DFF8C01349
:10BC0000084490F93020082A01DB01207047002009
:10BC10007047DFF8AC13084490F93020D043C00FD0
:10BC2000704710B500F005F81843FFE781F864008D
:10BC300010BDDFF88C2302EBD001012491F86430B1
:10BC400000F0070004FA00F07047F0B50346140056
:10BC50004FF0FF3007BF08240C2500240825DFF82B
:10BC6000606300E0641CAC420ED256F8247017F1F9
:10BC7000010FF7D1F01880F8304046F8241012B9BF
:10BC8000301980F85830204640B2F0BDDFF830134C
:10BC90004FF0FF3241F820200828A4BF081880F890
:10BCA0005820704738B5DFF8184394F86A0008B197
:10BCB000082032BD0025E8B2FFF77DFF28B1E9B2C8
:10BCC00021444FF0FF3081F830006D1CEAB2302A79
:10BCD000F1DB0025E8B2FFF7D9FF6D1CE8B20C28B4
:10BCE000F8DB062104F16400FDF7FCFFDFF8D40265
:10BCF000C02180F80613402202604FF4BE70FFF7A7
:10BD0000E6FEDFF8C4124FF000400860012284F81C
:10BD10006A20002032BDDFF8A80290F86A0000B166
:10BD20000120704700F1804000F5C0407047FEB52B
:10BD300005460F461646FFF76CFF002408B108249D
:10BD400051E0BA78520802F0010231462846FFF766
:10BD50007CFF064616F1010F44D0B87841071ED487
:10BD6000C00711D528464FF0A0411F2884BF00F01E
:10BD70001F0001F5407101EB8000D0F8001721F0A1
:10BD80000201C0F8001707E0002101940091002291
:10BD90007B782846FFF7B6FE2846FFF742FFB878C3
:10BDA000810714D53978894A894852F826300340EA
:10BDB00042F826302D0252F8263005F47C5509044D
:10BDC0001D4301F440310D4342F826500BE07C48FE
:10BDD0003B578119304491F8582042EA831280F889
:10BDE000582000E004242046FEBDF8B50E46044667
:10BDF000734DFFF703FF2F19B0B197F930002844B6
:10BE000090F958000006800F032804D12046FFF760
:10BE1000B1FE10B103E0012801D1022100E00321AD
:10BE20002046BDE8F44087E62046FFF7DEFED8B1A5
:10BE300097F93040654850F8241041F0010140F86E
:10BE40002410A00000F5807000B2FFF740FE002E25
:10BE50001EBF97F9301055F82100002804D00121A9
:10BE6000594801FA04F40460F1BD80B5FFF782FE81
:10BE700000B10120C0B202BD2DE9FC470025CDE98B
:10BE800000554FF480760127082430B2FFF716FEE4
:10BE900000281EBF4C480068384203D030B2FFF77C
:10BEA00016FE3D437F00361D641EEED14FF4BE707A
:10BEB000FFF704FE38B14FF4BE70FFF708FE00F044
:10BEC00089F845F000452806DFF8F48016D00126F1
:10BED00000273E4C2E420DD054F8270054F827106E
:10BEE00058F82720130005D0090C01F00301C0F316
:10BEF0000520904776007F1C082FEBD3002D5BD5E3
:10BF00004FF0000A4FF0A04908EB0A0090F960508A
:10BF100015F1010F43D0ECB224F0C004694620466D
:10BF2000FFF75AFE00283AD02D06AD0F204600F04C
:10BF30001F061F2892BF4946304609F5407101EBA4
:10BF40008000D0F800773F0C07F00307022F0CBFEA
:10BF5000032102212046FFF7EFFD20461F2892BF54
:10BF600009F5A461304609F50261012202FA00F0E8
:10BF7000086008EB040090F9301058F821201000F8
:10BF80000DD0032D08D0022F02D1012D07D103E0DF
:10BF9000032F08BF022D02D12946204690470AF1FF
:10BFA000010ABAF1040FAFD300F014F8009800288A
:10BFB00004BF01980028A3D1BDE8F3870003005017
:10BFC0002833002000E100E00463004010650040D9
:10BFD000FFC0FCFF6A4602210020D6E500000050A9
:10BFE0000003005081B00022425040580090009958
:10BFF00001B070474058A7E1D0F80403084018BFCB
:10C000000120C0B27047C0F81425C0F80C15704765
:10C01000C0F80815C0F810257047D0F81805C0B250
:10C02000704701681F2902D84FF0A040704701F007
:10C030001F010160DFF89C0470472DE9F14181B0D8
:10C04000089D099C0E461746984601A8FFF7E9FF90
:10C0500046EA4706019946EA880646EA052600EBC5
:10C06000810046EA0446C0F80067BDE8F381E0B508
:10C0700000F00FF8012105E0E0B50B460021002299
:10C0800001910092FFF7D9FF07BDE0B500F001F87C
:10C09000F8E700210191009100230122704701B5CA
:10C0A0006846FFF7BEFF009901228A40C0F80825C4
:10C0B00001BD0000F8B504460D46217917462C2332
:10C0C000DFF8142413FB01F3D61896F82A0008B100
:10C0D0000820F2BD0FF2304050F82110206800F027
:10C0E00018FA08B11120F2BD286810F1010F04D030
:10C0F000FFF7D5FF2868FFF7BAFF686810F1010F56
:10C100001CBF0021FFF7B8FF2068A969C0F82415FB
:10C110006A7D297D0A43C0F86C2529686A68FFF7A3
:10C1200072FF287D012814D1A86810F1010F1CBFEF
:10C130000021FFF7A1FFE86810F1010F04D0FFF71D
:10C14000AEFFE868FFF793FFAA68E9682068FFF789
:10C150005FFF776029697068316060B32D7F206868
:10C160004FF48E71FFF73EFF20684FF4A271FFF786
:10C1700039FF2068DFF86413C0F8041300030016C9
:10C180006901002803D4DFF85823115406E0DFF8D2
:10C19000543300F00F00184400F8041C2168090310
:10C1A000091608D4012201F01F00DFF83C33824059
:10C1B000490943F8212004202168C1F80005002224
:10C1C0000020B261F06186F829007061012186F8D3
:10C1D0002A10F2BD2DE9F84304462C202279DFF81D
:10C1E000F81242438D1821680023C1F800356868B1
:10C1F00098B1DFF8F822C1F80823090309160CD416
:10C20000012201F01F00DFF8E8328240490943F8BB
:10C210002120BFF34F8FBFF36F8F4FF0FF322068A5
:10C22000D0F80C65D0F81475D0F80885D0F81095C2
:10C230001146FFF7E8FE4FF0FF3220681146FFF786
:10C24000E7FE16F1010F1CBF3046FFF71EFF17F186
:10C25000010F1CBF3846FFF718FF19F1010F1CBF73
:10C260004846FFF712FF18F1010F1CBF4046FFF7C9
:10C270000CFF206800F069F9002085F82A0068604A
:10C28000BDE8F18338B50D4604464FF48E71FFF7D3
:10C29000A9FEA868296A405C2A6A521C2A62C4F86E
:10C2A0001C0531BD2DE9F041054617462A790E4699
:10C2B0002C20DFF8241242438C18284600F03EF868
:10C2C00008B1112038E06761A6602062002184F87F
:10C2D00028104FF48E712868FFF784FE286801212A
:10C2E000816000262146FFF7CDFF606818BB2F68EC
:10C2F000D4F8148003E021463846FFF7C3FF206AD4
:10C3000040450CD24FF48E713846FFF773FE00287B
:10C31000F1D194F828000028F4D00F2609E028680D
:10C320004FF48E71FFF766FE0028F8D029680120CF
:10C33000C860002060613046BDE8F081027966493E
:10C340002C2042438818406900B10120C0B27047D8
:10C3500070B50D460446A86900284FF48471204644
:10C3600005D1FFF73FFE2046BDE8704055E6FFF7D8
:10C3700039FE6E6A2046FFF750FEE9688855686A04
:10C38000401C686270BD1FB50346012402918DF800
:10C3900000400192684619685A6890471FBDF8B579
:10C3A000024600238DF8003002919068019053619D
:10C3B000684611685268904705B000BD7FB54D4D85
:10C3C0004FF400712846FFF717FE434C4FF40176F7
:10C3D00008B34FF4927100F095F8E0B14FF4927108
:10C3E0002846FFF7FFFDC5F8086300F085F8022036
:10C3F0008DF800000021D5F88004C5F88004039072
:10C40000E161A06962680290A161E0682168019021
:10C410006846904727E004212846FFF7EDFD10B35A
:10C420004FF4847100F06EF8E8B121462846FFF71A
:10C430008FFFA069616A884215D1E06940B1E26866
:10C44000616AA06100232069E060E361636207E044
:10C4500000F052F8C5F808630020E268A061616A44
:10C460002046FFF790FF4FF48E7100F04BF8B0B10B
:10C470006069216A814207D294F8280020B92146D8
:10C480002846FFF7FFFE0AE04FF48E712846FFF7BB
:10C49000A9FD606918B161692046FFF780FF4FF47C
:10C4A000A27100F02FF890B14FF4A2712846FFF767
:10C4B00099FD94F8290008B101212960A06930B1E3
:10C4C0000021A1612046E268616AFFF75CFF7FBD41
:10C4D00000000000000300509433002080000200A0
:10C4E00000E400E018ED00E000E100E0840202005A
:10C4F00080E100E00020004094F8290008B9012103
:10C5000069607047284675E5BDC30200134801689D
:10C51000084738B50D461249884214D100248DF8D9
:10C5200000406846FCF7D2FB0C490879002811BF8F
:10C5300001240D60012008719DF80000FCF7E1FB6B
:10C540000CB1112032BD002032BD0549884203D113
:10C55000024800220260027170470000E0350020AE
:10C560000020004081B000224250405800900099C5
:10C5700001B070474058BAE1C0F80C15C0F8142556
:10C580007047C0F80815C0F81025704701681F29CA
:10C5900002D84FF0A040704701F01F010160DFF8A2
:10C5A000800470472DE9F14181B0089D099C0E4639
:10C5B0001746984601A8FFF7E9FF46EA47060199A2
:10C5C00046EA880646EA052600EB810046EA04466C
:10C5D000C0F80067BDE8F381E0B500F00FF8012175
:10C5E00005E0E0B50B460021002201910092FFF723
:10C5F000D9FF07BDE0B500F001F8F8E7002101918F
:10C60000009100230122704701B56846FFF7BEFF85
:10C61000009901228A40C0F8082501BDF8B50446FA
:10C620000D46217917462423DFF8F82313FB01F385
:10C63000D61896F8200008B10820F2BD0FF210407D
:10C6400050F821102068FFF764FF08B11120F2BDF7
:10C65000286810F1010F04D0FFF7D6FF2868FFF714
:10C66000BBFF686810F1010F1CBF0021FFF7B9FF85
:10C670002068A969C0F824156A7D297D0A43C0F89D
:10C680006C2529686A68FFF777FF287D012814D197
:10C69000A86810F1010F1CBF0021FFF7A2FFE86896
:10C6A00010F1010F04D0FFF7AFFFE868FFF794FF28
:10C6B000AA68E9682068FFF764FF776070682969F5
:10C6C0003160002838D02D7F20684FF48871FFF743
:10C6D00049FF20684FF49071FFF744FF20684FF442
:10C6E0009271FFF73FFF20684FF4A271FFF73AFF06
:10C6F00000F0F3F82068DFF83013C0F804130003EB
:10C7000000166901002803D4DFF82023115406E045
:10C71000DFF81C3300F00F00184400F8041C2168F7
:10C720000903091608D4012201F01F00DFF80433C1
:10C730008240490943F8212008202168C1F80005FA
:10C740000022B261F2617261012086F820000020AF
:10C75000F2BD2DE9F047064624213279DFF8C40204
:10C760004A438518316868680C4698B1DFF8B822EA
:10C77000C1F80823090309160CD4012201F01F0097
:10C78000DFF8B4328240490943F82120BFF34F8FCC
:10C79000BFF36F8FD4F8000220F02000C4F800022D
:10C7A000AA6932B14FF4A2712046FFF7DBFE0122E5
:10C7B00062604FF4AC712046FFF7D4FE0120E060C8
:10C7C0004FF4AC712046FFF7D5FE0028F8D0A869D9
:10C7D00030B14FF4A2712046FFF7CCFE0028EFD015
:10C7E0000020C4F800054FF0FF323068D0F80C7517
:10C7F000D0F81485D0F80895D0F810A51146FFF7A9
:10C80000BBFE4FF0FF3230681146FFF7BAFE17F15A
:10C81000010F1CBF3846FFF7EDFE18F1010F1CBFDA
:10C820004046FFF7E7FE1AF1010F1CBF5046FFF725
:10C83000E1FE19F1010F1CBF4846FFF7DBFE204661
:10C84000FFF783FE002085F820006860BDE8F087D0
:10C85000F8B50446174622790E4624207149424312
:10C860008D1806F06041B1F1005F01D01020F2BDDB
:10C87000204600F036F808B11120F2BD4FF4907157
:10C880006F61AE6000262068FFF76CFE00F025F8AF
:10C8900068692168AB6801F244521360506001225C
:10C8A0008A606868B8B920684FF49071FFF762FE3B
:10C8B000074600F03BF8002F08BF0028F3D008B16E
:10C8C0000F2606E021680120C86000F02FF800283C
:10C8D000FBD0002068613046F2BD20684FF4AC7197
:10C8E00040E602794F49242042438818406900B14C
:10C8F0000120C0B270471FB50346012402918DF894
:10C9000000400192684619685A6890471FBDF8B503
:10C91000024600238DF80030029190680190536127
:10C92000684611685268904705B000BD20684FF412
:10C93000AC711FE638B5414D84B04FF4927100F0F0
:10C9400083F8384CC0B14FF4927100F07FF80220A8
:10C950008DF800000021D5F88004C5F8800403900C
:10C96000D5F83C0562680290A161E161E068216848
:10C9700001906846904721E04FF4887100F064F818
:10C98000E0B14FF4887100F061F8D5F83C15A0696A
:10C99000814213D1E268E06960B1D5F8000220F06D
:10C9A0002000C5F80002E0692369A061E36000206F
:10C9B000E06100E0A0612046FFF79DFF4FF4A27107
:10C9C00000F042F870B14FF4A27100F03FF8A06996
:10C9D00040B10021A161E1612046D5F83C15E26833
:10C9E000FFF789FF4FF4907100F02EF848B14FF433
:10C9F000907100F02BF80121E960606908B100F046
:10CA00001FF84FF4AC7100F01FF838B14FF4AC715F
:10CA100000F01CF8606908B100F012F805B030BDF4
:10CA200000030050D83400201003420000E400E06E
:10CA300018ED00E000E100E080E100E000200040AF
:10CA4000D5F84C15204662E7284693E5284689E547
:10CA500035C902002DE9F845054643F2020669B9D9
:10CA60006946FCF7F3FFB0421CBF0028FEF7DAFE70
:10CA70009DF80000C0F34000002844D10021284662
:10CA8000FCF7D7FF040018BF112C3CD0DFF8E003FF
:10CA9000DFF8E073DFF8E083C71BFF083F040D2CCD
:10CAA00047F0020A12D12A4641465046FBF7B4FE2F
:10CAB0001321284676DF30B3FDF75AFA02462B469B
:10CAC00008F174015046FBF7ADFE1CE00B2C03D1BE
:10CAD0002A4608F1AC0104E0B44206D12A4608F522
