:020000040002F8
:107000001087002039470300C38C0200353F03007E
:1070100043970200CBA202002BA502000000000053
:10702000000000000000000000000000A9A4020011
:10703000E7B0020000000000CDA402005BB3020034
:107040009F010300D7C90200E515030083CC0200AD
:107050003BD502005BE20200D9060300BFEB020051
:10706000370203001B030300630803006B3F0300A8
:1070700099410300BF420300CB420300D5480300FF
:10708000D7480300E5A20200D9480300DB4803000B
:10709000DD480300DF480300E1D00200E1480300BF
:1070A000E3480300E5480300E7480300E94803001C
:1070B000EB480300ED480300000000000000000062
:1070C000EF480300F1480300F3480300F5480300CC
:1070D000F7480300F9480300FB480300FD4803009C
:1070E000FF480300014903000349030000000000BA
:1070F00000000000054903000000000007490300EC
:10710000000000000000000000000000000000007F
:10711000000000000000000000000000000000006F
:10712000000000000000000000000000000000005F
:10713000000000000000000000000000000000004F
:10714000000000000000000000000000000000003F
:10715000000000000000000000000000000000002F
:10716000000000000000000000000000000000001F
:10717000000000000000000000000000000000000F
:1071800000000000000000000000000000000000FF
:1071900000000000000000000000000000000000EF
:1071A00000000000000000000000000000000000DF
:1071B00000000000000000000000000000000000CF
:1071C00000000000000000000000000000000000BF
:1071D00000000000000000000000000000000000AF
:1071E000000000000000000000000000000000009F
:1071F000000000000000000000000000000000008F
:1072000000F00300401E8041C00F704738B50446AF
:107210000025DFF8BC0B00EB8501496809B1204669
:1072200088476D1C042DF4D331BD884205D2006817
:1072300010F1010F01D001207047002070474188F4
:1072400000EB81000C30704738B504460D46FFF75F
:10725000F6FF854201D2022032BDA1884FF6FF72AF
:1072600091421FBF20880028A06810F1010F01D1B2
:10727000012032BD002032BD68B10168DFF8542B17
:10728000914208D14068DFF8701B401A04D0401EBC
:1072900001D101207047032070472DE9F0410D46D0
:1072A00002211446298000F1080600F58058DFF815
:1072B0004C7B0DE0B068396E814238BF3866298852
:1072C00072885118C91C29803046FFF7B8FF06465E
:1072D00041463046FFF7A9FF68B141463046FFF707
:1072E000B3FF0100E6D00CB1012121700228E6D1E4
:1072F0004FF480602880BDE8F0818A7D032A04DB9A
:107300000389CA88D318DB1C03814289C988521AB1
:10731000D31E43817047000080B50020DFF8DC1ADF
:1073200002A2096C009008230BE00000DEC0ADDE75
:10733000FF011EF180B50146002000905FF00803B8
:1073400001A200F03EF902BDDEC0ADDEFE011EF17D
:1073500070B5C01C80B240F2FF32904202DB48F2AE
:10736000086070BD002340F201461425DFF88C4A06
:107370005D432C44227832B9228965891218AA18F3
:1073800092B2B24203DB5B1C012BEEDD05E00B8009
:10739000618940186081002070BD48F2066070BDB0
:1073A000142210B5DFF8543A514319444C89201A7D
:1073B000C01E488110BD70B50C461421DFF83C2A70
:1073C000484310444168206801F5805518B901F11F
:1073D000080603E03046FFF732FF064629463046EE
:1073E000FFF723FF58B129463046FFF72DFF18B1AC
:1073F000022804D0F2D2EDE72660012070BD002003
:1074000070BD7CB506460C467068DFF8F05920B3B5
:10741000DFF86C2AD368984224BF126982421CD3D9
:10742000FFF7EEFEC8B13089298E884201BF70682F
:1074300031688268914210D1002114232A1D4B43E8
:10744000D25882423CBF02F58052904203D3491C7D
:107450000129F2DD1AE0218010E0002020800021C7
:10746000009120886946FFF7A6FF48B1009832686E
:1074700081689142F5D17060298E3181012076BDFD
:107480002088401C208080B20128E8DD002076BDE5
:107490002DE9F04100F04EFB17461E4610B948F2A8
:1074A000016030E0002F18BF002E06D148F20460C2
:1074B00029E03060B188491CB180B088022820DA08
:1074C0001421484318F800000028F3D1B088314651
:1074D000FFF771FF0028ECD03068002C1EBF8288B7
:1074E00023889A42F2D1002D1EBF02882B889A422F
:1074F000ECD1816839607860B8F8300038810020BC
:1075000001E048F20960BDE8F08110B50146DFF8FE
:107510009C0A00F0A5FD04461C2100F00FFE204649
:1075200010BD0146DFF8840A00F0BCBD38B50C463A
:1075300000250146009504230FF68C2200F041F847
:1075400010B148F20D6032BD1420DFF8B02844437A
:10755000101901210174002032BD70B5DFF89C487C
:10756000618D142041436518DFF8440AE96829B9A0
:10757000042684F828600023696807E002210522B8
:10758000A4F8441084F828200023216C0122BDE8CF
:10759000704000F0BBBE1CB5DFF86008C16AC26A6B
:1075A0004B88032180F82810DB1C016CB0F84400E4
:1075B00000241B0401EB800100949B0B00F001F8F8
:1075C00016BDDFF8EC0900F023BE80B5DFF82C080B
:1075D00000F12C01408DFFF7EEFE10B1BDE8014037
:1075E000D9E7BDE80140B8E72DE9F04FDFF80C58C6
:1075F0000646686E85B030B905F5847105F1F8006E
:1076000000F060FD686614276A6E0FF6C0191378E3
:10761000DFF89C495B1E052B48F2096A48F20E60B0
:1076200041F61D58314600F2C081DFE813F0060034
:107630006B006B00E900E900270111B10020E8634D
:107640001DE11179032943D8DFE801F03E261A0233
:10765000002010712C1D286CFFF76CFE698D2A6CC0
:107660004F43291DCB592B64E25105F10802B5F8AF
:107670004410D1530223A5F844300021E95527E0F6
:10768000002010710221A5F844100023296C01226A
:10769000204600F03BFE1BE0002007FB00F16A5C87
:1076A000022A0AD0401C0128F7DD012085F83800A5
:1076B0000021E96300F0C7F9A0E0002068542A1D0A
:1076C0005058FFF737FE03E001201071FFF724FE4A
:1076D000002800F0AA810020E86348F20D6400F061
:1076E000B2F9696E01940A78521E052A00F2898166
:1076F000DFE812F084017D01740168015D0106007C
:1077000005217CE11646B28A5743EF1921B1314673
:107710003846FFF7F2FDB2E079683A8901EB820B57
:10772000B17D06295ED8DFE801F04F102F25420613
:107730000400444657E00620B075B5F85C10686D4B
:10774000FFF7F4FE04004ED151E0307803280CBF5F
:1077500005200620B07504230020009006F10802E1
:107760000BF10401204600F053FD002838D048F208
:107770000D6438E00120B075002100910BF10C017F
:10778000F38832699B000CE03069002814BF0320A5
:107790000120B07504230020009006F10C020BF1CB
:1077A0000801204600F034FD0028E0D118E0002058
:1077B000686505F15000B169296505F15C01FFF7C5
:1077C00020FE08B954468AE70220B07500210091D6
:1077D0000423321D5946204600F01AFD0028C6D168
:1077E000002404E0044631463846FFF786FD002CAD
:1077F00000F01B8100F027F9444500D1002470E718
:10780000002914463BD12179E9B1022901D002D3E4
:1078100030E04446EBE705F148036A460021A01D2D
:10782000FFF736FE040006D1B5F84C100198FFF7BB
:107830007DFE044604E005F148000021C0E9001186
:107840005445D4D1E5E7022101A80022217100238B
:10785000964680E80C40E16801916946FFF7D1FD4A
:1078600050B102988188E18002882281BDF8001021
:10787000FFF75CFE0446BAE75446B8E711B14FF48F
:1078800006442CE795F83410B1B1002285F8342075
:1078900095F82810491E0629ECD8DFE801F0604869
:1078A000817E04330500E5E70720002185F82800E4
:1078B000E962FFF731FDDDE795F828100729E7D8E1
:1078C000DFE801F03804042A0905054AE0E707204B
:1078D00085F82800E8E7698D79432A1D286C5358FC
:1078E0002B642C1D05F1080260500223B5F84400FA
:1078F000505205F11002A5F84430002050540621E2
:1079000085F82810062085F82800291D688D474332
:10791000C859FFF70FFDADE7EA6AB5F84410508883
:107920004118C91CA5F84410022185F82810FFF75A
:107930004CFE9FE7288E401C288600216985002088
:1079400005F1320207FB00F1695C491E8941C90F4C
:107950001154401C0128F5DD012085F82800002184
:1079600005F10C0405F13202505C68B105F13203F7
:1079700000225A5407FB01F2A058002802BF05F16B
:107980001003985C01280ED0491C0129EADD002073
:1079900085F828006885E8623BE7FFF7DEFD69E7C8
:1079A000FFF7F9FD66E76985C1E7044697E604201D
:1079B0008DF800000022C988ADF80C10ADF80E203B
:1079C00002921EE003228DF80020C888ADF80C005A
:1079D0000889ADF80E00C968029112E0022200F099
:1079E00027F8887D062814BF0021012103E0012229
:1079F00000F01EF800218DF8101002E000218DF833
:107A000000106846FFF702FC0020686605F58471E7
:107A100005F1F80000F082FB012105F1680000F09B
:107A20006FFD002600287FF4E7AD05B0BDE8F08FBC
:107A30008DF800200889ADF80C008888ADF80E009C
:107A4000C8680290704768464946142200F06ABD33
:107A500080B50121DFF85C0500F03AFD10B9BDE802
:107A60000240C1E501BD4068BEE52DE9FE4300F0DE
:107A700061F8994610B948F2016059E015B948F229
:107A8000046055E028884FF6FF7188421ABF688865
:107A9000002848F203604BD0287910F0030F18BF7C
:107AA00048F2026044D132B9AF686946B8B2FFF714
:107AB0004FFC20B13CE01088ADF80000578801A8C9
:107AC000FFF723FD060007D1BDF80010B8B2FFF79D
:107AD00067FC48F207602BE086F800900020B07544
:107AE000BDF80010B18201216868306108F16000C2
:107AF00000F0FAFCF060B9F1030F28883081698842
:107B0000B180F78003D10420B0752168B1610020F5
:107B1000708101A8FFF705FD3CB100206060F168AD
:107B20002160A072B8F830102181FFF791FF00208A
:107B3000BDE8FE83DFF8C482044698F838000D469D
:107B4000704710B5A24A1168042902D148F20B60AF
:107B500010BD136802EB830401216060104600F041
:107B6000C3FC002010BD2DE9F84FDFF8904294F8D7
:107B7000381009B100F0BBB804F13C0000F0CCFCB7
:107B8000002840F0DD80D0F8F80FDFF82C2410F149
:107B9000010F04BFDFF8240400681168526810F177
:107BA000010F04BF10464843DFF8D4221346A0F566
:107BB00040511861D1600022DFF80414184600F02B
:107BC000FBFA002840F0BD801C238C2204F16C01DC
:107BD00004F1F800002500F00DFAA94600274FF047
:107BE0000308CB46DFF89802C1684FEA0B42681CD5
:107BF00001EB121A80B200901421694366185046B6
:107C0000FFF73AFBF0B1012802D0032827D053E058
:107C10005FEA090006D002203070216C716030816B
:107C20006585009DC4F840A0002204F1440150463F
:107C3000FFF733FBB4F8440002280CBF04200820EF
:107C4000074339E03070C6F804A006F1100206F1CF
:107C500008015046FFF721FB47F0020721E0DAF860
:107C6000000010F1010F1CBF5A49884213D10120B6
:107C70005AF8201011F1010F0DD1401CB0F5806FA2
:107C8000F6D3206C78B102213170C6F804A031819E
:107C90006585009D0EE0C6F804A00320A8F1010848
:107CA0003070009D08E00220C4F840A0A4F8440011
:107CB0004FF0010947F001070BF1010B1FFA8BF0A0
:107CC00002288FDD1FFA88F00228B8BF0027FFB214
:107CD000002F18BF022F02D0062F03D00CE048F26D
:107CE0000A602EE0012084F838000021E1630FF2E1
:107CF000F020FFF78BFA23E000F09BF810B948F270
:107D000007601EE00121012F18BF032F01700AD068
:107D1000052F18BF072F0DD0092F06D00A2F06D028
:107D20000B2F02D007E0002202E0032102E0022232
:107D3000027100E001716846FFF7F3FBFFF788FE70
:107D40000020BDE8F28F7CB504000D4618BF002D61
:107D500002D148F2046076BD6946FFF752FB98B144
:107D6000BDF80030474A666814204343D01801210B
:107D70000C3000F0B9FB2E600122606800F10C01AC
:107D80006960A272002076BD48F2096076BD1CB51C
:107D9000040000D134E06946FFF733FBA8B1BDF819
:107DA0000020384814214A438118C86800281CBFA5
:107DB000A07A002806D0C868401EC8600021A172C1
:107DC000002016BD48F2056016BD48F2096016BDD8
:107DD0005C7E0020DEC0ADDE022305E048F20460D8
:107DE000704700B9FAE7032300223EE6254904461E
:107DF00091F8380070470000FE011EF1187600204F
:107E000048F2046016BD1CB5FFF7F0FF00B913E09F
:107E10004FF6FF718C4202D148F2036016BD00F0AC
:107E200008F800B90BE00521017001220271C4803D
:107E300008E06846FFF769BB48F2016016BD48F2EA
:107E4000076016BD6846FFF76CFBFFF701FE0020D8
:107E500016BD1CB50B4C94F8380000B9ECE7FFF7E1
:107E6000E8FF00B9EBE7062101706846FFF759FB10
:107E700094F8280010B1012184F83410E5E70000DF
:107E8000546000201876002003B581B002A901A833
:107E9000FFF7FEFA0EBD01B513460A4669460020FB
:107EA00004E001B513460A4600216846FFF7F0FAE0
:107EB00002BD002818BF002900D18FE700680860C4
:107EC000002070472DE9F843DFF8F880044698F861
:107ED000380010B948F2016065E014B948F2046056
:107EE00061E01221204600F029F9032020800026BD
:107EF0004FF0140909FB06F008EB00073D8978896B
:107F000045197868FFF7B8F9032802D12088411E87
:107F100021806288F86821898218628078894118F6
:107F20002181A08961896918C5F58065ADB2854256
:107F3000618138BF0546B0B208F1040109FB00F0C9
:107F4000A581085800F1080500F5805706E0A088D3
:107F5000401CA0802846FFF772F90546394628469E
:107F6000FFF763F9D8B139462846FFF76DF90028C5
:107F7000EDD0022809D0F1D2E088401CE080698869
:107F8000E0890818C01CE081E4E7E088401CE0803C
:107F90007D1BE08900EBA5010122E1812274761CA2
:107FA000022EA7DB0020BDE8F2830000107700203E
:107FB0005460002080760020100000101410001083
:107FC0009C410300187600200000FFFF0000000025
:107FD00000000000000000000000000000000000A1
:107FE0000000000000000000000000000000000091
:107FF0000000000050B509B90E2050BD144694FB96
:10800000F3F603FB16440CB1092050BD01608460F7
:10801000002141608281C381002050BD81B050E8C1
:10802000022FC188B2EB324F4FF0000317BF92B25C
:1080300041EA014142EA014104E04268B2EB324FB9
:1080400008BF012340E80212002AE8D18DF8003071
:108050009DF80000002814BF0020112001B07047D7
:108060003CB550E8015FAAB2C3891A4483899A4299
:1080700028BFD21A03899A4202BFBFF32F8F002470
:1080800007E0C2EA050240E80123002BE9D14FF0E6
:10809000010400F03AF81AB100680988084436BDB6
:1080A000002036BD0A8849888A4209D150E8011F5C
:1080B000C1EA014140E80112002AF7D101207047CE
:1080C000002070473CB550E8025F1FFAA5F2C38854
:1080D0009A4202BFBFF32F8F00240DE0C3891A44D8
:1080E00083899A4228BFD21AC5EA024240E8022395
:1080F000002BE8D14FF0010400F007F81AB1006836
:108100004988084436BD002036BD01958DF80040F1
:10811000019B0B609DF80020704700000A88498889
:108120008A4209D150E8021FC1EA214140E8021207
:10813000002AF7D10120704700207047002200F08C
:10814000FDB9F0B40246106895681318506803EB47
:108150005004C0071BD54D4419E013F8017B05F806
:10816000017B491EF9D190B113F8011BC6F38106BA
:10817000032E08BF13F8016B01EB06214942294485
:10818000801C11F8016B05F8016B401EF9D1A34268
:108190000ED013F8016B16F0030104BF13F8011B96
:1081A000C91C30090F28DCD113F8010B0F30D8E7B8
:1081B000F0BC02F10C00704738B50D46DFF8F8113D
:1081C000DFF8F8410FF218230C1BE408240444F0F4
:1081D0000104DFF8EC1128B90E25009520460FF2B6
:1081E000142205E02DB90E20009020460FF20C223B
:1081F00005E0056011462A68BDE83840104700F0E8
:1082000019FB0E2032BD5146384600F013BB00006A
:108210002DE9FC4700F06BF80FF2F41900F060F85C
:1082200016461D4647F0010714B900F053F804E064
:108230003EB90E2000904B467AA2FFF7E4FF0E20D5
:1082400041E0206818B900F057F808203BE025B954
:10825000092000904B4657A20BE060684068B5FBD0
:10826000F0F100FB115040B1092000904B460AF19B
:108270005402FFF7C8FF092025E018F0030F0DD1C5
:1082800016F003000ED12A464146204600F09AF827
:1082900080B900F01AF80AF1A40207E000F015F81E
:1082A00062A203E000F011F80AF18002FFF7ABFFD1
:1082B000102008E00A9800902B4620462468E568C4
:1082C00032464146A847BDE8F687102000904B464D
:1082D000704700000E2300934FEA090345A2704740
:1082E000DFF8DCA0C71BFF083F0488467047044640
:1082F0003148324F70470000082100914FEA0903CE
:1083000040A25146384600F095BA00002DE9FC47DE
:10831000FFF7EDFF0FF22C18DFF8A490C71BFF0842
:108320003F040E4615469A4647F001074CB90E2306
:10833000009349464FEA08032EA2FFF765FF0E207F
:1083400036E0206840B90821009143462DA24946F5
:10835000FFF75AFF08202BE045B90920009043465B
:1083600014A24946FFF750FF092021E06068026827
:10837000511E0E420BD16A433146204600F022F8CE
:1083800078B910200090434609F1F40204E010206F
:108390000090434609F1CC024946FFF735FF102013
:1083A00006E0204624682A46256953463146A847F8
:1083B000BDE8F6876C656E00F42E0300B42E030052
:1083C0002C260300C368994207D300695118491E3F
:1083D00088428041C043C00F7047002070470000B2
:1083E0006E72665F6673746F726167655F696E69EE
:1083F00074000000705F667300000000705F6170C1
:1084000069000000705F66732D3E705F61706900E7
:108410006E72665F6673746F726167655F777269AB
:1084200074650000705F73726300000061646472C1
:108430005F69735F616C69676E6564333228646578
:10844000737429006E72665F6673746F726167651C
:108450005F6572617365000010B5024652E8000F57
:108460000C4642E8004393F0000FF7D110BD000026
:1084700010B5024652E8000F40EA010442E800430A
:1084800093F0000FF6D110BD10B5024652E8004F30
:1084900044EA010042E8000393F0000FF6D110BD5A
:1084A00010B5024652E8000F00EA010442E800431A
:1084B00093F0000FF6D110BD10B5024652E8004F00
:1084C00004EA010042E8000393F0000FF6D110BD6A
:1084D00010B5024652E8000F00EB010442E80043E9
:1084E00093F0000FF6D110BD10B5024652E8004FD0
:1084F00004EB010042E8000393F0000FF6D110BD39
:1085000010B5024652E8004FA4EB010042E8000318
:1085100093F0000FF6D110BD0121A9E70121B3E7C7
:108520000021BDE74AB1000011F8013B521E00F8DE
:10853000013B1CBF11F8013BF8E77047401810F0F1
:10854000030308D0C91A1FD3DB0748BF00F8012D69
:1085500028BF20F8022D130030B4144615461039F8
:1085600028BF20E93C00FAD8490728BF20E90C00C1
:1085700048BF40F8042D890028BF20F8022D48BFCD
:1085800000F8012D30BC7047C91818BF00F8012D44
:10859000CB0728BF00F8012D7047430080B5DFF8F6
:1085A0007825DFF878050021117000F0D5FA20B9A0
:1085B0000FF2985000F07CFB002002BDDFF8600550
:1085C000DFF86015401AC008704738B5044689B115
:1085D000FFF7F4FF2568DFF85025002100E0491C73
:1085E000814205D232F82130AB42F8D1216001E05E
:1085F000052032BD002032BD01B56846FFF7E5FF1A
:1086000028B9DFF82805009950F8310002BD002094
:1086100002BD0000491EDFF81425032902EBC0004B
:108620000BD8DFE801F0020406080220704704209E
:1086300070470079704740797047002070470246C4
:1086400000201368C3F3800292B103F003000128F5
:1086500007D0022801BF086800EB9350801C086017
:1086600005E00A68C3F383108218921C0A60012097
:10867000704780B50021DFF8B804FFF7EDFE80F306
:10868000100002BD2DE9F84185B00D4600218DF89E
:1086900000109046DFF880740446684600F016FB30
:1086A00078682860A61C3AE0054602980199800D7A
:1086B000C01C01EB900125E0019907F10C0001F0CD
:1086C000FF0100EB810001A9FFF7B9FF0028F3D1FA
:1086D000019A07F10C0100F0D9F90199491C012810
:1086E0000191F5D90299BDF80E0001F003010129AD
:1086F00002D00229D8D006E0054602980199C0F3BD
:1087000083104118019107F21440FFF709FF08B1E7
:108710000198B860294607F21C40FFF7E5FE79682A
:10872000B868C1F580714118B14216D2012107F233
:108730001C40FFF7D9FE07F58360FFF7EFFE07F255
:108740001440FFF7EBFEB868019007F10C0100F050
:10875000FF00002501EB8000B5E7B8F1000F05D060
:10876000A40104F4707444F0050402E0A40544F08C
:10877000060407F10C00397940F821407868361872
:108780009DF800007E6000F0BCFA012006B0BDE854
:10879000F0812DE9FC470446884615469A46012299
:1087A00069465046FFF76EFFDFF86C6348B30098E8
:1087B000801C002106F10C0207E055F8217000F042
:1087C000FF0342F82370401C491C5145F5D3009D1E
:1087D000FFF74FFF06F10C0900F043F8E40049F8F9
:1087E000270024F4707444EA8A14C4F3090406F1DF
:1087F0000C0044EA882405F0FF0544F0010440F829
:108800002540307818B100F03DF80028FBD1BDE8D4
:10881000F38700230022BCE780B50092012300F01B
:1088200012F801BDE0B5009201936A460223FFF7FA
:10883000B0FF07BD1FB5069C00920193029403236D
:1088400000F001F81FBD6A46A3E77FB5089D099EA9
:1088500000920193029503960423FFF7F4FF05B0FD
:1088600060BD6F1C000407F0FF0740EA144070472A
:10887000A94881684068814201D1012070470020E9
:10888000704700002DE9F04385B0FFF7F1FFF8B91C
:10889000A14EC6F81804BFF34F8F06F10C01B06863
:1088A000009000F0FF0001EB800005E006F10C00F5
:1088B00001F0FF0100EB81006946FFF7C0FE48B1FF
:1088C000D6F8180430B9706800998142EED3B060D0
:1088D0000020D2E00020009A06F10C0100F0D6F84A
:1088E0000099491C01280091F5D902998B4801F0A3
:1088F0000301022943D1029D0299AD0D2F46502D4F
:10890000A8BF502565F39F51029105F1080100F0C1
:1089100025F95FEA00084FD000F068F900F0B0F8E0
:10892000009901F0FF01C1F58070800006F10C0292
:10893000A84202EB810117D228B9A94606F10C0121
:108940000024002503E0814606F10C042D1A5FFA8D
:1089500089F908234A46404600F09EF94CB109F1D6
:108960000803EAB2214601E008232A46404600F007
:1089700093F90098FF1C00EB9700009039E00299F2
:1089800001F0030101295DD10299029AC1F383111B
:108990000529DABF029901F470714FF4C07122F415
:1089A0007072114302910299C1F38311891C8900ED
:1089B00000F0D4F85FEA000844D000F017F900F0A6
:1089C0005FF8082700240FE00098411C009106F191
:1089D0000C0500F0FF0005EB80013B4604224046F9
:1089E00000F05AF93F1D641C0298C0F383108442C2
:1089F000EAD3D6F81044D6F8180470B1404600F017
:108A0000F9F835E0E0684179012904D1226813685A
:108A1000414620469847E0680468002CF2D1404661
:108A200000F0E8F800208DF8040001A800F04EF9ED
:108A3000D6F8180408B90098B0609DF8040000F05A
:108A400060F915E0D6F8104405E021688A682046F0
:108A50009047E0680468002CF7D13648DFF8C4205E
:108A600035A1801AC008000440F00200FFF7D1FED3
:108A7000FFF7FEFE401E8041C00F05B0BDE8F08349
:108A80000023082202A9404600F006B902F0FF02C6
:108A900051F8221002AA42F82010401C704730B54D
:108AA000024600201C4BD3F8101400E0096839B1CD
:108AB000C9680C798442F9D1401C0A2803DAF2E72C
:108AC00010F1010F02D14FF0FF3030BDD1680871B5
:108AD000D468D3F8101419B9C3F81024216030BD3C
:108AE000CD6829682160D3F81034D9680A6030BD98
:108AF00010B50948D0F810440121017008E0E16880
:108B000001224A712046226851688847E06804685B
:108B1000002CF4D110BD000070700020044603004A
:108B20007C2F0300B42E030000000000B42E0300CD
:108B30008C740020FC2E03004261636B656E6473CD
:108B400020666C757368656400000000407A002040
:108B50007F000000447E002000F0ECB82DE9F041D9
:108B600005460F462E8A00F0FCF8361F040002D19D
:108B70000020BDE8F081F71900200121FF1C2071C1
:108B80006171A046B7FBF6F7E680FFB27F1EC8F81A
:108B90000050002607E06179491C6171C8F80000A7
:108BA00005608046761CBE4208D2284600F0D9F8FF
:108BB0000028F0D1204600F003F8D9E72046D8E796
:108BC000F8B501460D464C79601E002200E0521CAB
:108BD0002D688242FBD3002605E00F68284600F08E
:108BE000E3F83946761CA642F7D3F1BD0121001DFA
:108BF000FFF77ABC1CB504460121201DFFF780FC5D
:108C000000909DF8000018B92046BDE81640D7E74F
:108C100013BD2DE9F0471446B0F806804279256867
:108C200046465643361F5F1903F1040CBE42BCFB97
:108C3000F8F234BFF31A2B4608FB12CC2360002A4B
:108C400001E00068521EFCD1A8EB0C029A46934248
:108C5000089F4FF0000988BF92460E4605461C4605
:108C600016E005EB0C00001D06EB09033900524627
:108C70000EBF194601461846FFF754FCA4EB0A0440
:108C8000D1442D68A24644454FF0000C88BFC2462F
:108C9000002CE6D1BDE8F0871CB50192002402E06B
:108CA0001CB501920124009401AAFFF7B2FF13BD85
:108CB00080680021816001614161C16041600160A3
:108CC0007047FEE7EFF3108072B6704738B5044680
:108CD000FFF7F8FF134A916871B9012393601249B5
:108CE000124B1D680D4015601960596851604FF0B6
:108CF000FF325A60002100E00121217000B962B604
:108D000031BD10B5074CA16859B150B9FFF7DAFF72
:108D1000074922680A6063684B600021A16000B9BE
:108D200062B610BDA87E0020FC06FFBD80E100E019
:108D300000E100E010B508B90E2010BD03684268DC
:108D400081681A60891A03E013685C1C146019704A
:108D50000B46591EDBB20268002BF5D100201071C2
:108D600010BD38B5044600258DF800506846FFF761
:108D7000ADFF21686268086882420FD2421E0A6015
:108D80001578208AE36845431D44A36820689A1A31
:108D90000379D2B29A4238BF1A460A719DF8000090
:108DA000FFF7AFFF284632BD38B50C460021054617
:108DB0008DF800106846FFF789FF286801684A1C93
:108DC0000260E8682A8A241AB4FBF2F20A709DF85D
:108DD0000000FFF796FF31BDEFF31180402181F3D2
:108DE000118870472DE9FC4B804615460F46994681
:108DF000A80000F061FC5FEA000B79D0482000F089
:108E00005BFC040071D00A9EC4F830B0A522A90012
:108E1000584600F079FC206B00EB85010D1FED0832
:108E200000217A5C631883F83420785C10B1491C07
:108E30000429F6D3002084F83700022E0B9F88BF48
:108E40000226E662A663E063C6F10306201D002148
:108E5000016104F11800002101612461A6616462CE
:108E60000020206484F844004A464146E80000F0AF
:108E700069FC206007B13C6000F097FCDFF82857E0
:108E8000D5F88800401CC5F888001426A86A98BB4D
:108E9000AC62D5F88800012837D14FF0000905F100
:108EA0002C0006FB09F1084400F096FC09F10109C9
:108EB000B9F1020FF3D905F1B40000F08DFC05F112
:108EC000C80000F089FC284600F086FC05F114007B
:108ED00000F082FC05F1740000F07EFC05F1B400A6
:108EE000A86605F1C801E9660FE05846C046C046CD
:108EF0004FF0FF30BDE8F68BD5F8940028B9E06A52
:108F0000A96ACA6A904228BFAC6200F026F8012222
:108F1000E06AD5F8901082401143C5F8901005F131
:108F20002C0306FB00F2211D981800F062FC00F0F3
:108F300044FCD5F8940040B1A86AC16AE06A814255
:108F400003D200F004F800F013F80120D2E7DFF8B4
:108F50006C264FF0805111607047D5F8A400401C7A
:108F6000C5F8A4007047DFF854164FF08050086031
:108F700040BFBFF34F8FBFF36F8F704738B500F01E
:108F800039F8DFF8245604B9AC6A00F0FCF900F0B7
:108F900034F808B100F044F8211D05F1740000F028
:108FA00028FC94F84400012804BF002184F84410F0
:108FB00000F003FCD5F8940028B100F0F6FB00F0B7
:108FC00077FA00F0FAFBA96A8C4212D1D5F8940026
:108FD00020B100F049FAFFF7CBFF31BD686FD5F83B
:108FE0008810884202D10020A86231BDBDE831401E
:108FF0004AE131BD044600F0D8BB78B9E16A1423D8
:1090000005F12C024B43D05840B9D5F8900001220D
:1090100002FA01F120EA0101C5F89010A06A704738
:1090200004F1180000F00BBC10B50146DFF87426FF
:109030004B69002002F17404A34204D1896A914271
:1090400001D001B9012010BD38B504001EBFDFF802
:109050005456A86A844214D000F0A7FB2046FFF7BC
:10906000E3FF50B100F08FF900F07DF9E06AA96AE2
:10907000CA6A904201D3FFF776FFBDE8314000F0A5
:109080009CBB31BD3EB5DFF81C460FF2246104F1F4
:10909000AC0001900025009500233C220FF26530C2
:1090A000FFF7A0FE012808BF00F0DCFB01280FD16C
:1090B000402080F311884FF0FF31C4F8A810012040
:1090C000C4F89400C4F88C50BDE8374000F050BBA1
:1090D00037BDDFF8D005D0F8B010491CC0F8B0108B
:1090E0007047DFF8C424D2F89000936A0021012869
:1090F000D86A88BF012118B9D06A012800D809B1FF
:1091000000207047D2F8A810D2F88C00081A7047D7
:1091100070B500F04AFBDFF89064D6F8B000401E4E
:10912000C6F8B0000024D6F8B000002500283ED1D3
:10913000D6F88800F0B93AE0F068C468FFF770FF2D
:1091400000F021F9E06AD6F8901001228240114324
:10915000C6F89010142206F12C035043211D184428
:1091600000F047FBE06AB16ACA6A904224BF01215D
:10917000C6F89C1030680028DED10CB100F098F9D8
:10918000D6F898404CB100F023F810B10120C6F891
:109190009C00641EF7D1C6F89850D6F89C0030B1F8
:1091A000DFF894144FF080500125FFF7E0FEF7E15F
:1091B00001E0000000BFDFF8EC04D0F88C0070473D
:1091C000DFF8E014D1F88C208018C1F88C007047CB
:1091D000F8B500F054F80026002845D1D7F88C40A7
:1091E000641CC7F88C400AD1B86EF96EB966F8668F
:1091F000D7F8A000401CC7F8A00000F059F9D7F834
:10920000A800844235D323E0B96EC868C568686891
:10921000844226D300F0A4F8A86A18B105F118001A
:1092200000F00DFBE86AD7F890100122824011434C
:10923000C7F89010142207F12C035043291D18443D
:1092400000F0D7FAE86AB96ACA6A904228BF0126D4
:10925000B86E00680028D7D14FF0FF31C7F8A810CA
:1092600007E0C7F8A80004E0D7F89800401CC7F84A
:109270009800D7F89C0000B101263046F2BDDFF817
:109280002474D7F8B0007047DFF81814D1F8B00094
:1092900018B10122C1F89C207047C1F89C0014202D
:1092A000D1F89020B2FA82F252424243881800F577
:1092B000267000F10803426852689A4204BF426077
:1092C00052684260D2688A62704710B5DFF8D822CF
:1092D000936A0C4603F1180100F098FAFFE7204664
:1092E000BDE810400121A9E138B51446DFF8B822E5
:1092F000936A0D4603F1180100F07BFA0CB14FF0B0
:10930000FF3521462846BDE8344097E138B5C168AD
:10931000DFF89442CD6805F1180000F090FAD4F817
:10932000B00058B900F01CF8EA6AD4F890000121A6
:10933000914000F03BF9291D981802E005F1180151
:10934000204600F056FAA06AC16AE86A81423ABF34
:109350000125C4F89C50002500F0AAF8284632BD2B
:10936000281D00F06CBAE26AD5F890000121914006
:109370000843C5F8900005F12C0314204243211D39
:10938000981800F036BA201D00F059BADFF814130F
:10939000D1F8A0200260D1F88C1041607047F8B578
:1093A00004460D4600F001FADFF8F802D0F88C1000
:1093B00062682E688B1A16F1010F0DD0D0F8A070DC
:1093C000D4F800C0674501D0914209D2B34205D21A
:1093D000F31A2B6000F009F8002402E00020286056
:1093E000012400F0EAF92046F2BDD0F8A010216077
:1093F000D0F88C0060607047DFF8A8120120C1F837
:109400009C00704738B5DFF8A04112E000F0CDF9BC
:10941000206AC568FFF7A4FFD4F88800401EC4F88E
:109420008800206F401E206700F0C7F9284600F032
:1094300035F8206F0028E9D1E06A022803D300F054
:1094400013F8FFF795FD00F0C9FCFFF74AFE02286C
:10945000EFD3FFF73EFEFFF744FE022828BF00F0DF
:109460008BFFFFF755FEE4E7DFF8CC014FF08051AA
:1094700001607047DFF82C2211680120002904BF29
:10948000D2F89C10002901D000207047516FD2F80B
:109490008820521E914208BF0220704710B5044632
:1094A000206BC046C0462046BDE8104000F028B9F9
:1094B0003D49886E006810B94FF0FF3203E0886EB6
:1094C000C268D0684268C1F8A8207047DFF8D4119C
:1094D000D1F8940008B901207047D1F8B00008B95C
:1094E0000220704700207047F8B5044600218CB375
:1094F000E06BE26AA36B401E9A42E0632AD048BB4D
:10950000FFF741FF01251426DFF8987170B9E16A71
:1095100007F12C0206FB01F3D05838B9D7F89000B8
:1095200005FA01F120EA0101C7F8901007F12C02B9
:10953000A06BE062C0F10300A061E06AD7F8901070
:1095400085400D434643C7F89050211D901900F007
:1095500050F901210846F2BD70B504460D4600F0F1
:1095600024F9114EB06A006C48B9B06A012180F844
:10957000441025B1284600F061F8FFF7F4FC00F034
:109580001CF900F012F9B06A056C2DB1B16A002C1B
:1095900014BF0020681E08640020B16A81F84400EE
:1095A00000F00BF9284670BD247700200843C4F86A
:1095B000900004F12C0314204243704704ED00E0B6
:1095C000F8B505460C46FFF707FC064695F844003B
:1095D000022185F844102A6C521C01282A641BD1F0
:1095E000FFF74DFE38B9FFF7BBFEEA6A00F017F847
:1095F000291D981802E005F11801384600F0F9F825
:10960000B86AC16AE86A814206D2002C19BF0120FB
:1096100020600121C7F89C1086F31188F1BDD7F8AE
:109620009000012191400843C7F8900007F12C03F6
:10963000142042437047000004ED00E0F8B5194DD6
:10964000D5F88C700C46A96A0646081D00F0F7F89C
:1096500040B9A86AD5F89010C06A012282409143AF
:10966000C5F8901016F1010F05D124B1A86A011DAB
:1096700005F1740018E0A86AF6194660BE42A86AAF
:1096800005D2011DE86EBDE8F44000F0BFB8011D31
:10969000A86E00F0BBF8D5F8A800864238BFC5F820
:1096A000A860F1BD24770020BDE8F44000F0A1B827
:1096B00049444C450000000038B50446002514F02C
:1096C000070F04D004F1080004F00704041BFFF79F
:1096D00000FD0C49486820B901F11002D208D200FF
:1096E0004A6040F6F87208682418944238BFA042D5
:1096F00002D24B680C601D18FFF70AFD284632BDE8
:10970000704700006860002062F30F2262F31F427E
:1097100000B500BF130096469446103928BFA0E854
:109720000C50FAD85FEA417C28BF0CC048BF40F813
:10973000042BC90728BF20F8022B48BF00F8012BD3
:1097400000BDFEE723A31B6840F8081C40F8202C4E
:1097500040F8043C6FF002020FF20D0140F80C1CBF
:1097600040F8242D20387047402080F31188FEE710
:1097700010B5164CE020A07400F0E6FD144900205E
:109780000860A26F42F47002A267D4F8240240F08D
:109790004040C4F82402216841F01001216000F02B
:1097A0006FFE402080F31188FEE7402080F311888F
:1097B00007480168491C0160704705490868401E58
:1097C000086008BF80F311887047000010ED00E0CA
:1097D000F87E0020000000014FF0FF3200F1080188
:1097E00082604160C16000F10802026100210160F5
:1097F000704710B542684A6093688B6094686160F6
:10980000916008610168491C016010BD30B50A68AB
:1098100012F1010F08BF036907D000F1080300E04F
:1098200023465C682568AA42FAD25A684A60916069
:109830008B60596008610168491C016030BD436854
:10984000016982689A60836842685A604A68824205
:1098500004BF83684B60002202610868401E0860F4
:10986000086870471CB500F041F9DFF8D812886825
:10987000002460B10C31022001910090002350229D
:109880000FF2C8210FF28500FFF7ACFA044620461C
:1098900016BD2DE9F84305460E4691469846282008
:1098A000FFF70AFF04000CD0089F00F01FF92560A5
:1098B000A661C4F81C90C4F820806762201D0021B6
:1098C00001612046BDE8F283F8B59E4FBC680546AD
:1098D00084B01E460020BCB1062900910192029579
:1098E0000CDAFFF7F3FD0228B86807BF0A9A0023D5
:1098F00000230022694600F071FE05E00023324695
:109900006946204600F0DCFE05B0F0BDF8B586B033
:109910008C4D2968086810B90124002602E0C86847
:1099200006680024FFF7D5FB01A800F08CF8074675
:109930000198002838D104BBB74223D3FFF7E8FBD6
:109940002868C168CC68201DFFF779FFE06901280D
:109950000FD1A16933463A468919204600F0ABF889
:1099600038B1002000900023324600212046FFF746
:10997000ABFF616A204688471CE0686801684C1E9E
:10998000A441E40FA8682246F11B00F0EDFFFFF7A9
:10999000BFFB78B96C494FF08050086040BFBFF3FF
:1099A0004F8FBFF36F8F05E0FFF7B2FB02E0204659
:1099B000C046C046A868002202A900F0B7FE0028F1
:1099C000A7D00298002803D505990498039A9047D8
:1099D00002980028EED4049C606910B1201DFFF7A6
:1099E0002EFF01A800F02FF802990929E2D8DFE83C
:1099F00001F010101005070610100507DAE7D6E78A
:109A00000399A161034602460918204600F053F865
:109A1000D0E703990246A0690B464118204600F0A2
:109A20004AF80028C6D0616A20468847E0690128C4
:109A3000C0D100210091039AA0698218002320461A
:109A4000FFF742FFB6E72DE9FC410446FFF7B0FB04
:109A50003C4E0546306985420BD3002035612060BD
:109A60002846BDE8F68178603F61391D3068FFF710
:109A7000CDFE31680868C8B1C868D0F80080C768F2
:109A8000381DFFF7DCFE796A38468847F8690128F7
:109A9000EFD1B86940448045E5D300200090002311
:109AA000424600213846FFF70FFFE2E7706830605A
:109AB00071600120D2E738B500248A42416000611C
:109AC000204D06D38169D21A8A4206D2011D6868E8
:109AD00007E09A4203D2994201D3012403E0011D19
:109AE0002868FFF793FE204632BD000010B5FFF74F
:109AF0005CFE144CA068C0B904F11400FFF76CFEC2
:109B000004F12800FFF768FE04F1140004F12801B5
:109B10002060616000221021202000F045FDA0603F
:109B200018B100BF0BA100F00DFFBDE81040FFF71A
:109B300044BE10B50446FFF738FE246AFFF73DFE29
:109B4000204610BD807D002004ED00E0546D7220A1
:109B500053766300546D72510000000010B5044646
:109B600000F081FF204600F0B7FF20780C2803D1D9
:109B700000F027F900B11DE010BD10B5DFF85C461C
:109B800004F1500104F2F44001F092F9C1B24FF631
:109B9000FE7204F18C0001F045FA002818BF082875
:109BA00007D013281EBF112843F20141884200D07C
:109BB00000E010BDBDE8104001F096BA38B5DFF8FE
:109BC0001C4604F1600104F2FC4001F071F981B21D
:109BD000D4F88850204601F072FB6D1C002818BF95
:109BE000082809D0132818BF112805D043F20141D5
:109BF000884218BF01F078FA0320B5FBF0F000EBC3
:109C00004000281A18BF012084F88000C4F888504A
:109C100031BD10B5DFF8C44594F8800058B104F1A7
:109C2000700104F2045001F043F981B22046BDE80E
:109C3000104001F072BB10BD38B5DFF8A04594F8B4
:109C40008120551EAD41ED0F2946204601F082FBD3
:109C500084F8815031BD01F047BA007848B9DFF887
:109C60007C25B2F882003B2176DF002818BF01F086
:109C70003BBA704701F038BA80B5002001F0BAFC59
:109C800008B101F031FA01F076FD08B101F02CFACB
:109C900033DF00B111E001BD80B560B103280BD105
:109CA00000F083F80FF2B85100F084F8022001F0C0
:109CB000A1FC08B101E064E001BDBDE8024001F093
:109CC00013BA38B50446DFF81815DFF818052288EE
:109CD000DFF80855081AC0080004102A40F00300F5
:109CE00008D0112A18D0212A1FD03B2A18BF562A83
:109CF00020D031BD0FF27C51FEF78BFD072001F023
:109D000079FC08B101F0F0F9A188A5F8821005F1FD
:109D1000B40001F0AFFD10E00FF26451FEF779FDE1
:109D20004FF6FF70A5F8820031BDA0880FF2985160
:109D30008FDF02E0A088132176DF18B1BDE8324042
:109D400001F0D2B931BD80B5DFF89014B1F88220AE
:109D5000042804D0072806D00A2811D111E01321C5
:109D6000104676DF07E04FF6FF70824208D101F11E
:109D7000C00001F0E2FF082818BF002800D09CE7CF
:109D800001BDBDE8014077E780B5007840B100F043
:109D90000CF80FF2FC4100F00DF802F03DF901E083
:109DA00000F00FF800B188E701BDDFF83404DFF8F8
:109DB00034247047801AC008000440F00300FEF706
:109DC00028BD0321DFF8200401F064BE80B5FEF752
:109DD00059FD0028FBD1FFF7D1F8F8E7DFF8FC03C5
:109DE000D0F88400FFF730B92DE9F047AEB04FF45A
:109DF00000410020FEF7D2FB08B101F075F902F036
:109E00003FFA02F04DFA08B101F06EF9DFF8CC63C9
:109E100006F1840001210190009100234FF480722B
:109E20000FF27C41DFF8C403FEF7DCFF01281CBF02
:109E3000042001F059F9DFF8B803016841F004018A
:109E4000016002F06BFB08B101F04EF900200090B8
:109E50006946012002F0F8FB08B101F045F96846B7
:109E600002F03DFC08B101F03FF90020C04608B106
:109E700001F03AF9DF480090002301224FF4FA6123
:109E80000FF2B430FFF705FD0446DB4800900023D5
:109E900001224FF47A71CEA0FFF7FBFC0546D748AC
:109EA0000090002301224FF49671CAA0FFF7F1FC45
:109EB0008046D348009041F2883900230122494668
:109EC000C5A0FFF7E6FC002C18BF002D824605D088
:109ED000B8F1000F18BFBAF1000F02D1042001F051
:109EE00003F9C849032001F091FB08B101F0FCF827
:109EF0006946002001F08FFC08B101F0F5F89DF8EB
:109F00000000022807BF01218DF8081000228DF8FB
:109F1000082011218DF800105FF00A02C8A16846E0
:109F20007CDF08B101F0E0F840F2413078DF08B1A1
:109F300001F0DAF803A90020C1E900004FF4027132
:109F4000ADF80E10ADF810004FF4A0724FF4C871C8
:109F5000ADF80C20ADF8121003A87ADF08B101F0BB
:109F6000C3F8002106F1A00002F038FC08B101F0AE
:109F7000BBF8AC2103A802F02BFD01218DF80E10D7
:109F8000062203218DF80F20ADF81C10022006F2E6
:109F90000C5201218DF80C0008928DF888104FF4B6
:109FA0009677259744F25061269103A9964A2C9200
:109FB00006F1C00001F0F5FC08B101F095F80121AF
:109FC00006F1C00001F0EAFC9048019001A906F1F9
:109FD000B40001F03BFC08B101F086F803208DF8D5
:109FE0000000002107A800F01BF9079101228DF85D
:109FF00020208DF828208DF82920CDF824D007A91D
:10A00000304601F0F2F808B101F06EF803A8002123
:10A0100000F006F901218DF819108DF81A108DF84D
:10A020001B108DF81010039364218DF81810059300
:10A0300003A906F18C0000F089FF08B101F054F883
:10A0400040210BA802F0C4FC80A10BA802F0D7FCB1
:10A0500001208DF868000BA802F046FE08B101F05F
:10A0600043F851203065642171650120B06586F8A0
:10A070005C0006F1500106F2F44000F00FFF8C2066
:10A08000306677660A21B166002086F86C0006F11A
:10A09000600106F2FC4000F001FF642030674FF4DD
:10A0A000FA7171670120B067002186F87C1006F212
:10A0B000045006F1700100F0F1FE1C2103A802F02B
:10A0C00087FC00210391032247F230510591CDF81E
:10A0D00010908DF818200022B189ADF81A108DF873
:10A0E0001C2003A84A494B4A0891099202F033FF09
:10A0F00008B100F0F9FF01F0F5FE08B100F0F4FF3F
:10A100000521684602F064FC31208DF8000007212B
:10A110009DF803008DF8011040F003008DF8030056
:10A1200010229DF804008DF8022040F003008DF805
:10A130000400684601F042FF08B100F0D5FF364840
:10A1400001F02AFF08B100F0CFFFFFF731F8024617
:10A1500002200090002301212046FFF7B5FB0128D3
:10A160001CBF042000F0C0FFFFF722F800F05EF8EB
:10A170002846FFF7A9FB01281CBF042000F0B4FF0C
:10A18000FFF716F800F052F84046FFF79DFB012854
:10A190001CBF042000F0A8FFFFF70AF800F046F803
:10A1A0005046FFF791FB01281CBF042000F09CFFE4
:10A1B00002A91A4802F0B6FFFFF7F7FD3AA1FFF730
:10A1C000F9FDFEF75FFF0F2000F08EFFFBE700BFF9
:10A1D000485254005252540053435400E059002056
:10A1E000FC2E0300B42E0300A05A0020CD9D0200D7
:10A1F00010ED00E07B9B0200BD9B0200139C02005F
:10A20000399C0200479D0200999C0200579C020065
:10A210005B9C0200759C02005D9B0200899D020010
:10A22000002200238C4680E80E1070470221009126
:10A2300002460023012170474241545400000000AF
:10A240004E6F726469635F48524D00004E6F7264D6
:10A25000696353656D69636F6E647563746F7200D3
:10A2600046617374206164766572746973696E67A0
:10A270002E000000436F6E6E65637465640000001D
:10A28000446973636F6E6E656374656400000000FB
:10A29000457261736520626F6E6473210000000077
:10A2A0004C4F47474552000048525320467265655F
:10A2B00052544F53206578616D706C6520737461E2
:10A2C000727465642E0000000000FEE7EFF310805A
:10A2D00072B6704781B000224250405800900099F9
:10A2E00001B07047F8B5604E4FF4A0713046FFF7EB
:10A2F000F1FF0024EFF31185402080F31188D6F898
:10A3000004754FF480713046FFF7E4FFFEF750FF0D
:10A310003E1A26F07F46012E08D9FFF7D7F802280B
:10A3200004D0012602E0FEF753FF04433046461EE8
:10A330000028F8D124B14D494FF08050086040BF4B
:10A3400085F31188F1BD000080B5002001F0D1FF38
:10A3500045481F21C0F808150122C0F80423826077
:10A3600002600223C0F84433E021414880F8111311
:10A370004FF40032026001BD2DE9F84304463D4828
:10A380003D4E3B4D844288BF0446FFF79FFFB168B6
:10A3900079B90122B2603949D5F880200A4032608B
:10A3A000C5F880104FF0FF32D5F884107160C5F801
:10A3B000842000B962B6DFF8B080D8F80475FFF7E2
:10A3C00059F8002841D00120E119C8F8080321F00C
:10A3D0007F41C8F8401540464FF4A071FFF77AFF5F
:10A3E0004FF48039C8F80493BFF34F8F74B102F073
:10A3F000F6F820B141DF48B100F076FE06E020BF5C
:10A40000D5F80001D5F804110843F8D0C8F808932E
:10A410004FF4A0714046FFF75DFF4FF48071404656
:10A42000FFF758FF0120C8F80403D8F80405C71B3C
:10A4300027F07F474FF40030BC42C5F8800188BF49
:10A440003C4614B12046FEF7BBFEB06848B1FFF7AA
:10A450003DFF31682960002172686A60B16000B90F
:10A4600062B6BDE8F18300000010014004ED00E099
:10A4700000E100E0FDFFFF00A87E0020FC06FFBD1C
:10A480000748006880F3088862B661B6BFF34F8F53
:10A49000BFF36F8F4FF4F07080F3118800DF00BFBF
:10A4A0000070020070470000064B19680868B0E8A9
:10A4B000F04F80F30988BFF36F8F4FF0000080F3F7
:10A4C000118870474C77002070470000EFF3098037
:10A4D000BFF36F8F134B1A681EF0100F08BF20EDEB
:10A4E000108A20E9F04F106008B44FF0400080F36C
:10A4F0001188BFF34F8FBFF36F8FFEF7C5FE4FF08C
:10A50000000080F3118808BC19680868B0E8F04FB3
:10A510001EF0100F08BFB0EC108A80F30988BFF35B
:10A520006F8F70474C7700207047FEE7EFF3118084
:10A53000402181F31188704738B505460C46FFF776
:10A5400034F9EA6B286C2968424388186860002156
:10A55000A9632868EA6BA860521E286C29684243E8
:10A560008818E8604FF0FF3085F8440085F8450012
:10A5700074B92869A0B105F11000FEF7C7FE78B1E3
:10A58000DFF8DC134FF08050086000F048F907E076
:10A5900005F11000FFF720F905F12400FFF71CF981
:10A5A000FFF70BF9012032BD70B506460C000EBF57
:10A5B000482004FB06F04830FFF77EF805000BD07A
:10A5C000002C0EBF2D6005F148002860EE632C645E
:10A5D00001212846FFF7B0FF284670BD2DE9F64758
:10A5E00082B0064689461F460024DFF874A34FF068
:10A5F000805831E00398002849D014B900F006F9DA
:10A600000124FFF7DAF8FEF764FDFFF7CEF896F9BC
:10A61000440010F1010F04BF002186F8441096F9A0
:10A62000450010F1010F04BF002186F84510FFF727
:10A63000C4F800F0EEF800283CD1FFF7B6F800F0BF
:10A640006DF814BF00250125FFF7B7F81DBB304694
:10A6500000F038F9FEF75CFDFFF7A7F800F05EF8B0
:10A6600001D3022FC6D13A464946304600F0E2F8FF
:10A67000716A19B100F056F808B902E008B100F0AB
:10A68000CCF8FFF79AF8012004B0BDE8F087FFF797
:10A6900094F80020F8E7039906F11000FEF715FE84
:10A6A000304600F00FF9FEF733FD0028D4D100F05A
:10A6B000B4F8D1E7304600F005F9FEF729FDE8E7E8
:10A6C0002DE9F8430646894614461D46FFF72EFF3E
:10A6D000804600F023F801D3022D1AD196F9457077
:10A6E0002A464946304600F0A5F84FF0FF318F4228
:10A6F0000AD1706A58B100F015F8002818BF002C74
:10A7000005D00120206002E07F1C86F84570012002
:10A7100000E0002088F31188BDE8F283B06BF16B94
:10A720008842704706F12400FEF7F0BD2DE9F7439B
:10A73000074689460024DFF828624FF0805803E07E
:10A7400000F076F8FEF7E4FCFFF72FF8BD6B002D64
:10A7500039D1029800284BD014B900F057F80124E1
:10A76000FFF72BF8FEF7B5FCFFF71FF897F9440049
:10A7700010F1010F04BF002187F8441097F945003C
:10A7800010F1010F04BF002187F84510FFF715F8FD
:10A7900002A96846FEF703FE002838462CD100F0D7
:10A7A000C7F80028CCD0029907F12400FEF78DFDF0
:10A7B00000F03EF8FEF7ACFC0028C5D1C6F80080DA
:10A7C00000F02DF8C0E7494600F030F86D1EBD637B
:10A7D000386940B107F11000FEF798FD18B1C6F8CE
:10A7E000008000F01CF8FEF7E8FF0120BDE8FE83C2
:10A7F000FEF7E3FF0020F9E700F064F8FEF788FCBD
:10A80000384600F095F800289ED0F3E76846FEF73A
:10A81000BDBD03A96846FEF7C2BDCAF8008040BFAF
:10A82000BFF34F8FBFF36F8F70474146384635E017
:10A83000384647E0F8B506461546B46B326C00273B
:10A8400042B9306830BB7068FEF74EFE0021074603
:10A8500071601FE065B9B068FDF764FEB068316CE7
:10A86000726808449042B06014D33068B06011E060
:10A87000F068FDF757FE306CF16840420144F1602A
:10A880003268914202D271680844F060022D01D111
:10A8900004B1641E641CB4633846F2BD026C002A25
:10A8A0000B4600D1704710B5C16844681144C160BF
:10A8B000A14224BF0168C160C168BDE810401846CC
:10A8C000FDF730BE70B500F030F894F9455007E060
:10A8D00004F12400FEF71AFD08B1FEF78DFD6D1E90
:10A8E00068B2012802DB606A0028F1D14FF0FF3521
:10A8F00084F84550FEF761FFFEF757FF94F9446076
:10A9000007E004F11000FEF701FD08B1FEF774FD49
:10A91000761E70B2012802DB20690028F1D184F88C
:10A920004450BDE87040FEF748BF0446FEF73DBF07
:10A9300010B5FFF7FAFFA06B441EA441FEF73DFFE0
:10A94000E00F10BD10B5074C226800231AB9E15082
:10A95000E118486010BDA2680823002AF7D010BD96
:10A9600004ED00E0987E002070B504460D461646C2
:10A97000FEF71BFF94F9440010F1010F04BF002102
:10A9800084F8441094F9450010F1010F04BF002130
:10A9900084F84510FEF711FFA06B28B9324629460E
:10A9A00004F12400FEF7A0FC2046BDE8704089E7D2
:10A9B0002DE9F845054643F2020669B9694601F0FA
:10A9C00013FBB0421CBF002800F08EFB9DF8000076
:10A9D000C0F34000002844D10021284601F0F7FAD6
:10A9E000040018BF112C3CD0DFF8E003DFF8E0735F
:10A9F000DFF8E083C71BFF083F040D2C47F0020A75
:10AA000012D12A4641465046FDF706FF132128463B
:10AA100076DF30B302F0C2FB02462B4608F1740128
:10AA20005046FDF7FFFE1CE00B2C03D12A4608F12F
:10AA3000AC0104E0B44206D12A4608F586715046BE
:10AA4000FDF7EAFE0DE0204602F0A8FB02462B4689
:10AA500008F5AC7147F00100FDF7E4FE204600F078
:10AA600043FBBDE8F18510B5044600F0FFF82078FF
:10AA700018B96088BDE81040A4E107280FD1DFF8BD
:10AA80004C03DFF84C230FF26031801AC008000439
:10AA900040F00100FDF7BDFEA06800B18EE110BDE1
:10AAA00000B585B068460FF2E0311422FDF73AFD9B
:10AAB000684600F011F805B000BD18B585B0044631
:10AAC0006846142101F084FFADF80440684600F0A8
:10AAD00003F806B010BD00002DE9F0430646DFF88C
:10AAE000F8526C6985B0317879B102292CD00629E9
:10AAF00033D0082918BF0A2900F08D80132900F0EF
:10AB00008D80142900F0A58070E0B08801F030FB42
:10AB1000862818BF11280CD1B088291D21F81400EF
:10AB2000641CA01004EB507121F00701641A6C61E1
:10AB300099E0062818BF072858D0132818BF002806
:10AB400054D000F0D1FA51E0307A012818BF002823
:10AB50004CD1B088FFF7B1FF48E028786C78002826
:10AB6000264642D1DFF86412DFF86472CF1BFF087B
:10AB70003F0447F003080FF27C214046FDF749FEF1
:10AB80005CB96846FDF79EF9040018BF00F0ACFA06
:10AB9000BDF8060040B101263CBBFDF75AF900287C
:10ABA00034D10120287020E000236A46002101F002
:10ABB0007BFA0400DFF8249210D1BDF8002049464A
:10ABC0004046FDF729FEBDF8000001F01BFA040025
:10ABD00008BF0126E1D000F087FA0126052C08D134
:10ABE0008BA147F00100FDF714FE6E7005B0BDE8C3
:10ABF000F083062C04D109F12C0147F00200F2E7A2
:10AC0000002CCAD0204600F06FFAEEE748F2076148
:10AC10008842EAD0F7E701206870E7E70021297051
:10AC2000697000274FF6FF76E119881001EB50722A
:10AC300022F007022B1D8A1A33F81200B04204D00A
:10AC4000291D21F81260FFF738FF7F1C082FEBDB6E
:10AC5000CCE70020287048F20D61B068884218BF28
:10AC6000B0F5064FC2D1FFF71BFFBFE72DE9FE434A
:10AC700007465648564E3A78DFF86491594C861B81
:10AC8000F608360446F0030846F00105142A46F09B
:10AC9000020600F27980DFE802F07E7E0B1C7E7EE9
:10ACA0002D3036424D5159607E677E7E7E7E71002A
:10ACB000788802F04AFB09F10C013A7A51F8221027
:10ACC0000091214659F820207B884046FDF7B2FDCF
:10ACD00061E0788802F039FB7989019109F10C0271
:10ACE0003B7A52F82310009104F1400159F82020DA
:10ACF0007B8812E04EA130462AE000F05CF8024664
:10AD000004F194012EE0387CC1074CBF2EA00FF255
:10AD1000381000F042F804F1C001404607E03869FD
:10AD200002F03CFA00F039F804F582713046FDF784
:10AD30008CFD30E0BA8804F5A87113E000F03BF810
:10AD40000346BA8804F5BC71284612E041A140468A
:10AD500003B0BDE8F043FDF75CBD00F02CF80246FF
:10AD600004F5D471284611E0BB887A8804F5E671B1
:10AD7000304603B0BDE8F043FDF754BD00F01BF8CA
:10AD8000024604F5027100E037A1304603B0BDE889
:10AD9000F043FDF741BDBDE8F783019009F14000A4
:10ADA000797A50F82100009009F11802397A52F8A6
:10ADB0002130BA887047B86802F0F0B9BDE8104099
:10ADC00000F092B90021F3E500000000642F0300B9
:10ADD000B42E030004230300985F002018370300FB
:10ADE000505F0020041F0300417373657274696E25
:10ADF000672E0000417474656D7074696E6720740D
:10AE00006F20636C65616E20666C6173682E000054
:10AE1000546865726520617265206E6F207065658B
:10AE2000727320746F2064656C6574652E00000079
:10AE3000466C6173682073746F7261676520697313
:10AE40002066756C6C0000002C206E6F20636861BA
:10AE50006E676500416C6C20706565727320646577
:10AE60006C657465642E0000556E6578706563745A
:10AE7000656420504D206576656E742049443A2003
:10AE8000307825782E000000060000000000000049
:10AE90000000000000000000000000000A7B002A03
:10AEA00019BF4968002209680122027101607047D8
:10AEB00010B5044620790028204602D000F005F89D
:10AEC00001E000F010F8206810BD10B54A68036872
:10AED0008968D41AA14202D2C918016010BD02606B
:10AEE0000021017110BD10B58A68096803685C1AF9
:10AEF000A24202D29A1A026010BD016001210171C2
:10AF000010BD38B505460C0018BF002D1DD028888F
:10AF100050281AD1607CC0B1E8886189884204BF9A
:10AF2000288A022811D1216879B105F1120001F0B7
:10AF300059FD401E8041C00F8DF800002046A988B1
:10AF4000ADF8021069462268904731BD78B504001B
:10AF50000D4614BF002D0E208FB05CD028682060F5
:10AF6000FF2029796174207401218DF8061041F6C3
:10AF70000F03ADF80430221D01A90120A8DF00282D
:10AF800049D1287B8DF80000202107A801F020FD81
:10AF900042F61921ADF81C100122ADF82020ADF8C1
:10AFA0002220CDF824D0A21D9DF82900617C00F05C
:10AFB000EF0040EA011040F002008DF8290007A9D7
:10AFC000A87B8DF82F00687B8DF82D00A08801F0FC
:10AFD00037FD00BBA968E9B10DF1020001F009FDE0
:10AFE0000646142102A801F0F3FC42F60810ADF861
:10AFF000080004F10E02E97B8DF80E10ADF8126026
:10B000000DF10201ADF81660069102A9E08801F089
:10B01000D7FD00E0E08110B070BD0A460146104641
:10B02000AEDF7047F3B5030091B0154608BF0E20A0
:10B0300057D00846197C0024884251D0CDE90044FD
:10B040000121ADF80010ADF8024012A901916A4645
:10B05000D9884FF6FF70ACDF040041D1587C9DF8D1
:10B060004810197400283AD002A8002100220026B6
:10B07000002780E8C600D9880198ADF808100122A1
:10B08000BDF802108DF80A20ADF80C104FF6FE72D4
:10B0900029469142CDF810D005901BD106A802F0A8
:10B0A00095F9002502E0FFF7B8FF11E00698854208
:10B0B00016D207A931F81560304602F055F902287A
:10B0C00006D1002C314602A8EDD1FFF7A6FF0446B9
:10B0D0006D1CEBE702A8FFF7A0FF044600E0082480
:10B0E000204613B0F0BDFEE71FB5694600220023DD
:10B0F000002481E81C0002906A46002144F201000D
:10B1000002F0D8F91FBD0870000A4870022070478D
:10B110001CB50C460188102904D0112905D05029EE
:10B1200007D013BD8088208413BD4FF6FF712184A2
:10B1300013BDC188A289914204BF038A022B0DD19D
:10B14000216859B1123001F04DFC401E8041C00F02
:10B150008DF80000694622682046904713BD2DE90E
:10B16000F0418046164698F80500002500B10425F8
:10B1700098F8220008B145F002050846B0F5807F36
:10B1800006DB711CFFF7BFFF45F00105471C01E01E
:10B1900071700227B8F84C0008B145F01005002482
:10B1A00006E0F9B2808C3144FFF7ADFFC719641C8B
:10B1B000B8F84C2094420FDA98F84E10FBB29B1C62
:10B1C000994208EB4400ECD2121B00F1240152001A
:10B1D00008F1240002F0A2F9B8F84C00041BA8F80A
:10B1E0004C403570F8B2BDE8F08170B50E468EB0B7
:10B1F0000546306828604FF6FF7031796971288400
:10B20000002185F82210A5F84C100122142185F8A0
:10B210004E108DF8022041F60D03ADF80030AA1D46
:10B2200069460120A8DF002847D1202101A801F0AC
:10B23000CFFB42F637211422ADF80410ADF80820F8
:10B24000002109AA2846FFF78AFFADF80A0009A9DC
:10B250009DF81100039140F0100001228DF81100BB
:10B260008DF8102005F10802307B8DF8170001A938
:10B27000E88801F0E5FB00BBB468ECB1202101A82F
:10B2800001F0A6FB9DF81100039440F0020042F685
:10B29000382101228DF81100ADF80410ADF8082016
:10B2A000ADF80A2005F11002707B8DF8150001A998
:10B2B000E88801F0C5FB00B900200EB070BD70B584
:10B2C00004468AB0238C4FF6FF75AB4222D000258E
:10B2D000002605AAFFF743FF00210023024601A82C
:10B2E000ADF8002080E86A002189ADF80410012340
:10B2F00005A98DF80630ADF80850CDF80CD00491B2
:10B3000001A9208CAEDF30B9BDF80010914202D007
:10B310000C2000E008200AB070BD38B504460D4688
:10B32000B4F84C0014280BD1262204F1260104F1B4
:10B33000240002F0F3F8B4F84C10481EA4F84C00B6
:10B3400004F12402B4F84C00411CA4F84C1022F87B
:10B35000105031BD80F822107047FEE7042838BF36
:10B3600002F062B9002070472DE9F8438046894613
:10B3700002F070F9002404282FD2DFF8446300EBB8
:10B38000400175183718B9F1000F14D0B9F1020F48
:10B390001AD01AD22C78687850B106F10F024FF407
:10B3A000806106F15C0002F0CFF908B986F80F80E1
:10B3B000A878387609E006F15C0002F006FAAC786D
:10B3C000387EA04209D100E06C7820001CBF716972
:10B3D000002902D0BDE8F4430847BDE8F18380B5F9
:10B3E000007802F037F904280CD2B54900EB400090
:10B3F0000844407802001CBF4969002902D0BDE81A
:10B400000440084701BD10B5AD49887B50B1002408
:10B4100001E0022C02D0204602F0D8F8641C042C73
:10B42000F7D310BDBDE8104002F0D4B82DE9F843C1
:10B43000A34E0746707B002410B17473FFF7E3FF3F
:10B440003D46172D4FF4CD794FF4805800F2988087
:10B45000DFE805F00C151528374552585D655D6528
:10B460007276767676769EA3AAB1BBBBFFF7CBFF4A
:10B4700006F11C0002F0A9F9044600208BE000F060
:10B48000A8F838B100F0A8F8022F14BFC14640F266
:10B49000337905E002F096F8022F08BF4FF0CD098E
:10B4A000377319E000F095F820B100F095F840F2FC
:10B4B000333102E002F086F8CD2103203073002200
:10B4C00034E000F086F818B100F086F8C14601E0DB
:10B4D00002F078F8042030730022494626E000F09C
:10B4E00078F810B100F078F801E002F06BF8052070
:10B4F00030730022CD2119E0002002F07DF80620F3
:10B50000307309E0002002F05DF8072043E00121DC
:10B510007173012002F070F80022662106E001201C
:10B52000707302F069F800224FF4007106F11C00FC
:10B5300002F00AF9044623E002F055F80C202AE054
:10B5400006F13C0002F041F9D5F1110504461AD08C
:10B55000CCB9012D0FD9ADB24FF44830454305F5B4
:10B56000FA754FF47A71002295FBF1F106F13C0077
:10B5700002F0EAF80446022002F024F80120B07339
:10B580002046BDE8F283022002F020F80020F6E712
:10B59000FFF739FF12203073F2E7FFF734FF002086
:10B5A00002F010F81320F6E7FFF72DFF012002F05C
:10B5B00009F81420EFE7FFF726FF002002F002F859
:10B5C000012001F0FFFF1520E5E702F00CF83773CA
:10B5D000D6E7002001F0ECBF002001F0F7BF3848AB
:10B5E000017CCA0744BF007BFFF720BF70470220E1
:10B5F00002F002B880B5324A137C0021DA0702D586
:10B60000FFF714FF0146084602BD000070B505466D
:10B610002B48002405614161A8071ED500260122A0
:10B620000121304600F02FF8761C042E044601D28A
:10B63000002CF4D08CB933225FF004013AA002F060
:10B64000CFF904464CB902F004FA04462CB91D4A5D
:10B6500034A0002102F04DF80446E80711D501207E
:10B6600002F00CF86CB9184A2CA0002102F041F845
:10B67000044634B9DFF8542029A0012102F039F83A
:10B680000446204670BD30B503460020042B15D279
:10B690000B4C03EB4305012A2C4405D1012908BFBB
:10B6A00003F10E0204D0002231B1022902D005D2EA
:10B6B000227030BD627030BDA27030BD072030BD39
:10B6C0003C7B0020DFB30200DFB50200EFB50200D3
:10B6D00010B504281DD2002914BF4FF440340024B3
:10B6E00001F0C8FF4FF0A0411F2884BF00F01F00E9
:10B6F00001F5407101EB8000D0F8001721F44031D2
:10B70000C0F80017D0F800170C43C0F8004700201D
:10B7100010BD062010BD0121DAE70000587B002093
:10B72000787B0020987B00200B00030069B30200A7
:10B730000C00030069B302001800030069B30200A3
:10B740001900030069B3020080B5012200F05AF825
:10B75000002818BF07280DD100F058F8002818BF9E
:10B76000072807D10A22002100F04DF8002814BF55
:10B770000728002002BD80B50020FFF7CCFF00287D
:10B7800018BF062806D10120FFF7C5FF002814BF07
:10B790000628002002BD10B52B4C014609886068C0
:10B7A000102902D011291FD010BDC8B901220021D3
:10B7B000FFF769FF002818BF07280CD100F026F812
:10B7C000002818BF072806D1042200F01BF8002823
:10B7D00018BF072804D000281EBF21680029884709
:10B7E0006068401C606010BD401E606009D1FFF7BA
:10B7F000ABFF00281CBF2168002902D0BDE8104023
:10B80000084710BD02210020FFF73DBF072202219B
:10B810000120FFF738BF70B50B4E0C460025306095
:10B8200054B10120FFF79AFD08B1022003E0FFF7B1
:10B8300095FD00B10B202070706810B9FFF784FFF0
:10B840000546284670BD0000C07E0020002818BFB5
:10B85000002901D10E2070470278DE2A01D108208C
:10B86000704709684160DE2202704FF6FF73438023
:10B870000020704708B90E2070470278DE2A01D0F8
:10B88000082070474180002070470246107A50B16E
:10B890005088002166DF10B1112802D101201072FA
:10B8A00070475168084770477FB505460C0018BFC0
:10B8B000002D4AD02078DE2847D1A88861888842A8
:10B8C00004BF2046FFF7E1FF2888012804D0112893
:10B8D00034D051280DD07FBD297A012902BFA88814
:10B8E0006188884231D1012020722046FFF7CDFFC8
:10B8F0007FBDA8886188884204BFA879022824D126
:10B90000A87B04281CBF062805281ED168461021E4
:10B9100001F05EF802214FF4C0768DF80010ADF80A
:10B920000460A87B052804BF0021ADF80410A88896
:10B930006946B0DF48B1616888477FBDA8886188E3
:10B94000884204BF4FF6FF7060807FBD417939B1F6
:10B9500090F82E1421B990F8300410B101207047EE
:10B960000020704738B504460D46B4F81414D4F8D6
:10B970001004012202F0B8FA00B1057004F13C0293
:10B9800004F5826104F1540072DF32BD90F82400A6
:10B99000012801D1EE2070471F20704780F8301039
:10B9A000704738B504460D0018BF002C01D10E2099
:10B9B00032BD95F87A00012804BF95F89800012857
:10B9C00001D1072032BD0020A07005F17801201DB3
:10B9D0002C22FCF7A7FD002084F83000D5F8A41035
:10B9E00061634FF6FF71D5F8A800A063A4F8241492
:10B9F00004F58260C4F8200400F062F9207810B9E0
:10BA0000FF2184F8541004F15500C4F810042046B6
:10BA1000FFF7BCFFA4F8140404F2144204F155012A
:10BA2000284602F09BF850BB04F23120C4F81804F9
:10BA30002046FFF7ABFFA4F81C0404F21C42D4F824
:10BA4000181405F13C0002F089F8C0B9A169A4F806
:10BA5000481001200021216484F8510084F83C0042
:10BA60000020616984F85000616404F13C02002107
:10BA700004F1540072DF10B901202070002032BDA3
:10BA8000006801281CBF0228042801D1012070474A
:10BA90000020704738B504460D46207808B90820C4
:10BAA00032BDA57000F00CF9A07910B1A078012882
:10BAB00006D0E07978B1A078012818BF02280AD111
:10BAC000606B30B1012184F82D140820616B884728
:10BAD00001E084F82D040021601890F8270488B94B
:10BAE000491C0629F8D36D1E032D1BD8DFE805F08D
:10BAF000020C1216A17939B194F8241021B948B179
:10BB0000012010E00120EEE7E17900291CBF0028A8
:10BB1000022008D1207A08B1032004E0607A08B13D
:10BB2000042000E00020A070606B98B1A07803288A
:10BB300018BF04280ED1607960B194F82E0448B97A
:10BB4000002184F83014012084F82F040720616B51
:10BB5000884702E0002084F82F04182104F13C00FB
:10BB600000F036FF012084F83C0004F12C00FFF7C0
:10BB700087FF002819BFE06A84F85100012184F88A
:10BB8000511094F8240058B104F12800FFF778FF11
:10BB9000002819BFA06A84F85200012184F85210CD
:10BBA000A1780020042984F8500065D8DFE801F06E
:10BBB0006203142D4400012084F83100002104F2B6
:10BBC0002640C4F82014206461640220802184F897
:10BBD0003C00A4F848104FE094F82400022284F8B6
:10BBE0003120002819BF072184F83C10032084F875
:10BBF0003C002069A4F848000021C4F8201404F295
:10BC00002640E1682064616436E06069A16900F063
:10BC10004AF819BF062184F83C10012084F83C0042
:10BC20002046FFF793FE28B100F044F8002823D106
:10BC3000052014E0032116E0E069216A00F033F8E2
:10BC400019BF062184F83C10012084F83C002046EE
:10BC5000FFF77CFE30B100F02DF868B9062084F8BB
:10BC6000310002E0042184F8311004F58260C4F848
:10BC7000200401E084F83100A07868B1D4F82014E1
:10BC800004F13C0204F1540072DF58B994F830100A
:10BC900094F8540073DF28B9616B11B194F8310046
:10BCA0008847002032BD6064A4F8481094F824004E
:10BCB00000287047022084F850000421204651E6F5
:10BCC000072104F22640FCF739BA10B50C4601886A
:10BCD000102904D0112909D0262914D010BDC27B07
:10BCE000012A29D18088A4F8240410BD002184F8F9
:10BCF0002E148088B4F82414884204BF2279002AC4
:10BD00001AD101210DE0007A012818BF022813D1B1
:10BD1000A078401C052190FBF1F101EB8101401A54
:10BD2000C1B22046FFF7B6FE00281CBFA16B002958
:10BD300002D0BDE81040084710BD10B504460121EF
:10BD400094F8540074DF002084F82E1484F8300432
:10BD500084F8500006212046FFF704FE48B9A17878
:10BD60002046FFF797FE00281EBFA16B00298847D9
:10BD7000002010BD70B504460025DFF8C06405E062
:10BD800006EB850120460A6990476D1CF0788542D4
:10BD9000F6DB70BD10B5DFF8A4440023002204F1E7
:10BDA0000C01201D00F080F9052806D14FF6FF7028
:10BDB000A0800021E160012002E0401E8041C00F10
:10BDC000607010BDF0B5044685B0A088DFF86C54F3
:10BDD00002F0B5F9012760804FF6FF762278A96856
:10BDE000A878083A032A49D8DFE802F0021D2A4E53
:10BDF000AB886878627A4AB951B1E268914207D15A
:10BE00000020A860A188A980E06038E0012A36D12E
:10BE1000002834D0A088984204BF217A06292ED168
:10BE2000FFF7B8FF2BE0607A48BB41B3E06881427E
:10BE300025D1E8680021401EA960E860E1601EE0AD
:10BE4000A0B1304602F01CFCB0420FD1304602F0E7
:10BE500019FCB0420AD100F021F90C2100F023F8BE
:10BE60002046FFF787FF00F017F90027687828B110
:10BE7000A088A988884208BFFFF78CFF17B1204629
:10BE8000FFF778FF05B0F0BD0028F8D000F006F904
:10BE90000D2100F008F8A06802902046FFF76AFF25
:10BEA00000F0FAF8EEE78DF80010ADF80460ADF898
:10BEB00002607047002818BFFFF75CBF704759E762
:10BEC00058E757E710B500F098F850B1204602F057
:10BED0003AF8204602F0F7FD2046BDE8104003F096
:10BEE000D1B810BD70B502F0B2FADFF85413DFF824
:10BEF00054430FF26435DFF850630C1BE40824044C
:10BF000044F0010428B101F049F903462A463146BC
:10BF100030E003F0F3FA30B101F040F903462A466D
:10BF200006F12C0126E002F0ABFD30B101F036F94C
:10BF300003462A4606F158011CE003F0E2FC30B14A
:10BF400001F02CF903462A4606F1840112E003F0C1
:10BF500031F830B101F022F903462A4606F1B0016A
:10BF600008E003F076FF50B101F018F903462A46C5
:10BF700006F1DC012046FCF755FC032070BDDFF81C
:10BF8000BC024FF6FF7100228180826000210122F5
:10BF900041700270002070BDDFF8A022117809B94D
:10BFA00008207047D178032901DB0420704702EB99
:10BFB0008103491C1861D17000207047DFF87C2292
:10BFC0001178002918BF02F0C8BD0820704780B55D
:10BFD000DFF868321A780AB9082002BD02F0E8FDDD
:10BFE000082808BF112002BDDFF850321A78002A55
:10BFF00018BF02F076BC08207047DFF840120446F4
:10C00000087870478D4A1178002918BF02F0C7B828
:10C01000082070470000000078B5884D287885B06A
:10C0200008B9082015E00120A8704FF6FF742046DB
:10C0300002F026FBA042064615D100F02FF80C2195
:10C040008DF80010ADF80440ADF8024000F024F87F
:10C05000002006B070BD304602F0A1F848B9304665
:10C0600002F00EFB0646A642F2D028780028F2D154
:10C07000082001F093F803467148724C78A2734986
:10C08000009600F002F80320E3E7001BC00800045C
:10C0900040F00100FCF7CEBB68466BE60020A870BC
:10C0A0001421684600F094BC2DE9F34F63490878E9
:10C0B00085B014461D4608B9082051E04FF6FF78B8
:10C0C000404602F0DDFA00210091042768A10197A3
:10C0D000D1E90023CDE902238346CDF80CD000F04E
:10C0E00042F8002707284FF0FF36C146C24610D15C
:10C0F000052035E00098B84224BF0746D946B04233
:10C100003CBF0646DA46584602F0BAFA834600F0CB
:10C110002AF80028EED00528F5D0C34511D1C14535
:10C12000059916BFC2450520002009B1A1F800906D
:10C13000069901B10F600CB1A4F800A085B12E6082
:10C140000EE0404C01F02AF802463D484049001BF1
:10C15000C00800045B4640F00100FCF763FB0320CD
:10C1600007B0BDE8F08F01AB02AA062102F0AEB91C
:10C1700078B5324E0546307887B008B908205BE0C4
:10C180003DA0D0E90023CDE90523707808B9FFF779
:10C1900001FE707808B1B06808B111244BE0B28894
:10C1A000F06895421ED110B31421684600F010FCCF
:10C1B00008208DF800000024284601F0C0FFADF8EB
:10C1C000020006219DF810008DF8081000F0FE0016
:10C1D0008DF81000ADF804508DF809400394FFF776
:10C1E0005BFF28E010F1010F08BF132423D0401C8F
:10C1F000F06006F1080205A9284602F0CCF9040017
:10C2000019D0F1680020491E112C1CBF862C072C68
:10C21000B060F1600FD0204600F0C0FF0246084831
:10C22000084C0C49001BC00800042B4640F00100DC
:10C23000FCF7F8FA0324204608B070BD287E0020E1
:10C240005C2F0300B42E03001C2B03009C3C030056
:10C25000E43C0300BC3E0300706D5F696E697400CE
:10C26000706D5F70656572735F64656C65746500A1
:10C27000000000000000000001000600347E0020E5
:10C2800080B503F0F8FE04210348FCF708FC0349DD
:10C290000120487101BD00BF48470300105F002026
:10C2A00038B55B4C207808B1852510E0A0600021EE
:10C2B00061602061E1600FF2E90003F039FF05469B
:10C2C00000F08DF908B903F03FFF01212170514AB8
:10C2D000106808B10121A170284632BD03681A46D2
:10C2E00000E0126812B18A42FBD170470B60016016
:10C2F000704738B5464D0446A87830B114B161682E
:10C300000120884700F029F80BE000F027F824B15D
:10C31000214605F11000FFF7E1FFE86808B903F0D6
:10C3200020FFE868401CE86012E01CB500F020F82F
:10C33000374CE068401EE060E068002802BF3549E5
:10C340000868002803D103F016FF0020A0700AE05F
:10C350009DF80000FCF7D5FC31BD00208DF80000F1
:10C360006846FCF7B3BC9DF80000FCF7CAFC13BD9F
:10C3700000218DF800106846FCF7A8BC38B5040011
:10C38000234814BF00F1100500F1080504E0086817
:10C39000286020464968884729680029F7D131BDBF
:10C3A00002001B4903D101234B70002002E0012849
:10C3B00001D18870E2E7704718B9154A0121517020
:10C3C000DCE770471CB520B101280AD0032819D03A
:10C3D00013BD114901200860BFF34F8FBFF36F8F6A
:10C3E00013BD00228DF800206846FCF76FFC084C56
:10C3F000207808B9FFF754FFE068401CE060012195
:10C40000A170B0E703F0A0FEFFF78FFF13BD00009F
:10C41000707E00200004014080E100E080687047E9
:10C420002028014604DA6F48C84000F00100704738
:10C43000402808DA0122A1F1200012FA00F018BF0A
:10C440000120C0B270470120704700001FB50446AC
:10C4500073A1684603F0DDFE02E0684603F0DDFEEE
:10C4600000F024F848B100F021F802462046516857
:10C47000126890470028F0D1112004B010BD0000D0
:10C480001FB5044669A1684603F0C3FE09E000F049
:10C490000DF802462046516812689047684603F03E
:10C4A000BCFE00F003F80028F1D11FBD6846B5E7D7
:10C4B00080B51620FFF7B4FF28B942F20100BDE8AD
:10C4C0000240FEF711BE484991F8160340090828BA
:10C4D00003D2EC22C240D00702D442F20200EEE7BF
:10C4E000424A906820B1116841F48001116001BD99
:10C4F0004FF48000086001BD3C49886820B10A689B
:10C5000022F480020A60704739494FF480000860C5
:10C51000BFF34F8FBFF36F8F7047000038B5354DB5
:10C52000287808B1082032BD0120A8700020FFF74C
:10C530008DFF112819D00020FFF7A2FF00F03EF870
:10C54000DFF8B4103FA010DF0446401E8041C00F4A
:10C5500000F02FF80CB1204632BD0020A8706870A2
:10C56000FFF7A6FF0120FFF78BFF002032BD38B593
:10C57000204D287808B9082032BD0120A870FFF7A7
:10C5800065FF112813D00220FFF77AFF00F016F89C
:10C5900011DF0446002000F00CF80CB1204632BD3B
:10C5A0000020A870FFF7A8FF0320FFF769FF002015
:10C5B00032BD28709DF80000FCF7A3BB00208DF869
:10C5C00000006846FCF782BB0A49887808B9082051
:10C5D00070470878002818BFFFF7C9BF9EE70548D5
:10C5E00000787047FC06FFBD00E100E0A87E002057
:10C5F00080E100E0007F0020B5D40200E0B500BF7C
:10C600000DA1684603F005FE05E048680968884703
:10C61000684603F002FE02990029F6D107BD00002A
:10C62000484603005846030008000000584603002F
:10C6300068460300080000006846030078460300CF
:10C6400008000000010000073EB50B0001D10E20DC
:10C650003EBD384919606A4600210024002582E861
:10C660003200012106248DF800008DF80210ADF88B
:10C67000044069461A68202069DF684600210022CC
:10C68000002480E816000121ADF802208DF8011089
:10C6900069461A68402069DF00F01BF88DF8001029
:10C6A00069461A68012069DF00F013F84FF4B061A1
:10C6B000009169461A68A12069DF00F00AF841F08C
:10C6C00001018DF8001069461A68A02069DF00207A
:10C6D0003EBD68460021002280E81600704760DFFA
:10C6E00010B9154A012111707047000012490878ED
:10C6F000002800D1704700B591B03422ADF8002079
:10C70000694604A861DF20B90CA101A803F081FDEE
:10C710000CE0052818BFFEF7E7FC11B000BD51681A
:10C72000126804A8904701A803F077FD039A002A35
:10C73000F5D1E2E778590020037F0020BC410300D7
:10C74000DC410300080000001721018000231B22A8
:10C750004180037143718271C2717047F8B500BFA7
:10C7600093A384B0D3E90067CDE90267ADF8081060
:10C77000ADF80A1005460621684600F029F96A4618
:10C7800002A9284690DF040025D000F007FD0346EB
:10C790007C487D4E7D4F861BF608360446F0010628
:10C7A0002A4639463046FCF73DF8BDF80000BDF892
:10C7B0000230002808BF002B05D0024607F14C01CB
:10C7C0003046FCF72FF8BDF8042022B107F18C01A8
:10C7D0003046FCF721F8204605B0F0BD80B508B919
:10C7E0000E2002BD01611B231721018041800371CE
:10C7F000801DFFF7A9FF002002BD000002469088BF
:10C80000002800D07047F0B58BB05E4B5E4C1088AE
:10C810005F4D1C1BE4082404102844F001040E465C
:10C820000BD011282ED0232800F08F8024286ED022
:10C830003A282BD0552847D091E0B71D3079B871F0
:10C84000D17B012904D0022904D17088388001E00D
:10C850003188398039887A888A420ED20020A5DF53
:10C8600010B90120787108E0112802D10120387137
:10C8700003E000F093FC00F08DF8B979F879884274
:10C880006DD269E0B01DFFF75FFF68E0B71D50890A
:10C890003988884228BF08461728B8BF17207880F3
:10C8A000306900281CBF7879002809D042A100F027
:10C8B00076F869467888ADF80400304632699047CA
:10C8C0000020787138714AE0D088B71D1728398860
:10C8D000B8BF1720884228BF0846788000203871EA
:10C8E000B5DF38B100F05AFC024605F134012046AC
:10C8F000FBF792FF7879002831D1306900282ED0DB
:10C900002FA100F04CF87888ADF8040018E0111D54
:10C9100068462C22FBF706FEBDF80010BDF8042087
:10C9200006EBC1077A73D6F81000C0B126A0D0E993
:10C930000023CDE90023ADF80210787B8DF80400C8
:10C94000694632693046904709E0B01D1289817905
:10C95000D2B2914288BF11460020FFF7FFFEB07AA5
:10C9600068B1F1880020A5DF18B90121B072F17219
:10C9700005E0112803D000F011FC00F00BF80BB01B
:10C98000F0BD0000E42E0300B42E0300242C0300AD
:10C99000F0370300024629462046FBF73DBF002042
:10C9A000D1E90023CDE90023ADF802007047000073
:10C9B0000000000000000000770A000000000000F6
:10C9C000770A0000000000007ADA00000000000092
:10C9D0000022FCF79DBEFEE701460878497840EA50
:10C9E0000120704780B5FFF7F7FFFFE700F0010077
:10C9F00002BD0A780270497841700220704738B54C
:10CA000004460D46284603F017FC2080656031BDC2
:10CA100000000000401E002204280A700FD8DFE842
:10CA200000F0030507090C00112007E0212202E0B5
:10CA3000312003E012220A707047222008707047EC
:10CA4000F8B50E4690B00546B078002806BF012123
:10CA50008DF80E108DF80E003088ADF80C001746DA
:10CA6000032101A8FFF7B4FF707C01A9FFF7D2FFF3
:10CA7000B07C0DF10501FFF7CDFFF07B00289DF89C
:10CA8000060014BF0821002100F0F70001438DF8D3
:10CA90000610307C00B1102001F0EF0101438DF849
:10CAA0000610307B00B1012001F0FE0101438DF83A
:10CAB000061001F0F901307D002814BF0420022087
:10CAC00001438DF8061009A81C21FFF781FF707B38
:10CAD00010F0300F1DD0032102A8FFF779FFF07C82
