:020000040002F8
:10700000E04C002091C40200DB8002005393020098
:107010007393020097A5020093AB020000000000EA
:10702000000000000000000000000000DFAC0200D3
:10703000B9C00200000000009FC10200ABC1020005
:10704000DFBB0200F1C5020005860200F3C50200A5
:10705000F5C50200F7C502002F7F0200F9C5020046
:10706000FBC50200FDC50200FFC5020001C602000B
:1070700003C6020005C6020007C6020009C60200D8
:107080000BC6020001AB02000DC602000FC60200D3
:1070900011C6020013C60200139E020015C60200AC
:1070A00017C6020019C602001BC602001DC6020058
:1070B0001FC6020021C60200000000000000000000
:1070C00023C6020025C6020027C6020029C6020008
:1070D0002BC602002DC602002FC6020031C60200D8
:1070E00033C6020035C6020037C6020000000000A9
:1070F0000000000039C60200000000003BC602008C
:10710000000000000000000000000000000000007F
:10711000000000000000000000000000000000006F
:10712000000000000000000000000000000000005F
:10713000000000000000000000000000000000004F
:10714000000000000000000000000000000000003F
:10715000000000000000000000000000000000002F
:10716000000000000000000000000000000000001F
:10717000000000000000000000000000000000000F
:1071800000000000000000000000000000000000FF
:1071900000000000000000000000000000000000EF
:1071A00000000000000000000000000000000000DF
:1071B00000000000000000000000000000000000CF
:1071C00000000000000000000000000000000000BF
:1071D00000000000000000000000000000000000AF
:1071E000000000000000000000000000000000009F
:1071F000000000000000000000000000000000008F
:1072000080B5DFF84C25DFF84C050021117000F047
:10721000BFFA20B90FF26C5000F066FB002002BDEF
:10722000DFF83405DFF83415401AC008704738B568
:10723000044689B1FFF7F4FF2568DFF82425002113
:1072400000E0491C814205D232F82130AB42F8D12E
:10725000216001E0052032BD002032BD01B5684645
:10726000FFF7E5FF28B9DFF8FC04009950F831007A
:1072700002BD002002BD0000491EDFF8E8240329FA
:1072800002EBC0000BD8DFE801F002040608022080
:10729000704704207047007970474079704700209C
:1072A0007047024600201368C3F3800292B103F0D6
:1072B0000300012807D0022801BF086800EB9350A3
:1072C000801C086005E00A68C3F383108218921CD2
:1072D0000A600120704780B50021DFF88C0400F0BF
:1072E00047FB80F3100002BD2DE9F84185B00D4643
:1072F00000218DF800109046DFF85474044668466B
:1073000000F086FB78682860A61C3AE005460298E3
:107310000199800DC01C01EB900125E0019907F156
:107320000C0001F0FF0100EB810001A9FFF7B9FF9C
:107330000028F3D1019A07F10C0100F0C3F901997B
:10734000491C01280191F5D90299BDF80E0001F000
:107350000301012902D00229D8D006E0054602988F
:107360000199C0F383104118019107F2144000F015
:1073700049FB08B10198B860294607F21C4000F0AB
:1073800027FB7968B868C1F580714118B14216D2FF
:10739000012107F21C4000F01BFB07F5836000F0A1
:1073A0002FFB07F2144000F02BFBB868019007F1A7
:1073B0000C0100F0FF00002501EB8000B5E7B8F1FB
:1073C000000F05D0A40104F4707444F0050402E039
:1073D000A40544F0060407F10C00397940F8214077
:1073E000786836189DF800007E6000F02CFB0120C4
:1073F00006B0BDE8F0812DE9FC47044688461546F5
:107400009A46012269465046FFF76EFFDFF8406357
:1074100048B30098801C002106F10C0207E055F8E3
:10742000217000F0FF0342F82370401C491C5145B5
:10743000F5D3009DFFF74FFF06F10C0900F02EF881
:10744000E40049F8270024F4707444EA8A14C4F371
:10745000090406F10C0044EA882405F0FF0544F015
:10746000010440F82540307818B100F027F80028D2
:10747000FBD1BDE8F38700230022BCE780B5009272
:10748000012300F009F801BDE0B5009201936A46BE
:107490000223FFF7B0FF07BD6A46ACE76F1C00048C
:1074A00007F0FF0740EA14407047A9488168406828
:1074B000814201D101207047002070472DE9F0433F
:1074C00085B0FFF7F2FFF8B9A14EC6F81804BFF374
:1074D0004F8F06F10C01B068009000F0FF0001EB47
:1074E000800005E006F10C0001F0FF0100EB8100D7
:1074F0006946FFF7D6FE48B1D6F8180430B970686F
:1075000000998142EED3B0600020D2E00020009AC2
:1075100006F10C0100F0D6F80099491C01280091F1
:10752000F5D902998B4801F00301022943D1029D4C
:107530000299AD0D2F46502DA8BF502565F39F51E0
:10754000029105F1080100F025F95FEA00084FD02B
:1075500000F068F900F0B0F8009901F0FF01C1F502
:107560008070800006F10C02A84202EB810117D264
:1075700028B9A94606F10C010024002503E0814644
:1075800006F10C042D1A5FFA89F908234A46404691
:1075900000F09EF94CB109F10803EAB2214601E07E
:1075A00008232A46404600F093F90098FF1C00EBA0
:1075B0009700009039E0029901F0030101295DD1A3
:1075C0000299029AC1F383110529DABF029901F4E5
:1075D00070714FF4C07122F47072114302910299DC
:1075E000C1F38311891C890000F0D4F85FEA000818
:1075F00044D000F017F900F05FF8082700240FE0EE
:107600000098411C009106F10C0500F0FF0005EB0D
:1076100080013B460422404600F05AF93F1D641C9D
:107620000298C0F383108442EAD3D6F81044D6F807
:10763000180470B1404600F0F9F835E0E06841798F
:10764000012904D122681368414620469847E06822
:107650000468002CF2D1404600F0E8F800208DF8D4
:10766000040001A800F0D4F9D6F8180408B900986D
:10767000B0609DF8040000F0E6F915E0D6F810447B
:1076800005E021688A6820469047E0680468002C7D
:10769000F7D13648DFF8C42035A1801AC0080004AD
:1076A00040F00200FFF7E7FEFFF7FFFE401E8041BB
:1076B000C00F05B0BDE8F0830023082202A94046B0
:1076C00000F006B902F0FF0251F8221002AA42F8B7
:1076D0002010401C704730B5024600201C4BD3F8E8
:1076E000101400E0096839B1C9680C798442F9D1F5
:1076F000401C0A2803DAF2E710F1010F02D14FF023
:10770000FF3030BDD1680871D468D3F8101419B9AE
:10771000C3F81024216030BDCD6829682160D3F8FA
:107720001034D9680A6030BD10B50948D0F810444B
:107730000121017008E0E16801224A7120462268B7
:1077400051688847E0680468002CF4D110BD00003F
:10775000802400200CC4020018BE0200A0BD02005C
:1077600000000000A0BD02009C280020C0BD020057
:107770004261636B656E647320666C7573686564E3
:1077800000000000602900207F0000004C2C002039
:1077900000F072B92DE9F04105460F462E8A00F03F
:1077A00082F9361F040002D10020BDE8F081F719EC
:1077B00000200121FF1C20716171A046B7FBF6F784
:1077C000E680FFB27F1EC8F80050002607E061790E
:1077D000491C6171C8F8000005608046761CBE42F5
:1077E00008D2284600F05FF90028F0D1204600F0CA
:1077F00003F8D9E72046D8E7F8B501460D464C799D
:10780000601E002200E0521C2D688242FBD300263D
:1078100005E00F68284600F069F93946761CA64253
:10782000F7D3F1BD0121001D00F0D2B81CB504460C
:107830000121201D00F0D8F800909DF8000018B933
:107840002046BDE81640D7E713BD2DE9F0471446A2
:10785000B0F806804279256846465643361F5F19C0
:1078600003F1040CBE42BCFBF8F234BFF31A2B4602
:1078700008FB12CC2360002A01E00068521EFCD1F4
:10788000A8EB0C029A469342089F4FF0000988BF6C
:1078900092460E4605461C4616E005EB0C00001D00
:1078A00006EB0903390052460EBF19460146184639
:1078B00000F034F9A4EB0A04D1442D68A2464445F3
:1078C0004FF0000C88BFC246002CE6D1BDE8F0871F
:1078D0001CB50192002402E01CB501920124009421
:1078E00001AAFFF7B2FF13BD80680021816001612A
:1078F0004161C160416001607047F0B402461068A8
:1079000095681318506803EB5004C0071BD54D440D
:1079100019E013F8017B05F8017B491EF9D190B1FC
:1079200013F8011BC6F38106032E08BF13F8016B81
:1079300001EB062149422944801C11F8016B05F82E
:10794000016B401EF9D1A3420ED013F8016B16F063
:10795000030104BF13F8011BC91C30090F28DCD137
:1079600013F8010B0F30D8E7F0BC02F10C007047A0
:1079700010B5024652E8000F0C4642E8004393F06F
:10798000000FF7D110BD000010B5024652E8004FBD
:1079900044EA010042E8000393F0000FF6D110BD65
:1079A00010B5024652E8000F00EA010442E8004325
:1079B00093F0000FF6D110BD10B5024652E8004F0B
:1079C00004EA010042E8000393F0000FF6D110BD75
:1079D00010B5024652E8004F04EB010042E80003F4
:1079E00093F0000FF6D110BD10B5024652E8004FDB
:1079F000A4EB010042E8000393F0000FF6D110BDA4
:107A00000121C1E70021CBE7EFF3108072B6704788
:107A100038B50446FFF7F8FF134A916871B901239E
:107A200093601249124B1D680D401560196059682A
:107A300051604FF0FF325A60002100E001212170B7
:107A400000B962B631BD10B5074CA16859B150B943
:107A5000FFF7DAFF074922680A6063684B6000217C
:107A6000A16000B962B610BDA02C0020FC06FFBDCD
:107A700080E100E000E100E010B508B90E2010BD83
:107A80000368426881681A60891A03E013685C1C05
:107A9000146019700B46591EDBB20268002BF5D139
:107AA0000020107110BD38B5044600258DF8005037
:107AB0006846FFF7ADFF21686268086882420FD20E
:107AC000421E0A601578208AE36845431D44A36876
:107AD00020689A1A0379D2B29A4238BF1A460A71BC
:107AE0009DF80000FFF7AFFF284632BD38B50C46C1
:107AF000002105468DF800106846FFF789FF2868C9
:107B000001684A1C0260E8682A8A241AB4FBF2F26F
:107B10000A709DF80000FFF796FF31BD4AB10000E2
:107B200011F8013B521E00F8013B1CBF11F8013B4C
:107B3000F8E7704700F1804000F5C0400068012878
:107B400018BF002070471CB5044600F00AF804F185
:107B50008044002104F5C044016020680090009931
:107B600013BD1BE101681F2902D84FF0A0407047E8
:107B700001F01F010160DFF8FC0470472DE9F141BD
:107B800081B0089D099C0E461746984601A8FFF74C
:107B9000E9FF46EA4706019946EA880646EA0526CD
:107BA00000EB810046EA0446C0F80067BDE8F381B7
:107BB00011B581B00C4601A8FFF7D4FF00F010F812
:107BC000019B00F5E06221F4403142F8231000F0FF
:107BD00007F800F5E06041EA044140F8221013BDC7
:107BE00000F5E061019A51F82210704701B568462E
:107BF000FFF7B8FFD0F810050099C84000F0010069
:107C000002BD7CB50FF290440346D4E90056CDE99D
:107C1000005608E05DF82350D5F8206542F8046B63
:107C2000C5F820655B1C0D18AB42F3D373BD01464C
:107C300000204A0904D0012A08BF4FF6FF7001E076
:107C40004FF0FF3001F01F01C84000F00100704705
:107C50000246012002F00703D2089840895C0840E0
:107C60007047DFF81414084490F93020082A804146
:107C7000C00F7047DFF80014084490F93020082A3C
:107C800001DB0120704700207047DFF8EC13084447
:107C900090F93020D043C00F704710B500F005F8C0
:107CA0001843FFE781F8640010BDDFF8CC2302EB36
:107CB000D001012491F8643000F0070004FA00F0CC
:107CC0007047F0B5034614004FF0FF3007BF08249B
:107CD0000C2500240825DFF8A06300E0641CAC42FA
:107CE0000ED256F8247017F1010FF7D1F01880F872
:107CF000304046F8241012B9301980F85830204628
:107D000040B2F0BDDFF870134FF0FF3241F8202091
:107D10000828A4BF081880F85820704738B5DFF845
:107D2000584394F86A0008B1082032BD0025E8B233
:107D3000FFF77DFF28B1E9B221444FF0FF3081F811
:107D400030006D1CEAB2302AF1DB0025E8B2FFF703
:107D5000D9FF6D1CE8B20C28F8DB062104F16400A1
:107D600000F09EF9DFF81403C02180F806134022CA
:107D700002604FF4BE70FFF7E6FEDFF804134FF029
:107D800000400860012284F86A20002032BDDFF83C
:107D9000E80290F86A0000B10120704700F18040CD
:107DA00000F5C0407047FEB505460F461646FFF782
:107DB0006CFF002408B1082451E0BA78520802F0A0
:107DC000010231462846FFF77CFF064616F1010FF7
:107DD00044D0B87841071ED4C00711D528464FF0CB
:107DE000A0411F2884BF00F01F0001F5407101EB86
:107DF0008000D0F8001721F00201C0F8001707E05A
:107E000000210194009100227B782846FFF7B6FEFE
:107E10002846FFF742FFB878810714D53978994A88
:107E2000994852F82630034042F826302D0252F885
:107E3000263005F47C5509041D4301F440310D43FF
:107E400042F826500BE08C483B578119304491F89A
:107E5000582042EA831280F8582000E0042420468B
:107E6000FEBDF8B50E460446834DFFF703FF2F19FC
:107E7000B0B197F93000284490F958000006800FFF
:107E8000032804D12046FFF7B1FE10B103E001281A
:107E900001D1022100E003212046BDE8F44087E63D
:107EA0002046FFF7DEFED8B197F93040754850F80C
:107EB000241041F0010140F82410A00000F580706A
:107EC00000B2FFF740FE002E1EBF97F9301055F8A4
:107ED0002100002804D00121694801FA04F404605B
:107EE000F1BD10B50446FFF7C5FE20B12046BDE840
:107EF000104000215CE62046FFF7B3FE78B15E48F3
:107F00006049204490F9300051F820205208520076
:107F100041F8202001215D4A01FA00F0106010BDF7
:107F200080B5FFF763FE00B10120C0B202BD2DE9AC
:107F3000FC470025CDE900554FF480760127082441
:107F400030B2FFF7F7FD00281EBF4D4800683842E9
:107F500003D030B2FFF7F7FD3D437F00361D641EAE
:107F6000EED14FF4BE70FFF7E5FD38B14FF4BE70AF
:107F7000FFF7E9FD00F08CF845F000452806DFF832
:107F8000F88016D0012600273E4C2E420DD054F822
:107F9000270054F8271058F82720130005D0090CA3
:107FA00001F00301C0F30520904776007F1C082FE5
:107FB000EBD3002D5BD54FF0000A4FF0A04908EB42
:107FC0000A0090F9605015F1010F43D0ECB224F093
:107FD000C00469462046FFF73BFE00283AD02D0634
:107FE000AD0F204600F01F061F2892BF49463046BD
:107FF00009F5407101EB8000D0F800773F0C07F0E5
:108000000307022F0CBF032102212046FFF7D0FDFA
:1080100020461F2892BF09F5A461304609F5026188
:10802000012202FA00F0086008EB040090F9301019
:1080300058F8212010000DD0032D08D0022F02D1B6
:10804000012D07D103E0032F08BF022D02D12946DD
:10805000204690470AF1010ABAF1040FAFD300F0AD
:1080600017F80098002804BF01980028A3D1BDE8A4
:10807000F3870000000300505C2A002000E100E0CC
:108080000463004010650040FFC0FCFF086300402F
:108090006A4602210020B4E50000005000030050B1
:1080A000002200F001B8430000B500BF130096465F
:1080B0009446103928BFA0E80C50FAD85FEA417CFA
:1080C00028BF0CC048BF40F8042BC90728BF20F8C0
:1080D000022B48BF00F8012B00BDFEE781B0002253
:1080E000425040580090009901B070474058A7E1B5
:1080F000D0F80403084018BF0120C0B27047C0F890
:108100001425C0F80C157047C0F80815C0F81025E4
:108110007047D0F81805C0B2704701681F2902D80F
:108120004FF0A040704701F01F010160DFF89C0490
:1081300070472DE9F14181B0089D099C0E46174614
:10814000984601A8FFF7E9FF46EA4706019946EA83
:10815000880646EA052600EB810046EA0446C0F898
:108160000067BDE8F381E0B500F00FF8012105E0FC
:10817000E0B50B460021002201910092FFF7D9FFE4
:1081800007BDE0B500F001F8F8E70021019100918A
:1081900000230122704701B56846FFF7BEFF009932
:1081A00001228A40C0F8082501BD0000F8B5044648
:1081B0000D46217917462C23DFF8142413FB01F315
:1081C000D61896F82A0008B10820F2BD0FF2304008
:1081D00050F82110206800F018FA08B11120F2BD03
:1081E000286810F1010F04D0FFF7D5FF2868FFF7CA
:1081F000BAFF686810F1010F1CBF0021FFF7B8FF3C
:108200002068A969C0F824156A7D297D0A43C0F851
:108210006C2529686A68FFF772FF287D012814D150
:10822000A86810F1010F1CBF0021FFF7A1FFE8684B
:1082300010F1010F04D0FFF7AEFFE868FFF793FFDE
:10824000AA68E9682068FFF75FFF776029697068AE
:10825000316060B32D7F20684FF48E71FFF73EFFD1
:1082600020684FF4A271FFF739FF2068DFF864132C
:10827000C0F80413000300166901002803D4DFF8D6
:108280005823115406E0DFF8543300F00F0018446F
:1082900000F8041C21680903091608D4012201F022
:1082A0001F00DFF83C338240490943F821200420B5
:1082B0002168C1F8000500220020B261F06186F853
:1082C00029007061012186F82A10F2BD2DE9F843DA
:1082D00004462C202279DFF8F81242438D182168D9
:1082E0000023C1F80035686898B1DFF8F822C1F8BA
:1082F0000823090309160CD4012201F01F00DFF83E
:10830000E8328240490943F82120BFF34F8FBFF381
:108310006F8F4FF0FF322068D0F80C65D0F81475DD
:10832000D0F80885D0F810951146FFF7E8FE4FF019
:10833000FF3220681146FFF7E7FE16F1010F1CBF60
:108340003046FFF71EFF17F1010F1CBF3846FFF73D
:1083500018FF19F1010F1CBF4846FFF712FF18F173
:10836000010F1CBF4046FFF70CFF206800F069F9C1
:10837000002085F82A006860BDE8F18338B50D4615
:1083800004464FF48E71FFF7A9FEA868296A405C85
:108390002A6A521C2A62C4F81C0531BD2DE9F0413D
:1083A000054617462A790E462C20DFF82412424350
:1083B0008C18284600F03EF808B1112038E06761BB
:1083C000A6602062002184F828104FF48E7128687E
:1083D000FFF784FE28680121816000262146FFF70F
:1083E000CDFF606818BB2F68D4F8148003E02146E5
:1083F0003846FFF7C3FF206A40450CD24FF48E7118
:108400003846FFF773FE0028F1D194F828000028C1
:10841000F4D00F2609E028684FF48E71FFF766FE4E
:108420000028F8D029680120C8600020606130462B
:10843000BDE8F081027966492C20424388184069E2
:1084400000B10120C0B2704770B50D460446A8695E
:1084500000284FF48471204605D1FFF73FFE2046E7
:10846000BDE8704055E6FFF739FE6E6A2046FFF71B
:1084700050FEE9688855686A401C686270BD1FB587
:108480000346012402918DF8004001926846196864
:108490005A6890471FBDF8B5024600238DF800309A
:1084A0000291906801905361684611685268904744
:1084B00005B000BD7FB54D4D4FF400712846FFF764
:1084C00017FE434C4FF4017608B34FF4927100F05D
:1084D00095F8E0B14FF492712846FFF7FFFDC5F81B
:1084E000086300F085F802208DF800000021D5F81F
:1084F0008004C5F880040390E161A069626802907D
:10850000A161E068216801906846904727E0042156
:108510002846FFF7EDFD10B34FF4847100F06EF8BC
:10852000E8B121462846FFF78FFFA069616A8842BB
:1085300015D1E06940B1E268616AA0610023206959
:10854000E060E361636207E000F052F8C5F8086399
:108550000020E268A061616A2046FFF790FF4FF4B7
:108560008E7100F04BF8B0B16069216A814207D288
:1085700094F8280020B921462846FFF7FFFE0AE0BC
:108580004FF48E712846FFF7A9FD606918B1616943
:108590002046FFF780FF4FF4A27100F02FF890B152
:1085A0004FF4A2712846FFF799FD94F8290008B10D
:1085B00001212960A06930B10021A1612046E26853
:1085C000616AFFF75CFF7FBD000000000003005000
:1085D000A02B00208000020000E400E018ED00E085
:1085E00000E100E08402020080E100E000200040A1
:1085F00094F8290008B9012169607047284675E59B
:10860000B584020013480168084738B50D46124981
:10861000884214D100248DF800406846FFF7F8F92D
:108620000C490879002811BF01240D600120087150
:108630009DF80000FFF707FA0CB1112032BD0020B1
:1086400032BD0549884203D102480022026002710E
:1086500070470000D02C00200020004081B0002294
:10866000425040580090009901B070474058BAE11C
:10867000C0F80C15C0F814257047C0F80815C0F8EC
:108680001025704701681F2902D84FF0A04070479D
:1086900001F01F010160DFF8800470472DE9F1410E
:1086A00081B0089D099C0E461746984601A8FFF721
:1086B000E9FF46EA4706019946EA880646EA0526A2
:1086C00000EB810046EA0446C0F80067BDE8F3818C
:1086D000E0B500F00FF8012105E0E0B50B46002100
:1086E000002201910092FFF7D9FF07BDE0B500F02D
:1086F00001F8F8E700210191009100230122704761
:1087000001B56846FFF7BEFF009901228A40C0F814
:10871000082501BDF8B504460D46217917462423E6
:10872000DFF8F82313FB01F3D61896F8200008B100
:108730000820F2BD0FF2104050F821102068FFF71A
:1087400064FF08B11120F2BD286810F1010F04D0B8
:10875000FFF7D6FF2868FFF7BBFF686810F1010F2D
:108760001CBF0021FFF7B9FF2068A969C0F82415D4
:108770006A7D297D0A43C0F86C2529686A68FFF77D
:1087800077FF287D012814D1A86810F1010F1CBFC4
:108790000021FFF7A2FFE86810F1010F04D0FFF7F6
:1087A000AFFFE868FFF794FFAA68E9682068FFF761
:1087B00064FF7760706829693160002838D02D7FA8
:1087C00020684FF48871FFF749FF20684FF49071DB
:1087D000FFF744FF20684FF49271FFF73FFF2068D6
:1087E0004FF4A271FFF73AFF00F0F3F82068DFF8CA
:1087F0003013C0F80413000300166901002803D4E5
:10880000DFF82023115406E0DFF81C3300F00F00DE
:10881000184400F8041C21680903091608D4012231
:1088200001F01F00DFF804338240490943F821209A
:1088300008202168C1F800050022B261F26172616E
:10884000012086F820000020F2BD2DE9F047064601
:1088500024213279DFF8C4024A43851831686868F8
:108860000C4698B1DFF8B822C1F8082309030916AD
:108870000CD4012201F01F00DFF8B4328240490914
:1088800043F82120BFF34F8FBFF36F8FD4F800025E
:1088900020F02000C4F80002AA6932B14FF4A2719E
:1088A0002046FFF7DBFE012262604FF4AC712046E8
:1088B000FFF7D4FE0120E0604FF4AC712046FFF7D3
:1088C000D5FE0028F8D0A86930B14FF4A271204637
:1088D000FFF7CCFE0028EFD00020C4F800054FF0D1
:1088E000FF323068D0F80C75D0F81485D0F80895B0
:1088F000D0F810A51146FFF7BBFE4FF0FF323068ED
:108900001146FFF7BAFE17F1010F1CBF3846FFF7FB
:10891000EDFE18F1010F1CBF4046FFF7E7FE1AF10C
:10892000010F1CBF5046FFF7E1FE19F1010F1CBFFC
:108930004846FFF7DBFE2046FFF783FE002085F860
:1089400020006860BDE8F087F8B504461746227934
:108950000E462420714942438D1806F06041B1F162
:10896000005F01D01020F2BD204600F036F808B1BB
:108970001120F2BD4FF490716F61AE600026206847
:10898000FFF76CFE00F025F868692168AB6801F21A
:1089900044521360506001228A606868B8B9206848
:1089A0004FF49071FFF762FE074600F03BF8002F8E
:1089B00008BF0028F3D008B10F2606E02168012087
:1089C000C86000F02FF80028FBD000206861304616
:1089D000F2BD20684FF4AC7140E602794F49242083
:1089E00042438818406900B10120C0B270471FB5EA
:1089F0000346012402918DF80040019268461968EF
:108A00005A6890471FBDF8B5024600238DF8003024
:108A100002919068019053616846116852689047CE
:108A200005B000BD20684FF4AC711FE638B5414D6C
:108A300084B04FF4927100F083F8384CC0B14FF419
:108A4000927100F07FF802208DF800000021D5F827
:108A50008004C5F880040390D5F83C056268029054
:108A6000A161E161E068216801906846904721E0DA
:108A70004FF4887100F064F8E0B14FF4887100F0B1
:108A800061F8D5F83C15A069814213D1E268E0692C
:108A900060B1D5F8000220F02000C5F80002E069BE
:108AA0002369A061E3600020E06100E0A06120464E
:108AB000FFF79DFF4FF4A27100F042F870B14FF440
:108AC000A27100F03FF8A06940B10021A161E1610D
:108AD0002046D5F83C15E268FFF789FF4FF4907106
:108AE00000F02EF848B14FF4907100F02BF80121FE
:108AF000E960606908B100F01FF84FF4AC7100F054
:108B00001FF838B14FF4AC7100F01CF8606908B17F
:108B100000F012F805B030BD00030050CC2B00204F
:108B20001003420000E400E018ED00E000E100E086
:108B300080E100E000200040D5F84C15204662E7B7
:108B4000284693E5284689E52D8A02000870000A28
:108B50004870022070472DE9FC470A9CDDF82C90F4
:108B600025880026B24607468E46904606E02088B5
:108B70009DF80010411821800AF1010A38888245C9
:108B800029DA796851F82A0001900022694601A883
:108B900064DF50BB9DF800004045EDD19DF800C05A
:108BA0003000208808BF02228444624491451EDBC5
:108BB000310008D1401C2080012680B203F800E07B
:108BC0002088401C2080694620881A1801A864DF8C
:108BD0000028CCD009E03EB12088401B401E80B266
:108BE000B0F5807F03DA58550020BDE8F6870C20E9
:108BF000FBE72DE9FC41089F099C019416460546B8
:108C0000984600970222FFF7A6FF38B90194009713
:108C10004346102231462846FFF79DFFBDE8F68106
:108C20002DE9FE4314460546B4F800904FF00008C5
:108C3000A4F800800F4695F82D0010B3B9F1090F84
:108C40004DD368466DDF28BB2188082078541B234C
:108C500000F068F9062280B20DF101013B5400F0EA
:108C600065F93844FEF75AFF2188891D218089B2B1
:108C70009DF80000400818BF012078542188491C45
:108C80002180A878C0B12188091D894527D368466D
:108C900079DF08B180462FE121880320785419221A
:108CA00000F044F93A5400F041F93918BDF80000D9
:108CB000FFF74CFF00F028F9E87848B12188CA1C7A
:108CC000914540B20BD302227A54012300F020F9DF
:108CD000686858B1218810F90800CA1C9145C0F095
:108CE000098102227A540A2300F012F9288950B12E
:108CF00000F005F90622022105F10800FFF779FFCF
:108D00005FEA0008C7D1288A50B100F0F8F80722BE
:108D1000032105F11000FFF76CFF5FEA000827D17F
:108D2000288B50B100F0EBF81522142105F1180042
:108D3000FFF75FFF5FEA00081AD12E6A002E30D0DD
:108D40002088811D8945CAD3318806290EDB40F66B
:108D5000814841454FF6FF7301DB994206D1728885
:108D6000062A03DB424504DB9A4208D04FF007088D
:108D7000C2E0994218BF9A4201D08A42F6D3052137
:108D80003954122200F0CEF84FF0000800F0D9F864
:108D900000F0BAF880B239187088FFF7D7FE00F0FB
:108DA000B3F86E6A0EB3B0882188801C4218921CFA
:108DB00091455BD3FF2880F09D80401C7854FF21B3
:108DC00000F0B9F800F0BFF800F09EF8B28852B198
:108DD000B1680029CAD080B23844FEF79FFE2188CE
:108DE000B088411821804FF0000895F82C00002829
:108DF00031D0A86A0028B9D0A846002517E02188FC
:108E0000401C7854162200F08DF800F09AF800F01B
:108E10007BF8B28852B1B1680029A7D080B238443B
:108E2000FEF77CFE2088B188081820806D1CE8B20F
:108E300098F82C1088420BD2D8F82800EAB20C21FE
:108E40004A438618B088801CFF28D8D3884653E050
:108E500045464FF00008287800284DD0012804BF6F
:108E600069780029D9D021888B1C994542D30128E3
:108E700004D168780818801C81453BD3A9EB010018
:108E8000821EADF80020B81C2388694618447DDF97
:108E90005FEA000830D12878022804D06978BDF84C
:108EA0000030994206D3BDF8003091B2994228BFF4
:108EB00009210CD20821012807D16B7892B2934284
:108EC00088BF1346ADF8003001E0ADF80020BDF8D2
:108ED0000000FF280ED22288401CB8544FF0000832
:108EE00000F029F82188491C2180BDF800004118B4
:108EF000218001E04FF00C084046BDE8FE83CDF82C
:108F0000049000943B4670472188081820807047E1
:108F10002188491C218089B27B542188491C2180E9
:108F200089B278542088401C208070472088401CDB
:108F3000208080B270472088401C208080B2395445
:108F4000704780B23A542088401C208080B2391883
:108F50003088FBE500F0FEB910B5DFF83803DFF824
:108F60003843041BE408240444F003042AB102201B
:108F700000F03AFA0FF2583104E0022000F038FA1B
:108F80000FF260312046BDE81040FEF774BA007859
:108F900038B9C24A508D3B2176DF002818BF00F057
:108FA000D9B9704700F0D6B980B5BC4A92F828000C
:108FB000012173DF08B100F0CDF9BDE802400020C7
:108FC00000F012BA38B5044600F077F8B34D2388A4
:108FD000821AD2081204688D102B42F003020CD0C2
:108FE000112B21D0132B31D0212B34D03B2B3BD054
:108FF000522B34D0562B37D031BD00BFBEA1104606
:10900000FEF739FA012000F0EFF9002000F0F0F946
:10901000A188698505F1400000F038FA08B100F038
:1090200099F900F0ACFB22E0B6A11046FEF723FA56
:10903000012000F0DDF94FF6FF70688500F0AFFB0E
:1090400008B100F087F9BDE83140ADE70023002208
:1090500085217FDF0BE0A088BDA18FDF07E0002323
:1090600000220021B1DF02E0A088132176DF18B1D1
:10907000BDE8324000F06EB931BD000010B50B28DC
:109080000C4615D100F019F8A2A100F011F983499E
:10909000488D224600F015FC00281CBF43F2020157
:1090A000884209D008281CBF43F20141884203D0FE
:1090B000BDE8104000F04EB910BD7648764A7047C2
:1090C00018B5A5B04FF480410020FEF799F808B11B
:1090D00000F040F900F018FC012000F099F900F0D0
:1090E00043FD08B100F036F96C4C40F233320121F7
:1090F00004F14C0000F00AFB08B100F02BF900F07D
:1091000091FD08B100F026F900F030FE08B100F042
:1091100021F9002000906946012000F08FFE08B17F
:1091200000F018F9684600F005FF08B100F012F9E8
:1091300011208DF800000D2261A168467CDF08B186
:1091400000F008F901A90020C1E90000A021ADF854
:109150000610ADF8080050224FF4C871ADF8042095
:10916000ADF80A1001A87ADF08B100F0F3F8002189
:1091700004F12C0000F0AAFF08B100F0EBF800BFEA
:1091800072A1474B0A680092019301A904F14000C3
:1091900000F068F908B100F0DDF842480090694637
:1091A000204600F035FB08B100F0D4F866A10A684B
:1091B000A37C00928DF802303C2116A8FEF770FFC8
:1091C000022001218DF858008DF85A1006228DF8E2
:1091D0005B203C2107A8FEF763FF0121ADF82C10AE
:1091E000CDF830D004F11C02A16916A8FFF718FDD4
:1091F00008B100F0AFF8216A04F1240207A8FFF7D4
:109200000FFD08B100F0A6F8182101A8FEF748FFED
:109210000022ADF8102002928DF818200121402282
:109220008DF819108DF80410039204F1180101AAA9
:1092300004F1280072DF08B100F08CF81C216846A8
:10924000FEF72EFF002100914FF4A0224FF4A03131
:1092500001920291032200218DF80C20ADF80E102E
:109260008DF8101068461049104A0591069201F0D9
:1092700088F808B100F06EF8FFF71FFF2CA100F08E
:1092800017F8FFF791FEFEF719F90028FBD100F05F
:10929000D6FCF8E7C0BD0200A0BD02008823002074
:1092A000558F0200598F02008F8F0200A58F020098
:1092B000801AC008000440F00300FEF7DCB800008C
:1092C0004E6F726469635F426C696E6B7900000077
:1092D0005265636569766564204C4544204F4E2194
:1092E000000000005265636569766564204C454462
:1092F000204F464621000000436F6E6E6563746523
:1093000064000000446973636F6E6E656374656426
:109310000000000053656E6420627574746F6E20E7
:109320007374617465206368616E67652E00000068
:10933000426C696E6B79206578616D706C65207325
:109340007461727465642E00231500000000000033
:109350000000FEE71FB5694600220023002481E8D3
:109360001C0002906A46002144F2010001F0CEF890
:109370001FBDFEE701681F2902D84FF0A0407047CB
:1093800001F01F010160214870472DE9F14181B0D2
:10939000089D099C0E461746984601A8FFF7EAFF6C
:1093A00046EA4706019946EA880646EA052600EBA2
:1093B000810046EA0446C0F80067BDE8F3811CB5A9
:1093C000012400900029684606D1FFF7D3FF0099D9
:1093D0008C40C0F80C4513BDFFF7CCFF00998C40C2
:1093E000C0F8084513BD00001CA2105C0021E6E790
:1093F0001AA2105C0121E2E710B500242046FFF715
:10940000F7FF641C042CF9D310BD000000030050CA
:10941000FEB50446E00710D55FF000050FA6002753
:10942000019700970023705D01220121FFF7ADFF36
:109430006D1C042DF4D3FFF7DFFFA0070DD500242A
:1094400007A500200190002100910323285D002240
:10945000FFF79BFF641C042CF3D3F7BD0D0E0F1018
:109460000B0C1819002818BF002901D10E207047D5
:109470000278DE2A01D10820704709684160DE22A7
:1094800002704FF6FF7343800020704708B90E202A
:1094900070470278DE2A01D0082070474180002002
:1094A00070470246107A50B15088002166DF10B133
:1094B000112802D101201072704751680847704787
:1094C0007FB505460C0018BF002D4AD02078DE2855
:1094D00047D1A8886188884204BF2046FFF7E1FF92
:1094E0002888012804D0112834D051280DD07FBD00
:1094F000297A012902BFA8886188884231D10120D8
:1095000020722046FFF7CDFF7FBDA8886188884282
:1095100004BFA879022824D1A87B04281CBF0628F0
:1095200005281ED168461021FEF7BAFD02214FF42E
:10953000C0768DF80010ADF80460A87B052804BF44
:109540000021ADF80410A8886946B0DF48B1616811
:1095500088477FBDA8886188884204BF4FF6FF70A6
:1095600060807FBD10B59D4BC20703EB500052BF1A
:10957000F0220F220901047D22401143017510BD24
:1095800030B5964AD368002100E0491C147AA14204
:1095900006DA13F83150A842F7D103EBC10030BD11
:1095A000002030BD38B504460D46FFF7E9FF00281E
:1095B0001CBF4268002A04D029462046BDE8384036
:1095C000104731BD2DE9F8430E46DFF8109209EB44
:1095D000500180460F7D5FEAC8704CBF3F0907F01D
:1095E0000F0701200021424600F0C4FF042F04466B
:1095F0000D4643D8DFE807F0031318232600002E9A
:109600003CD0012100F03CF800228DF80020684693
:10961000FEF7FEF9D9E900012043294328E0002E96
:109620000CBF002102210FE03EB1032100F028F819
:1096300001214046FFF7B6FF20E0012104E0EEB92A
:10964000042101E01EB1032100F01AF816E0002108
:1096500000F016F800214046FFF7A4FF00208DF827
:1096600000006846FEF7D4F9D9E90001A043A943F8
:10967000C9E900019DF80000FEF7E5F9BDE8F183B6
:1096800040466FE75548016900224908383000F02C
:109690009DBA70B50024514D12E0002108E0E96840
:1096A00001EBC4063078FEF73BFC71780129F4D158
:1096B0004140491E89413078C90FFFF783FF641C80
:1096C000287A8442EBDBD5E90023002B08BF002A6F
:1096D00002D0BDE87040D5E770BD10B5C0B2FFF74D
:1096E0004FFF04462078FEF71BFC6178012918BF64
:1096F000002190EA010F02BF3848D0E90023002B77
:1097000003D112B9BDE81040BCE710BDF8B516464C
:109710000A2E04460D4601D20720F2BDFEF737FBA4
:1097200010B9FEF7FBFA48BB2C4F2021FC603D72BC
:109730003E6107F11400FEF7B3FC0020C7E900000A
:10974000DFF89C6029A72846451EC0B280B1386862
:109750000090E8B204EBC0018A788DF8012032460F
:1097600014F830006946FEF71EFB0028EBD0F2BD6E
:10977000DFF870201CA0002100F01CFAF2BD38B503
:109780000024164D06E0EA6812F834000121FEF7C5
:1097900068FB641C287A8442F5D3002032BD38B5BA
:1097A00000240E4D05E0E96811F83400FEF799FB3E
:1097B000641C287A8442F6D300218DF80010684694
:1097C000FEF726F90020C5E900009DF80000FEF72D
:1097D0003AF905F1380000F010FA32BDC82A00202D
:1097E000DB96020093960200002B0020030000008D
:1097F0000288502A02BFC2884B889A4204BF028A5C
:10980000012A04D14B6913B1827C808818477047C4
:1098100030B58DB004460D6837A1656109A81022E6
:10982000FEF77CF904F1120109A862DF002834D1A7
:10983000A17C8DF8021041F22352ADF80020694658
:1098400022460120A8DF002827D1202101A8FEF709
:1098500027FC41F2245000F02BF840F0120000F0F9
:109860001EF88DF8172004F10A02208801A900F0E3
:10987000B7FE90B9202101A8FEF712FC41F2255055
:1098800000F016F840F00A0000F009F88DF81620F4
:10989000A21C208801A900F0A3FE0DB030BD8DF8F8
:1098A0001100ADF80A20ADF808208DF8152070479A
:1098B000ADF8040001229DF81100A17C8DF806107E
:1098C000704774B585B00122ADF80020002301AACD
:1098D00000240025002682E8780001238DF8063058
:1098E00005AB4989ADF804100493CDF80CD001A95B
:1098F000AEDF06B070BD000023D1BCEA5F7823154F
:10990000DEEF12120000000080B500F066FF0421B7
:109910000348FDF7E0FE03490120487101BD00BF87
:10992000A0C40200F423002038B5B64C04F118009E
:1099300001F0D5F8D4E900230021D4E9024510183C
:109940005941A94206D828BFA04203D2B0F17F40B6
:1099500061F1FF3134BDD1E90223D0E902018B422C
:1099600004D301D8824201D3012070470020704700
:1099700070B50446A348017C0025012926D1002C9E
:109980001CBF207F002821D0FFF7CEFFD4E902239F
:10999000B1EB030F9FA614D301D8904211D32069D5
:1099A00000B92577A069616988472269002A1CBF30
:1099B000207F00280AD0D4E9020180186941C4E957
:1099C00002012146304601F0BFF80125284670BD4E
:1099D00090A001F0CAB82DE9F845804601F072F870
:1099E000884D38B1D5E90001B0F17F4261F1FF3314
:1099F000C5E900230021404601F06CF800281CBF97
:109A00006869002804D06869FFF7B2FF0020686128
:109A10000121404601F05EF818B1FFF785FFC5E966
:109A2000020100F082F80FF2EC1A0EE04168087FA4
:109A300020B901220A77504601F086F8694605F1FF
:109A4000780001F019F900F070F808B301780029E6
:109A5000ECD002290CD0F1D241686869814207BF7D
:109A600000216961504601F087F8E7E7002202779C
:109A7000FFF7AEFF0028F9D101202874DEE70021AE
:109A800005F1180001F021F83046FFF771FF6F6112
:109A9000504640680068002840D0696981B1D0E92B
:109AA00002016A69D2E9026291423CD828BFB04201
:109AB00039D26869007F18B16969504601F044F8ED
:109AC000FFF786FF0646FFF72FFF02460B46D6E953
:109AD0000201821A61EB030301240027BB42CEDBA3
:109AE00001DCA242CBD3484CA24204D905F11800B4
:109AF00000F0F5FF204402464FF49603002105F1E3
:109B0000180000F070FF10B10D28C0D1BCE76869E3
:109B100010B9404600F01AFF6E6104E0686910B9A0
:109B2000404600F017FFBDE8F185694605F1780071
:109B300001F076B87CB504460D46324E694606F112
:109B4000780001F03BF868B104704560694606F1A1
:109B5000780001F055F818B106F1180000F0C3FFC5
:109B6000002076BD042076BD1CB500BF2CA0254C7E
:109B7000016800910823582204F1200104F17800C3
:109B800001F008F8A8B9214A694604F1180000F06C
:109B900095FE70B9012104F1180000F090FF012337
:109BA0001B4A012104F1180000F0D9FE01202074A5
:109BB000002016BD130001D107207047006801295D
:109BC00018BF00214261016100207047D0B50446F2
:109BD0000E46207F08B10020D0BDA2610027FFF70C
:109BE000A3FE80197941C4E90201206900B1266110
:109BF0002146BDE8D04000209CE7014600200877C0
:109C0000012097E700230020FFFFB400D79902004E
:109C1000FFFF7F0000000000D82C002057990200B1
:109C20000100060080B51548002141730161BFF3B2
:109C30005F8F00BF13A101F040F8002002BD80B586
:109C400000218DF800106846FDF7E2FEF1EE100AE3
:109C500020F09F00E1EE100ABFF35F8F084940201B
:109C600008609DF80000FDF7EEFE00F0B3F808B1C3
:109C700041DF01BD20BF40BF20BF01BD8C2C0020B3
:109C800084E200E07CC2020094C2020004000000F2
:109C9000806870472028014604DA5048C84000F028
:109CA00001007047402808DA0122A1F1200012FAD1
:109CB00000F018BF0120C0B27047012070470000BB
:109CC0001FB5044653A1684600F0F7FF02E068465E
:109CD00000F0F7FF00F024F848B100F021F8024648
:109CE00020465168126890470028F0D1112004B036
:109CF00010BD00001FB5044649A1684600F0DDFF15
:109D000009E000F00DF802462046516812689047BD
:109D1000684600F0D6FF00F003F80028F1D11FBD1F
:109D20006846B5E780B51620FFF7B4FF28B942F2C0
:109D30000100BDE80240FFF70DBB294991F8160369
:109D40004009082803D2EC22C240D00702D442F2D4
:109D50000200EEE7234A906820B1116841F48001C7
:109D6000116001BD4FF48000086001BD38B51E4D83
:109D7000287808B1082032BD0120A8700020FFF724
:109D80009FFF112819D00020FFF7B4FF00F01CF846
:109D9000DFF8581028A010DF0446401E8041C00F95
:109DA00000F00DF80CB1204632BD0020A87068709C
:109DB000FFF7B8FF0120FFF79DFF002032BD28709C
:109DC0009DF80000FDF73FBE00208DF800006846BA
:109DD000FDF71EBE0448007870470000FC06FFBD7A
:109DE00000E100E0A02C0020DC2C00200DA50200EA
:109DF000E0B500BF0DA1684600F05FFF05E04868D0
:109E000009688847684600F05CFF02990029F6D18E
:109E100007BDEDE730C4020040C4020008000000A6
:109E200040C4020050C402000800000050C40200F8
:109E300060C4020008000000010000077FB50C00AC
:109E400008BF0E2068D06A496A4E21606A46002128
:109E50000023002582E82A00012106238DF8000056
:109E60008DF80210ADF8043069462268624D20205A
:109E700069DF62494D1BED082D0445F0010528B14D
:109E800000F02EFF0246314600F048F800F049F895
:109E90000121ADF802208DF80110694622684020AA
:109EA00069DF30B100F01CFF024606F1480100F006
:109EB00035F800F036F80A218DF80010694622685E
:109EC000012069DF30B100F00BFF024606F194017A
:109ED00000F024F800F025F84FF4B06100916946D5
:109EE0002268A12069DF30B100F0FAFE024606F1D7
:109EF000E00100F013F800F014F88DF80010694646
:109F00002268A02069DF30B100F0EAFE024606F5C3
:109F10009A7100F003F8002004B070BD2846FDF7E8
:109F2000ADBA684600210022002380E80E00704789
:109F3000000000002DE9F8430646304937682E4DF1
:109F400060DF04464D1BED0830682D0487421AD2AD
:109F500045F00208DFF8A89049464046FDF78BFA25
:109F600033683A4609F130014046FDF78DFA25483D
:109F700002683068920202F10052121A09F164017B
:109F80004046FDF77BFA1CB91F490120087008E024
:109F9000204600F0A5FE02461CA145F00100FDF799
:109FA0006DFA2046BDE8F28317490878002800D1F1
:109FB000704700B591B03422ADF80020694604A87E
:109FC00061DF20B919A101A800F077FE0CE0052897
:109FD00018BFFFF7BFF911B000BD5168126804A89F
:109FE000904701A800F06DFE039A002AF5D1E2E740
:109FF000002300202CB60200A0BD0200D8BD020044
:10A0000010BD02000C010010DF2C002073645F62A1
:10A010006C655F656E61626C652829207265747578
:10A02000726E65642025732E00000000BCC0020023
:10A03000DCC00200080000001721018000231B2261
:10A040004180037143718271C2717047F8B500BFDE
:10A0500093A384B0D3E90067CDE90267ADF8081097
:10A06000ADF80A10054606216846FEF719F86A465B
:10A0700002A9284690DF040025D000F031FE0346F7
:10A080007C487D4E7D4F861BF608360446F001065F
:10A090002A4639463046FDF7F7F9BDF80000BDF80D
:10A0A0000230002808BF002B05D0024607F14C0102
:10A0B0003046FDF7E9F9BDF8042022B107F18C0123
:10A0C0003046FDF7DBF9204605B0F0BD80B508B994
:10A0D0000E2002BD01611B23172101804180037105
:10A0E000801DFFF7A9FF002002BD000002469088F6
:10A0F000002800D07047F0B58BB05E4B5E4C1088E6
:10A100005F4D1C1BE4082404102844F001040E4693
:10A110000BD011282ED0232800F08F8024286ED059
:10A120003A282BD0552847D091E0B71D3079B87127
:10A13000D17B012904D0022904D17088388001E044
:10A140003188398039887A888A420ED20020A5DF8A
:10A1500010B90120787108E0112802D1012038716E
:10A1600003E000F0BDFD00F08DF8B979F879884280
:10A170006DD269E0B01DFFF75FFF68E0B71D508941
:10A180003988884228BF08461728B8BF172078802A
:10A19000306900281CBF7879002809D042A100F05E
:10A1A00076F869467888ADF8040030463269904701
:10A1B0000020787138714AE0D088B71D1728398897
:10A1C000B8BF1720884228BF084678800020387121
:10A1D000B5DF38B100F084FD024605F134012046B8
:10A1E000FDF74CF97879002831D1306900282ED05C
:10A1F0002FA100F04CF87888ADF8040018E0111D8C
:10A2000068462C22FDF78AFCBDF80010BDF804203A
:10A2100006EBC1077A73D6F81000C0B126A0D0E9CA
:10A220000023CDE90023ADF80210787B8DF80400FF
:10A23000694632693046904709E0B01D128981793C
:10A24000D2B2914288BF11460020FFF7FFFEB07ADC
:10A2500068B1F1880020A5DF18B90121B072F17250
:10A2600005E0112803D000F03BFD00F00BF80BB027
:10A27000F0BD0000B0BD0200A0BD02002CBC020079
:10A2800018BE0200024629462046FDF7F7B8002016
:10A29000D1E90023CDE90023ADF8020070470000AA
:10A2A0000000000000000000770A0000000000002D
:10A2B000770A0000000000007ADA000000000000C9
:10A2C0008F490A89824202D101F1080070470020BB
:10A2D0007047F0B58688C788B418B24288BF324646
:10A2E000B21AFD18BB4288BF3B46FB1A4E8807884E
:10A2F000BE4224BF4088B04209D38888904228BF1C
:10A30000844204D3C888984228BF854201D20020E5
:10A31000F0BD0120F0BD7B498969002918BF0847BD
:10A32000704738B5044680B2FFF7CAFF020027D055
:10A33000744D107A297B88420DD202F10A01A0B235
:10A3400075DF20B111281BD0FFF7E5FF31BD107A72
:10A35000401C107231BD00211172287C38B13B21A4
:10A36000A0B276DF00281CBF0828FFF7D4FF696978
:10A3700031B100228DF80020ADF8024068468847D0
:10A3800031BD70B5040001D10E2070BD5D4E304668
:10A3900021461C22FDF7C2FB594D35602068A8B14B
:10A3A0007ADFB8B9216828460822FDF7B7FB4FF6D7
:10A3B000FF7005F120012881E96005F10C00524A87
:10A3C0000021FFF7F7FB28B1032070BD28467BDF93
:10A3D0000028ECD070BD80B502460B464949587A3A
:10A3E00058B9187A002858680CBF49688968FFF77F
:10A3F000EDFB68B1FFF78FFF01BD002018724969BE
:10A4000031B101238DF80030ADF80220684688474D
:10A4100001BD2DE9F84306463A4F3088102840F236
:10A42000F3184FF6FF7506D0112829D0122850D006
:10A43000502832D061E0F07BB6F8049001285CD15E
:10A440002846FFF73DFF040008BF04203ED0A4F8D3
:10A45000009000202072082204F10A002849FDF72C
:10A460005DFB2B46424606F1100104F10A00FFF79E
:10A4700030FF6072F88900283FD12146484639E014
:10A48000B088FFF71DFF040037D06068FFF7B5FB09
:10A4900008B1FFF740FF25802FE0F088F989884256
:10A4A00004BF308A022828D1B5882846FFF708FF64
:10A4B000040022D006F1120000F074F810B1214619
:10A4C000284617E06068FFF798FBB0B1BDE8F2439B
:10A4D00021E7B7883846FFF7F3FE04000DD02B467E
:10A4E000424606F1080104F10A00FFF7F2FE60722D
:10A4F00021463846BDE8F4436DE7BDE8F18300002E
:10A50000202B0020302C002023A3020072B6FDF780
:10A510000BF9FCF7D3FF0028FBD11048104C114970
:10A52000114D041BE408240444F00100FCF7A3FFD0
:10A53000D5F8E400C10700D500BE0C4944F0020084
:10A54000FCF799FFBFF34F8F2968094801F4E061D8
:10A5500001432960BFF34F8F00BFFDE7C0BD02007C
:10A56000A0BD0200B8C102000CED00E0C4C10200B1
:10A570000400FA05D2B2203A22BF00FA02F100200C
:10A5800070475242D041D2F1200291404140D04028
:10A59000904041407047FEE701460878497840EA1C
:10A5A0000120704780B5FFF7F7FFFFE700F00100DB
:10A5B00002BD0000401E002204280A700FD8DFE808
:10A5C00000F0030507090C00112007E0212202E03A
:10A5D000312003E012220A70704722200870704771
:10A5E000F8B50E4690B00546B078002806BF0121A8
:10A5F0008DF80E108DF80E003088ADF80C0017465F
:10A60000032101A8FDF74CFD707C01A9FFF7D2FFE3
:10A61000B07C0DF10501FFF7CDFFF07B00289DF820
:10A62000060014BF0821002100F0F70001438DF857
:10A630000610307C00B1102001F0EF0101438DF8CD
:10A640000610307B00B1012001F0FE0101438DF8BE
:10A65000061001F0F901307D002814BF042002200B
:10A6600001438DF8061009A81C21FDF719FD707B28
:10A6700010F0300F1DD0032102A8FDF711FDF07C72
:10A680000DF10901FFF796FF9DF8081001F0F001A8
:10A6900041F001018DF8081011218DF808109DF886
:10A6A0000A1001F0F90141F002018DF80A1002A927
:10A6B0000E91707B8DF8240004A8B17B8DF82510D5
:10A6C0001421FDF7EDFC03A901AA04910592B088BD
:10A6D000ADF81C00B06818B1F288ADF818200890E9
:10A6E000B469002C32D003216846FDF7D9FC2088DC
:10A6F000ADF82C006088ADF82E0061680A91CDF8A5
:10A7000034D06946207BFFF755FFB069407B0DF1DF
:10A710000101FFF74FFFB169887A00289DF8020018
:10A7200014BF0821002100F01BF8B269D07A00F0B4
:10A730001DF8B069007A00F021F8B269907B00281A
:10A7400014BF0420022001438DF80210F06900B10B
:10A750000C903B4604AA09A92846AADF11B0F0BD17
:10A7600000F0F70001438DF80210704700B110208F
:10A7700001F0EF0101438DF80210704700B1012094
:10A7800001F0FE0101438DF8021001F0F90170475C
:10A790002E4901200870704738B588B004466846D5
:10A7A0002FA12022FDF7BAF94FF0FF31019102915C
:10A7B0000391062500954FF0EB710691220014BF1E
:10A7C000234A0022214D6946281D00F0CDFA08B128
:10A7D000FEF7C0FD6C7009B030BD0120DCE770B53C
:10A7E0001A4C1C4D00202070D2B22679AB5D23B1EB
:10A7F00004F10800FEF7A8F803E004F11000FDF7EB
:10A80000CDFD08B1FEF7A6FD617811B120780028D2
:10A81000FCD070BD80B5104A009240230F4A00F072
:10A82000D3FA01BD704780B508490A4A0B79D05C5C
:10A8300020B101F10800FEF708F803E001F1100073
:10A84000FDF744FDBDE802400020A5E7DC23002021
:10A8500091A70200782C0020DFA70200602B0020C7
:10A86000FFFFFFFFFFFFFFFFFFFFFFFFFFFFFFFFF8
:10A8700000000000000000000000D60106010000FA
:10A8800028B10FF2BC21800141F001010847704757
:10A8900000EB8100C0F840257047C0F808137047EE
:10A8A00081B00022425040580090009901B070479A
:10A8B000C0F844137047C0F84813704770B5437927
:10A8C000924C934E04EB8305231DAA604579914A6F
:10A8D00013F83530B21AD208120433B18E4942F05F
:10A8E0000200FCF7C8FD082070BD05680B88C5F89C
:10A8F0000835897890F904304901002B1D4602D4AF
:10A90000864B595505E0864E05F00F05354405F890
:10A91000041C90F90430190007D4012503F01F012D
:10A92000804E8D405B0946F82350211D4379012557
:10A9300001F8335090F8051044F8310042F003005C
:10A940007AA1FCF798FD002070BD0000006801218D
:10A95000016070470068012140F8041F70472DE92D
:10A96000F04104460D46206890464FF48036AE40D4
:10A97000AA00C0F8086302F5A0721F46C0F8486339
:10A9800011B2FFF78DFF206828F07F422946FFF7BC
:10A990007FFF2068C0F844630FB1C0F80463BDE8CE
:10A9A000F08170B504460D4620681646FFF780FF1B
:10A9B00016B12068C0F8045370BD38B504460D4682
:10A9C0002068FFF778FF20682946BDE8344064E737
:10A9D00010B5006844580CB1FFF762FF200018BFA3
:10A9E0000120C0B210BD2DE9F84F88464FF48031E8
:10A9F00001FA08FA0546994622F07F445146FFF7CE
:10AA0000DCFF2868D0F8047500EB88013A46D1F8DD
:10AA100040B541464FEA8806FFF73AFF06F5A076B3
:10AA2000286831B2FFF73CFFABEB070727F07F4701
:10AA3000012F06D11020FFF723FF286831B2FFF75E
:10AA40002FFF2868D0F80475C0F844A3E11B661CEA
:10AA500021F07F41012913D132464146FFF718FF0B
:10AA60001020FFF70DFF2868D0F80405874224D195
:10AA7000012251462846FFF794FF0020BDE8F28FDF
:10AA800022464146FFF704FF2B68D3F80475641E85
:10AA9000E41B6FF07F4124F07F44A1EB0900A0424A
:10AAA0000BD3002CE4D1324641461846FFF7F0FEA6
:10AAB0002868D0F804058742DAD00D20DEE70A4680
:10AAC00002216EE74FF4827182E74FF4803202FA7E
:10AAD00001F172E7890001F5A07109B278E7006819
:10AAE000D0F80405704790F90410080007D401223B
:10AAF00001F01F000C4B8240490943F821207047A8
:10AB0000024908688968084700000000AC2C002052
:10AB1000A8BD0200A0BD02009CBF020000E400E04E
:10AB200018ED00E000E100E000E200E05254433A9A
:10AB300020696E697469616C697A65642E00000031
:10AB40000338FDD87047000070B504460D466668AE
:10AB500000E03668306820B1A26829469047002896
:10AB6000F7D130682860356070BD42681168080010
:10AB70001CBF09681160704702460020536800E05E
:10AB800013461A6822B18A42FAD108681860012077
:10AB90007047FEE750B509B90E2050BD144694FB2E
:10ABA000F3F603FB16440CB1092050BD016084602C
:10ABB000002141608281C381002050BD3CB550E836
:10ABC000015FAAB2C3891A4483899A4228BFD21A64
:10ABD00003899A4202BFBFF32F8F002407E0C2EA25
:10ABE000050240E80123002BE9D14FF0010400F0F9
:10ABF0003AF81AB100680988084436BD002036BD0D
:10AC00000A8849888A4209D150E8011FC1EA0141F6
:10AC100040E80112002AF7D1012070470020704758
:10AC20003CB550E8025F1FFAA5F2C3889A4202BF02
:10AC3000BFF32F8F00240DE0C3891A4483899A4201
:10AC400028BFD21AC5EA024240E80223002BE8D10D
:10AC50004FF0010400F007F81AB100684988084471
:10AC600036BD002036BD01958DF80040019B0B607C
:10AC70009DF80020704700000A8849888A4209D15F
:10AC800050E8021FC1EA214140E80212002AF7D130
:10AC9000012070470020704705E00A684B689A421F
:10ACA00009D1083141600268416853689942F4D182
:10ACB00000218160704782607047016009684160CF
:10ACC000EAE7816851B103689A6851184268816067
:10ACD0005368994202D102F10801F0E77047FEE79C
:10ACE00080B500F003F800B90FA002BD10B50D4902
:10ACF00001F5947200E01A46914210D2531ADB100B
:10AD000003EBD3735B1001EBC3031C68A042F2D3C7
:10AD1000844238BF03F10801EED3586810BD00200B
:10AD200010BD000030B90200556E6B6E6F776E205B
:10AD30006572726F7220636F64650000F8B500E0A1
:10AD4000F8B502788DF800204368019382688DF889
:10AD50000820C068194A039002EB81026846D16856
:10AD60005268904705B000BDF8B5044688B0267813
:10AD7000124F07EB8600154645600A69C260202223
:10AD8000487FB8556846FCF7C9FE04962678B85D3A
:10AD900040B1002D14BF0A4A00226946201DFDF76C
:10ADA000B9FC08E0002D14BF064A0022694604F1F0
:10ADB0000C00FDF7FBF909B0F0BD0000782C002075
:10ADC0003DAD020041AD0200F0B595B00D461A9CB4
:10ADD00016461F462846FCF725FD09A81821FDF751
:10ADE0005FF909960A970E940023082201A92846C4
:10ADF000FCF772FD0398BDF80A1004900826BDF810
:10AE00000800ADF8140000220198ADF8161000F00B
:10AE1000030001288DF8192017D10198019CC0F377
:10AE2000C2008DF8180008230198C0F38316B20001
:10AE30000FA92846FCF750FD09A8009004AB324644
:10AE40000FA9A00A00F06EF81FE0019800F00300BF
:10AE500002281AD10198019CC0F3C200A40D8DF8FC
:10AE600018000827082C98BF274633463A4607A9FA
:10AE70002846FCF731FD09AB04AA394607A800F0C3
:10AE800099F8BE19E41B002CEBD12846FCF7CEFC48
:10AE900015B0F0BD7CB504460D46E3884BB100BF4C
:10AEA0000FF2D8160FF2DC1278A10096284600F0B7
:10AEB0000FF9217A05291CD0607A6F4E48B1A0881D
:10AEC000FCF7DAF906EB800065A14269284600F03C
:10AED000FFF8A0880021FCF7C1F90346207A56F854
:10AEE000202028460DF1080DBDE870406DA100F04E
:10AEF000EFB873BD38B50C46017A052959A507D0BE
:10AF0000407A30B15DA256A1204600F0E1F800E0A1
:10AF10001AB12946204600F0DBF82046BDE8324051
:10AF200000F0CAB82DE9F84384B017460C9D2E7B7B
:10AF3000002281460C4698462A7329464046FFF770
:10AF4000A9FF062F2CD8DFE807F004090F1A2116F5
:10AF50001D004946284600F0BBF821E0226849461A
:10AF6000284600F0B5F81BE0636822684946284689
:10AF700000F0AEF814E020690290E1680191A06849
:10AF8000009007E06069039021690291E0680190F8
:10AF9000A1680091636822684946284600F098F845
:10AFA000002229464046FFF7A5FF2E7305B0BDE8F5
:10AFB000F08300002DE9F84F8A46BAF1080F814668
:10AFC00098464AD80092002298F80CB038A588F824
:10AFD0000C2041460098FFF75DFF002722A457454B
:10AFE00006D219F807202946404600F071F803E020
:10AFF0002146404600F06CF87F1C082FEFD31BA1C0
:10B00000404600F065F8002619A71AA4564516D246
:10B0100019F806507F2D0BDAA5F120005F2808D320
:10B02000284600F069F820B9284600F06FF800B90A
:10B030002E252A462146404600F04AF803E03946CC
:10B04000404600F045F8761C082EDFD30098012218
:10B050004146FFF74FFF88F80CB0BDE8F18F0000C4
:10B06000257300000D0A0000202020007C00000055
:10B070002000000025630000FC2300201B5B306DD6
:10B08000000000001B5B313B33316D0025734C6FBA
:10B0900067732064726F70706564202825642925A9
:10B0A000730D0A003C25733E2025733A20000000F2
:10B0B000202530327800000010B50446A2682AB17D
:10B0C00021682069636998470020A06010BD0000D6
:10B0D000002900D170470CB438B500BF05A31C6827
:10B0E000009404AD00956A4600F081F831BC5DF82B
:10B0F0000CFB00000000000010B5044600F0BDF994
:10B10000014620460969BDE81040084710B50446CD
:10B1100000F0B3F901462046C969BDE81040084770
:10B1200038B50D4604460A2D04BF0D21FFF7F8FF80
:10B13000A068411CA160226815546068814204D354
:10B140002046BDE83240FFF7B7BF31BD2DE9F84FCB
:10B150008B460124154602E0B1FBF5F1641CA942BF
:10B16000FAD29A460B9FD146A24538BFA1468046E7
:10B170000A9CF8070CD45CB1B8070CD42026A14572
:10B1800006D231464046FFF7CBFF641E002CF6D1B5
:10B190002E46012507E0BAF1000FEFD13026EEE789
:10B1A000AAF1010A7543BAF1010FF9D8BBFBF5F01A
:10B1B000B04228BF7543F9D29CA1BBFBF5F005FB5B
:10B1C00010BB095C4046FFF7ABFFB5FBF6F5002D61
:10B1D000F2D1F80709D544B1A14506D22021404655
:10B1E000FFF79EFF641E002CF6D1BDE8F18F2DE91C
:10B1F000FE4F0D008246174600F00B8115F8010B3B
:10B20000010000F0FE80252940F0F580002602E0D4
:10B2100046F001066D1C29782B2907D02D29F7D07F
:10B22000302908BF46F00206F4D002E046F00406DA
:10B23000F0E700240A2007E02978A1F130020A2A69
:10B240000AD26D1C00FB04242A29F5D1396851F873
:10B25000042B396014196D1C29782E294FF0000831
:10B260000BD16D1C04E0303900FB08116D1C8846C1
:10B270002978A1F130020A2AF5D3297801E015F8DE
:10B28000011F6C2918BF6829F9D0252906F0010093
:10B2900016D0582964D063290DD0642918BF6929B4
:10B2A0000FD0702900F08E8073295DD0752953D09E
:10B2B000782955D09DE0386850F8041B3860C9B231
:10B2C00095E0396851F8049B39605FEA090148BF8D
:10B2D000494201220A2302E091FBF3F1521C0A29A0
:10B2E000FADAC346904538BF93462CB1B9F1000F46
:10B2F00001D4710700D5641EB10702D5B8F1000F63
:10B3000008D038B934B1A34504D200F08CF8641EDB
:10B31000002CF8D1B9F1000F03D5C9F100092D2196
:10B3200002E0700702D52B2100F07EF806F0030042
:10B33000022808BFB8F1000F08D13CB1A34505D2DF
:10B34000302100F071F8641E002CF7D101960094B2
:10B3500043460A22494646E000F05DF80A2242E0F0
:10B3600000F059F810223EE0396851F8048B39603A
:10B37000002140B9B8F1000F03D0404600F082F838
:10B3800001460E4613E0894603E000F04DF809F14E
:10B39000010918F8011B0800F7D1A14529D244B3CF
:10B3A00000F041F8641EF8E700F03DF8641EA64284
:10B3B00001D2002CF8D118F8011B080019D000F0B8
:10B3C00033F8F8E7386850F8044B3860302100F063
:10B3D0002BF8782100F028F8082100910020019036
:10B3E0000823102221465046FFF7B0FE01E000F08E
:10B3F0001BF86D1C01E000F017F8287800287FF496
:10B40000FDAE9AF80C0020B15046BDE8FE4FFFF7A4
:10B4100053BEBDE8F78F386850F8041B38600196BA
:10B420000094434670472021504679E6303132334C
:10B43000343536373839414243444546613807E0B0
:10B4400005E0A0F161011A2901D2012070474138BD
:10B450001A288041C00F7047A0F121010F290AD39B
:10B46000A0F13A02062A06D9A0F15B01062902D30F
:10B470007B380428EDE70120704701487047000041
:10B480003824002000F1010310F8011B11B110F85D
:10B49000011BFBE7C01A704710B5574A574910689F
:10B4A000082804D100230B604B60C1F82C341068CD
:10B4B000082833D15248D2F8D4320360D2F8D842A7
:10B4C0004460D2F8DC328360D2F8E042C460D2F843
:10B4D000E4320361D2F8E8424461D2F8EC3203620C
:10B4E000D2F8F0424462D2F8F4328362D2F8F842E1
:10B4F000C462D2F8FC320363D2F800434463D2F84A
:10B5000004330364D2F808434464D2F80C338364F0
:10B51000D2F81043C464D2F81433036510680828C5
:10B5200004BF5068002802D13648374B03601468C6
:10B53000082C04BF5068002802D13448FB23036064
:10B540001468082C04BF506800280AD1D1F8D80D1F
:10B5500092F82831000903F00F0343EA0010C1F804
:10B56000D80D1068082804BF5068002803D1284867
:10B570004FF4007303601268082A07D1D1F8F4026F
:10B58000C20744BF6FF00100C1F8F4022149C86F3F
:10B5900040F47000C867BFF34F8FBFF36F8F1E4A30
:10B5A000106800285CBF506800281DD51B4B012483
:10B5B000C3F8044100F036F81224146000F032F8A9
:10B5C000546000F02FF80022C3F8042100F02AF89C
:10B5D000BFF34F8F0A68124802F4E06202430A6028
:10B5E000BFF34F8F00BFFDE7014A0249116010BD54
:10B5F000342400200090D003300100100C010040E2
:10B6000020C500408C5600404881030018F50040DA
:10B61000409602400CED00E00012001000E40140F2
:10B620000400FA0518680028FCD0704773645F6254
:10B630006C655F6366675F73657428292072657443
:10B6400075726E6564202573207768656E2061745D
:10B6500074656D7074696E6720746F2073657420F3
:10B66000424C455F434F4E4E5F4346475F47415014
:10B670002E00000073645F626C655F6366675F73D2
:10B68000657428292072657475726E65642025734F
:10B69000207768656E20617474656D7074696E677B
:10B6A00020746F2073657420424C455F4741505FA2
:10B6B0004346475F524F4C455F434F554E542E0013
:10B6C00073645F626C655F6366675F736574282986
:10B6D0002072657475726E656420257320776865C5
:10B6E0006E20617474656D7074696E6720746F206C
:10B6F00073657420424C455F434F4D4D4F4E5F4341
:10B7000046475F56535F555549442E0073645F6248
:10B710006C655F6366675F73657428292072657462
:10B7200075726E6564202573207768656E2061747C
:10B7300074656D7074696E6720746F207365742012
:10B74000424C455F47415454535F4346475F415421
:10B7500054525F5441425F53495A452E0000000045
:10B7600073645F626C655F6366675F7365742829E5
:10B770002072657475726E65642025732077686524
:10B780006E20617474656D7074696E6720746F20CB
:10B7900073657420424C455F47415454535F4346A0
:10B7A000475F534552564943455F4348414E4745DD
:10B7B000442E000033B58BB00021044600910C9854
:10B7C00080B1002529460CA800F0A9F838B10099ED
:10B7D000684600EB410295800098401C00906D1C6B
:10B7E000142DEFD3204669462C22FCF797F90DB0B3
:10B7F00030BD002A18BF00F07DB800F085B82DE9F3
:10B80000F84306468CB03088B488394D102806D0ED
:10B8100011283CD019285CD01A283ED064E0AA68D0
:10B82000D243009268466968FCF7C6F8009901A8FF
:10B83000FFF7C0FF4FF000080EE002A8002730F825
:10B840001890281D494600EB870000F05DF87F1C2A
:10B850001E2FF6D308F1010801988045EDD3142C72
:10B8600003DB0420FDF776FD3EE0214605F10800EC
:10B8700000F040F82146281D00F03CF8F07B02283B
:10B8800032D1214605F10C0000F034F82CE02146BD
:10B8900005F1080000F038F826E0367A3609042E63
:10B8A000ACBF01220022214605F11800FFF7A1FFDD
:10B8B000022ECCBF01220022214605F11400FFF721
:10B8C00098FF022EACBF01220022214605F1100094
:10B8D00008E0307A40B9727AD20802F001022146BB
:10B8E00005F11800FFF785FF0DB0BDE8F0830000FB
:10B8F000E02900200B46012103F01F025B09914063
:10B9000000EB8300FCF740B80B46012103F01F0257
:10B9100091405B09C94300EB8300FCF74DB84A092D
:10B9200050F8220001F01F01C84000F001007047EC
:10B930000000000034C5020001000000DCC002006D
:10B9400002000000C0BF02000300000080C302002C
:10B950000400000094C3020005000000A8C3020018
:10B960000600000094C2020007000000ACC2020002
:10B9700008000000C4C2020009000000D4C1020097
:10B980000A000000DCC202000B000000F4C202004A
:10B990000C000000BCC302000D000000D0C3020078
:10B9A0000E00000070C402000F000000E4C302009B
:10B9B000100000000CC302001100000080C402004F
:10B9C0001200000024C3020013000000F8C30200AC
:10B9D00080000000E4BF020081000000F0C102000E
:10B9E000820000000CC2020083000000FCC00200C4
:10B9F0008400000008C002008500000024BF02008F
:10BA0000860000003CC30200900000001CC1020040
:10BA1000910000003CC102009200000054C30200EB
:10BA2000008200005CC102000182000028C2020006
:10BA30000282000044C20200008400002CC0020008
:10BA400001840000F8BE0200028400004CBF020026
:10BA50000384000050C0020038B5424C207808B181
:10BA6000852510E0A060002161602061E1600FF297
:10BA7000850000F087F80546FEF7ACF908B900F03C
:10BA80008DF801212170384A106808B10121A17098
:10BA9000284632BD1CB500F015F8324CE068401E57
:10BAA000E060E068002802BF2F490868002803D141
:10BAB00000F081F80020A070FFE79DF80000FBF780
:10BAC000C2FF13BD00218DF800106846FBF7A0BF30
:10BAD00038B50400234814BF00F1100500F1080533
:10BAE00004E00868286020464968884729680029DA
:10BAF000F7D131BD02001B4903D101234B70002057
:10BB000002E0012801D18870E2E7704718B9154AB0
:10BB100001215170DCE770471CB520B101280AD023
:10BB2000032819D013BD114901200860BFF34F8FBE
:10BB3000BFF36F8F13BD00228DF800206846FBF71E
:10BB400067FF084C207808B9FFF786FFE068401CC3
:10BB5000E0600121A170B0E700F020F8FFF79AFF44
:10BB600013BD0000642C00200004014080E100E0CF
:10BB70004FF0804181B000220A500858009000998F
:10BB800001B07047244B19790246002009B1852085
:10BB9000704701211A601971587170471F48016878
:10BBA000C90704D4C02280F80023012101600120CC
:10BBB0001B4A1060704710B51A4C0221C4F8FC12E1
:10BBC00000F007F801212160D4F80C04C003FBD475
:10BBD00010BD4FF48270CBE74FF48070C8E738B5E2
:10BBE000114D0D4C286848B1FFF7F6FF0121C5F84B
:10BBF0000812607910B9617122689047686848B18D
:10BC0000FFF7E7FF0220C5F8080201202168BDE820
:10BC10003440084731BD0000C82C002000E100E09E
:10BC2000180500400C0000400001004073645F6292
:10BC30006C655F6761705F646174615F6C656E679E
:10BC400074685F7570646174652829202872657155
:10BC50007565737429206F6E20636F6E6E656374F3
:10BC6000696F6E20307825782072657475726E6504
:10BC7000642025732E00000054686520726571757C
:10BC800065737465642054582F5258207061636B3B
:10BC90006574206C656E67746820697320746F6FBB
:10BCA000206C6F6E672062792025752F2575206FB7
:10BCB00063746574732E0000546865207265717535
:10BCC000657374656420636F6D62696E6174696F1A
:10BCD0006E206F6620545820616E64205258207088
:10BCE00061636B6574206C656E677468732069733B
:10BCF00020746F6F206C6F6E67206279202575202D
:10BD00006D6963726F7365636F6E64732E000000FC
:10BD1000496E73756666696369656E742052414D3C
:10BD200020616C6C6F636174656420666F7220744F
:10BD3000686520536F66744465766963652E0000FC
:10BD40004368616E6765207468652052414D2073B9
:10BD500074617274206C6F636174696F6E206672B7
:10BD60006F6D203078257820746F20307825782EFC
:10BD7000000000004D6178696D756D2052414D20C5
:10BD800073697A6520666F72206170706C69636197
:10BD900074696F6E20697320307825782E0000005A
:10BDA000E0C4020000000000ECC40200000000003B
:10BDB00020C402000000030340C502000000000090
:10BDC000E8C502000000030304C5020000000000F3
:10BDD000A0C502000000030310C502000000030319
:10BDE0001CC502000000030328C50200000000007B
:10BDF000A8C5020000000000B0C50200000000005D
:10BE0000ECC5020000000000B8C502000000000000
:10BE1000C0C502000000000073645F626C655F676C
:10BE2000617474635F65786368616E67655F6D7484
:10BE3000755F7265717565737428292072657475F4
:10BE4000726E65642025732E0000000073645F62CB
:10BE50006C655F67617474735F65786368616E6752
:10BE6000655F6D74755F7265706C792829207265E5
:10BE70007475726E65642025732E00001FB500BFB7
:10BE80000CA468464BDF20B9214601A8FEF715FF38
:10BE90000BE0052818BFFDF75DFA1FBD516800983B
:10BEA0001268904701A8FEF70CFF039A002AF5D10B
:10BEB000E7E7000060C4020070C402000800000050
:10BEC00030B4002512E050F8042BD30744BF4A4495
:10BED000521E091F042942F8045BFAD213468C074C
:10BEE00044BF15809B1CC90748BF1D7050F8041B38
:10BEF0000029E8D130BC70474E52465F4552524F40
:10BF0000525F424C455F495053505F4348414E4E4B
:10BF1000454C5F414C52454144595F455849535443
:10BF2000530000004E52465F4552524F525F4D4FF4
:10BF300044554C455F414C52454144595F494E4937
:10BF40005449414C495A4544000000004E52465F56
:10BF50004552524F525F424C455F495053505F4CDF
:10BF6000494E4B5F444953434F4E4E45435445441D
:10BF70000000000010B5074979441831064C7C4494
:10BF8000163404E00A68081D114488470146A1429E
:10BF9000F8D110BD040100002001000052544320DC
:10BFA000696E7374616E636520616C72656164793A
:10BFB00020696E697469616C697A65642E0000009D
:10BFC0004E52465F4552524F525F534F465444457E
:10BFD000564943455F4E4F545F454E41424C4544A0
:10BFE000000000004E52465F4552524F525F4D4F87
:10BFF00044554C455F4E4F545F494E495449414C5E
:10C00000495A4544000000004E52465F4552524F87
:10C01000525F4D555445585F434F4E445F494E491A
:10C02000545F4641494C4544000000004E52465F73
:10C030004552524F525F424C455F495053505F52F8
:10C04000585F504B545F5452554E43415445440041
:10C050004E52465F4552524F525F424C455F4950E7
:10C0600053505F504545525F52454A4543544544FD
:10C07000000000004EF68851CEF20001086840F43E
:10C0800070000860BFF34F8FBFF36F8F4FF00070E9
:10C09000E1EE100A7047000029FEFFFF6008000073
:10C0A000802400200000000053B8FFFF900500002E
:10C0B0000401000000230020FEE70000C8C50200C4
:10C0C000D0C50200B0C40200C0C40200C0C4020057
:10C0D000D0C40200D0C50200D8C502004E52465F4F
:10C0E0004552524F525F5356435F48414E444C4570
:10C0F000525F4D495353494E470000004E52465F30
:10C100004552524F525F4D555445585F554E4C4F16
:10C11000434B5F4641494C45440000004E52465F48
:10C120004552524F525F4150495F4E4F545F494D07
:10C13000504C454D454E5445440000004E52465F1C
:10C140004552524F525F464541545552455F4E4FFE
:10C15000545F454E41424C45440000004E52465FFC
:10C160004552524F525F4452565F5457495F4552B1
:10C17000525F4F56455252554E0000000120C046B6
:10C18000002801D0FFF7F6FEAFF300800020AFF3E8
:10C190000080FCF795FF00F000F800F001B8FEE722
:10C1A0000746384600F002F8FBE7FEE720210903C6
:10C1B00026311820ABBEF9E7466174616C206572C8
:10C1C000726F720053797374656D20726573657454
:10C1D000000000004E52465F4552524F525F494E9A
:10C1E00056414C49445F4C454E47544800000000BE
:10C1F0004E52465F4552524F525F4D555445585F1F
:10C20000494E49545F4641494C4544004E52465FB1
:10C210004552524F525F4D555445585F4C4F434B1A
:10C220005F4641494C4544004E52465F4552524F8D
:10C23000525F4452565F5457495F4552525F414ED8
:10C2400041434B004E52465F4552524F525F44525B
:10C25000565F5457495F4552525F444E41434B002D
:10C260000548014603B4684680F30988AFF30080AF
:10C27000FFF700FFFFF782FFA5EDF5FE00000000CD
:10C2800000000000000000000000000000000000AE
:10C29000000000004E52465F4552524F525F4E4FD3
:10C2A000545F535550504F52544544004E52465FD0
:10C2B0004552524F525F494E56414C49445F50419E
:10C2C00052414D004E52465F4552524F525F494EC9
:10C2D00056414C49445F5354415445004E52465FC9
:10C2E0004552524F525F494E56414C49445F464C6D
:10C2F000414753004E52465F4552524F525F494E9E
:10C3000056414C49445F4441544100004E52465FFF
:10C310004552524F525F494E56414C49445F414449
:10C32000445200004E52465F4552524F525F434FB7
:10C330004E4E5F434F554E54000000004E52465F34
:10C340004552524F525F53544F524147455F4655F5
:10C350004C4C00004E52465F4552524F525F494F7F
:10C360005F50454E44494E470000000075617274AD
:10C370005F6C6F675F6261636B656E6400000000F5
:10C380004E52465F4552524F525F494E5445524EAF
:10C39000414C00004E52465F4552524F525F4E4F45
:10C3A0005F4D454D000000004E52465F4552524FD2
:10C3B000525F4E4F545F464F554E44004E52465FBB
:10C3C0004552524F525F444154415F53495A4500D0
:10C3D0004E52465F4552524F525F54494D454F555C
:10C3E000540000004E52465F4552524F525F464F36
:10C3F0005242494444454E004E52465F4552524FC8
:10C40000525F5245534F555243455300C02C0020B4
:10C41000B82C0020C02C0020A0280020180000000C
:10C420006E72665F626C655F676174740000000025
:10C4300000000000000000000000000000000000FC
:10C44000E0C50200E8C50200000000000000000096
:10C45000D0C40200E0C402000000000000000000A0
:10C46000D8C50200E0C50200000000000000000086
:10C470004E52465F4552524F525F4E554C4C000053
:10C480004E52465F4552524F525F4255535900003B
:10C49000014880470148004799B4020061C2020088
:10C4A000F8C40200000000006CC30200F423002066
:10C4B00013A4020000000000EDA00200B42300203D
:10C4C000F197020088230020C1940200C8230020B5
:10C4D000A99F0200000000007DBE020000000000D5
:10C4E0006170705F627574746F6E00006170705F70
:10C4F00074696D657200000015A8020027A802008B
:10C5000025A802007077725F6D676D7400000000EF
:10C510006E72665F7364685F626C65006E72665F00
:10C520007364685F736F6300736F72746C697374A4
:10C53000000000004E52465F53554343455353009D
:10C54000636C6F636B0000006572726F72000000B5
:10C550007761726E696E6700696E666F0000000039
:10C5600064656275670000001B5B313B33306D0012
:10C570001B5B313B33326D001B5B313B33336D0052
:10C580001B5B313B33346D001B5B313B33356D003E
:10C590001B5B313B33366D001B5B313B33376D002A
:10C5A0006E72665F73646800434C4F434B0000003B
:10C5B0004750494F54450000554152540000000077
:10C5C0005541525445000000FFB702000000000032
:10C5D000C58F0200000000000DBB0200000000003B
:10C5E00019BB02000000000061707000505253003F
:10C5F000FEE7FEE7FEE7FEE7FEE7FEE7FEE7FEE713
:10C60000FEE7FEE7FEE7FEE7FEE7FEE7FEE7FEE702
:10C61000FEE7FEE7FEE7FEE7FEE7FEE7FEE7FEE7F2
:10C62000FEE7FEE7FEE7FEE7FEE7FEE7FEE7FEE7E2
:10C63000FEE7FEE7FEE7FEE7FEE7FEE7F2070001A2
:10C64000F0056F10014011000400011003F02B00F1
:10C65000201F8643102C08F0020FFF00FFFF95807B
:10C66000050B0003007D90022730012000400D6182
:10C670000811016145100348C50200500412580416
:10C6800012600410037CB002006808128408127063
:10C69000081278041280041288041290041298047C
:10C6A00090070090D003A680020001894343B47034
:0EC6B000123D0852590C9341B484D101613CF3
:040000050002C261D2
:00000001FF
